{
	"data": {
		"bytecode": {
			"linkReferences": {},
			"object": "608060405234801561001057600080fd5b50615d5a80620000216000396000f3fe608060405234801561001057600080fd5b50600436106101cf5760003560e01c80637ab4339d11610104578063ae5ad227116100a2578063df2786ee11610071578063df2786ee14610587578063e82cd8bf146105a5578063ebb48c3b146105d5578063ef89d3fe1461060b576101cf565b8063ae5ad227146104ed578063aef18bf71461050b578063be07b52f1461053b578063d547741f1461056b576101cf565b806393f1a40b116100de57806393f1a40b1461044f57806395ccea6714610483578063a0c7f71c1461049f578063a217fddf146104cf576101cf565b80637ab4339d146103e757806391d148541461040357806392fd33f214610433576101cf565b8063379607f5116101715780634a0bfeeb1161014b5780634a0bfeeb1461033e5780635889be461461035c5780636c19e783146103925780636e50132f146103ae576101cf565b8063379607f5146102d657806342c3cb55146102f257806348c0d66214610322576101cf565b8063248a9ca3116101ad578063248a9ca31461023e57806328a9a6c21461026e5780632f2ff15d1461029e57806336568abe146102ba576101cf565b806301ffc9a7146101d457806307ac176214610204578063238ac93314610220575b600080fd5b6101ee60048036038101906101e99190613884565b610627565b6040516101fb91906138cc565b60405180910390f35b61021e60048036038101906102199190613ced565b6106a1565b005b610228610f27565b6040516102359190613e67565b60405180910390f35b61025860048036038101906102539190613eb8565b610f4d565b6040516102659190613ef4565b60405180910390f35b61028860048036038101906102839190613f0f565b610f6d565b6040516102959190613e67565b60405180910390f35b6102b860048036038101906102b39190613fca565b611012565b005b6102d460048036038101906102cf9190613fca565b611033565b005b6102f060048036038101906102eb919061400a565b6110b6565b005b61030c6004803603810190610307919061400a565b6112c7565b60405161031991906138cc565b60405180910390f35b61033c60048036038101906103379190614037565b6112e7565b005b610346611849565b6040516103539190614174565b60405180910390f35b6103766004803603810190610371919061418f565b61184f565b60405161038997969594939291906141cf565b60405180910390f35b6103ac60048036038101906103a7919061423e565b61189e565b005b6103c860048036038101906103c3919061400a565b6119a4565b6040516103de9a999897969594939291906142ea565b60405180910390f35b61040160048036038101906103fc919061438d565b611eb3565b005b61041d60048036038101906104189190613fca565b612091565b60405161042a91906138cc565b60405180910390f35b61044d6004803603810190610448919061400a565b6120fc565b005b6104696004803603810190610464919061418f565b612365565b60405161047a9594939291906143e9565b60405180910390f35b61049d6004803603810190610498919061447a565b6123a8565b005b6104b960048036038101906104b4919061418f565b612431565b6040516104c69190614174565b60405180910390f35b6104d7612580565b6040516104e49190613ef4565b60405180910390f35b6104f5612587565b6040516105029190613ef4565b60405180910390f35b61052560048036038101906105209190613eb8565b6125ab565b60405161053291906138cc565b60405180910390f35b6105556004803603810190610550919061418f565b6125cb565b6040516105629190614174565b60405180910390f35b61058560048036038101906105809190613fca565b61272e565b005b61058f61274f565b60405161059c91906144ba565b60405180910390f35b6105bf60048036038101906105ba919061418f565b6127dd565b6040516105cc9190614174565b60405180910390f35b6105ef60048036038101906105ea919061418f565b612940565b60405161060297969594939291906141cf565b60405180910390f35b6106256004803603810190610620919061400a565b61298f565b005b60007f7965db0b000000000000000000000000000000000000000000000000000000007bffffffffffffffffffffffffffffffffffffffffffffffffffffffff1916827bffffffffffffffffffffffffffffffffffffffffffffffffffffffff1916148061069a575061069982612bf8565b5b9050919050565b6106d27f64ed6499e2f5a7ea55dfd56da361bf9d48064843bb3891c36f1dabd9ba2461356106cd612c62565b612091565b610711576040517f08c379a00000000000000000000000000000000000000000000000000000000081526004016107089061454e565b60405180910390fd5b600260015403610756576040517f08c379a000000000000000000000000000000000000000000000000000000000815260040161074d906145ba565b60405180910390fd5b600260018190555082518451146107a2576040517f08c379a000000000000000000000000000000000000000000000000000000000815260040161079990614672565b60405180910390fd5b8888106107e4576040517f08c379a00000000000000000000000000000000000000000000000000000000081526004016107db9061472a565b60405180910390fd5b868811610826576040517f08c379a000000000000000000000000000000000000000000000000000000000815260040161081d906147bc565b60405180910390fd5b428711610868576040517f08c379a000000000000000000000000000000000000000000000000000000000815260040161085f9061484e565b60405180910390fd5b60cb60009054906101000a900473ffffffffffffffffffffffffffffffffffffffff1673ffffffffffffffffffffffffffffffffffffffff166108ad838c8985610f6d565b73ffffffffffffffffffffffffffffffffffffffff1614610903576040517f08c379a00000000000000000000000000000000000000000000000000000000081526004016108fa906148ba565b60405180910390fd5b611388851115610948576040517f08c379a000000000000000000000000000000000000000000000000000000000815260040161093f9061494c565b60405180910390fd5b600a85101561098c576040517f08c379a0000000000000000000000000000000000000000000000000000000008152600401610983906149de565b60405180910390fd5b600080600090505b8551811015610c92576000612710888784815181106109b6576109b56149fe565b5b60200260200101516109c89190614a5c565b6109d29190614acd565b90508582815181106109e7576109e66149fe565b5b6020026020010151836109fa9190614afe565b9250600081878481518110610a1257610a116149fe565b5b6020026020010151610a249190614b32565b90506040518060e00160405280888581518110610a4457610a436149fe565b5b60200260200101518152602001838152602001600081526020018c81526020018381526020018c8e610a769190614b32565b84610a819190614acd565b81526020018c81525060d0600060ca54815260200190815260200160002060008a8681518110610ab457610ab36149fe565b5b602002602001015173ffffffffffffffffffffffffffffffffffffffff1673ffffffffffffffffffffffffffffffffffffffff168152602001908152602001600020600082015181600001556020820151816001015560408201518160020155606082015181600301556080820151816004015560a0820151816005015560c082015181600601559050506040518060e00160405280888581518110610b5d57610b5c6149fe565b5b60200260200101518152602001828152602001600081526020018c81526020018281526020018c8f610b8f9190614b32565b848a8781518110610ba357610ba26149fe565b5b6020026020010151610bb59190614b32565b610bbf9190614acd565b81526020018c81525060d1600060ca54815260200190815260200160002060008a8681518110610bf257610bf16149fe565b5b602002602001015173ffffffffffffffffffffffffffffffffffffffff1673ffffffffffffffffffffffffffffffffffffffff168152602001908152602001600020600082015181600001556020820151816001015560408201518160020155606082015181600301556080820151816004015560a0820151816005015560c0820151816006015590505050508080610c8a90614b66565b915050610994565b506000888b610ca19190614b32565b90506040518061016001604052808d81526020014281526020018c81526020018b81526020018281526020018a81526020018973ffffffffffffffffffffffffffffffffffffffff1681526020018381526020018881526020018781526020018681525060ce600060ca5481526020019081526020016000206000820151816000019081610d2f9190614dba565b506020820151816001015560408201518160020155606082015181600301556080820151816004015560a0820151816005015560c08201518160060160006101000a81548173ffffffffffffffffffffffffffffffffffffffff021916908373ffffffffffffffffffffffffffffffffffffffff16021790555060e082015181600701556101008201518160080155610120820151816009019080519060200190610ddb929190613724565b5061014082015181600a019080519060200190610df99291906137ae565b50905050610e31610e08612c62565b30848b73ffffffffffffffffffffffffffffffffffffffff16612c6a909392919063ffffffff16565b600160cc600060ca54815260200190815260200160002060006101000a81548160ff02191690831515021790555060ca54610e6a612c62565b73ffffffffffffffffffffffffffffffffffffffff167f8f48c5c87fd18c78fb2f723eb06075c3ae8c8bc0c3cdc3aedd86cc18c0b4253b8e8e8e868f8f8a8f8f604051610ebf99989796959493929190615008565b60405180910390a3600160ca54610ed69190614afe565b60ca81905550600160d26000610eed8f8c88612cf3565b815260200190815260200160002060006101000a81548160ff02191690831515021790555050506001808190555050505050505050505050565b60cb60009054906101000a900473ffffffffffffffffffffffffffffffffffffffff1681565b600060976000838152602001908152602001600020600101549050919050565b600080610f7b858585612cf3565b90506000806000610f8b89612d30565b92509250925060d2600085815260200190815260200160002060009054906101000a900460ff1615610ff2576040517f08c379a0000000000000000000000000000000000000000000000000000000008152600401610fe9906150f6565b60405180910390fd5b600061100085838686612d98565b90508095505050505050949350505050565b61101b82610f4d565b61102481612e61565b61102e8383612e75565b505050565b61103b612c62565b73ffffffffffffffffffffffffffffffffffffffff168173ffffffffffffffffffffffffffffffffffffffff16146110a8576040517f08c379a000000000000000000000000000000000000000000000000000000000815260040161109f90615188565b60405180910390fd5b6110b28282612f56565b5050565b6002600154036110fb576040517f08c379a00000000000000000000000000000000000000000000000000000000081526004016110f2906145ba565b60405180910390fd5b6002600181905550600061111682611111612c62565b612431565b90506000811161115b576040517f08c379a0000000000000000000000000000000000000000000000000000000008152600401611152906151f4565b60405180910390fd5b6111c3611166612c62565b8260cd600086815260200190815260200160002060030160009054906101000a900473ffffffffffffffffffffffffffffffffffffffff1673ffffffffffffffffffffffffffffffffffffffff166130389092919063ffffffff16565b600060cf600084815260200190815260200160002060006111e2612c62565b73ffffffffffffffffffffffffffffffffffffffff1673ffffffffffffffffffffffffffffffffffffffff168152602001908152602001600020905060008282600101546112309190614afe565b905060008183600001546112449190614b32565b9050818360010181905550808360020181905550428360030181905550611269612c62565b73ffffffffffffffffffffffffffffffffffffffff16857f18e22050893aa2ece2423f6a3f2c7d3468eda73cb9fb8a8b623b1f27a2fc65a986846040516112b1929190615214565b60405180910390a3505050506001808190555050565b60cc6020528060005260406000206000915054906101000a900460ff1681565b6113187f64ed6499e2f5a7ea55dfd56da361bf9d48064843bb3891c36f1dabd9ba246135611313612c62565b612091565b611357576040517f08c379a000000000000000000000000000000000000000000000000000000000815260040161134e9061454e565b60405180910390fd5b60026001540361139c576040517f08c379a0000000000000000000000000000000000000000000000000000000008152600401611393906145ba565b60405180910390fd5b600260018190555082518451146113e8576040517f08c379a00000000000000000000000000000000000000000000000000000000081526004016113df90614672565b60405180910390fd5b42861161142a576040517f08c379a0000000000000000000000000000000000000000000000000000000008152600401611421906152af565b60405180910390fd5b60cb60009054906101000a900473ffffffffffffffffffffffffffffffffffffffff1673ffffffffffffffffffffffffffffffffffffffff1661146f83898885610f6d565b73ffffffffffffffffffffffffffffffffffffffff16146114c5576040517f08c379a00000000000000000000000000000000000000000000000000000000081526004016114bc906148ba565b60405180910390fd5b600080600090505b855181101561163e578481815181106114e9576114e86149fe565b5b6020026020010151826114fc9190614afe565b91506040518060a0016040528086838151811061151c5761151b6149fe565b5b6020026020010151815260200160008152602001868381518110611543576115426149fe565b5b60200260200101518152602001428152602001428a6115629190614b32565b878481518110611575576115746149fe565b5b60200260200101516115879190614acd565b81525060cf600060ca54815260200190815260200160002060008884815181106115b4576115b36149fe565b5b602002602001015173ffffffffffffffffffffffffffffffffffffffff1673ffffffffffffffffffffffffffffffffffffffff1681526020019081526020016000206000820151816000015560208201518160010155604082015181600201556060820151816003015560808201518160040155905050808061163690614b66565b9150506114cd565b506040518060e001604052808981526020014281526020018881526020018773ffffffffffffffffffffffffffffffffffffffff1681526020018281526020018681526020018581525060cd600060ca54815260200190815260200160002060008201518160000190816116b29190614dba565b50602082015181600101556040820151816002015560608201518160030160006101000a81548173ffffffffffffffffffffffffffffffffffffffff021916908373ffffffffffffffffffffffffffffffffffffffff1602179055506080820151816004015560a0820151816005019080519060200190611734929190613724565b5060c08201518160060190805190602001906117519291906137ae565b50905050611789611760612c62565b30838973ffffffffffffffffffffffffffffffffffffffff16612c6a909392919063ffffffff16565b60ca54611794612c62565b73ffffffffffffffffffffffffffffffffffffffff167f7e8321b3e44425b3b58a0d4c7ccc0cc834b3e0bbd7dcfe65c77ca0c4b1a62ef18a428b8b878c8c6040516117e597969594939291906152cf565b60405180910390a3600160ca546117fc9190614afe565b60ca81905550600160d260006118138b8a87612cf3565b815260200190815260200160002060006101000a81548160ff021916908315150217905550506001808190555050505050505050565b60ca5481565b60d1602052816000526040600020602052806000526040600020600091509150508060000154908060010154908060020154908060030154908060040154908060050154908060060154905087565b6118b26000801b6118ad612c62565b612091565b6118f1576040517f08c379a00000000000000000000000000000000000000000000000000000000081526004016118e8906153c5565b60405180910390fd5b600073ffffffffffffffffffffffffffffffffffffffff168173ffffffffffffffffffffffffffffffffffffffff1603611960576040517f08c379a000000000000000000000000000000000000000000000000000000000815260040161195790615457565b60405180910390fd5b8060cb60006101000a81548173ffffffffffffffffffffffffffffffffffffffff021916908373ffffffffffffffffffffffffffffffffffffffff16021790555050565b60006060600080600080600080600080600060cc60008d815260200190815260200160002060009054906101000a900460ff1690508015611c6057600060ce60008e815260200190815260200160002060405180610160016040529081600082018054611a1090614bdd565b80601f0160208091040260200160405190810160405280929190818152602001828054611a3c90614bdd565b8015611a895780601f10611a5e57610100808354040283529160200191611a89565b820191906000526020600020905b815481529060010190602001808311611a6c57829003601f168201915b5050505050815260200160018201548152602001600282015481526020016003820154815260200160048201548152602001600582015481526020016006820160009054906101000a900473ffffffffffffffffffffffffffffffffffffffff1673ffffffffffffffffffffffffffffffffffffffff1673ffffffffffffffffffffffffffffffffffffffff168152602001600782015481526020016008820154815260200160098201805480602002602001604051908101604052809291908181526020018280548015611bb357602002820191906000526020600020905b8160009054906101000a900473ffffffffffffffffffffffffffffffffffffffff1673ffffffffffffffffffffffffffffffffffffffff1681526020019060010190808311611b69575b50505050508152602001600a8201805480602002602001604051908101604052809291908181526020018280548015611c0b57602002820191906000526020600020905b815481526020019060010190808311611bf7575b505050505081525050905081816000015182602001518360400151846060015185608001518660a001518760c001518860e001518961010001519b509b509b509b509b509b509b509b509b509b505050611ea6565b600060cd60008e81526020019081526020016000206040518060e0016040529081600082018054611c9090614bdd565b80601f0160208091040260200160405190810160405280929190818152602001828054611cbc90614bdd565b8015611d095780601f10611cde57610100808354040283529160200191611d09565b820191906000526020600020905b815481529060010190602001808311611cec57829003601f168201915b5050505050815260200160018201548152602001600282015481526020016003820160009054906101000a900473ffffffffffffffffffffffffffffffffffffffff1673ffffffffffffffffffffffffffffffffffffffff1673ffffffffffffffffffffffffffffffffffffffff1681526020016004820154815260200160058201805480602002602001604051908101604052809291908181526020018280548015611e0b57602002820191906000526020600020905b8160009054906101000a900473ffffffffffffffffffffffffffffffffffffffff1673ffffffffffffffffffffffffffffffffffffffff1681526020019060010190808311611dc1575b5050505050815260200160068201805480602002602001604051908101604052809291908181526020018280548015611e6357602002820191906000526020600020905b815481526020019060010190808311611e4f575b50505050508152505090508181600001518260200151836040015160008060008760600151886080015160009b509b509b509b509b509b509b509b509b509b5050505b9193959799509193959799565b60008060019054906101000a900460ff16159050808015611ee45750600160008054906101000a900460ff1660ff16105b80611f115750611ef3306130be565b158015611f105750600160008054906101000a900460ff1660ff16145b5b611f50576040517f08c379a0000000000000000000000000000000000000000000000000000000008152600401611f47906154e9565b60405180910390fd5b60016000806101000a81548160ff021916908360ff1602179055508015611f8d576001600060016101000a81548160ff0219169083151502179055505b611f956130e1565b611f9d61313a565b8260c99081611fac9190614dba565b50611fc16000801b611fbc612c62565b61318b565b611ff27f64ed6499e2f5a7ea55dfd56da361bf9d48064843bb3891c36f1dabd9ba246135611fed612c62565b61318b565b8160cb60006101000a81548173ffffffffffffffffffffffffffffffffffffffff021916908373ffffffffffffffffffffffffffffffffffffffff160217905550801561208c5760008060016101000a81548160ff0219169083151502179055507f7f26b83ff96e1f2b6a682f133852f6798a09c465da95921460cefb384740249860016040516120839190615551565b60405180910390a15b505050565b60006097600084815260200190815260200160002060000160008373ffffffffffffffffffffffffffffffffffffffff1673ffffffffffffffffffffffffffffffffffffffff16815260200190815260200160002060009054906101000a900460ff16905092915050565b600260015403612141576040517f08c379a0000000000000000000000000000000000000000000000000000000008152600401612138906145ba565b60405180910390fd5b6002600181905550600060d160008381526020019081526020016000206000612168612c62565b73ffffffffffffffffffffffffffffffffffffffff1673ffffffffffffffffffffffffffffffffffffffff16815260200190815260200160002090504260ce600084815260200190815260200160002060050154106121fc576040517f08c379a00000000000000000000000000000000000000000000000000000000081526004016121f3906155de565b60405180910390fd5b600061220f8361220a612c62565b6125cb565b905060008260020154826122239190614afe565b905060008211612268576040517f08c379a000000000000000000000000000000000000000000000000000000000815260040161225f906151f4565b60405180910390fd5b6122d0612273612c62565b8360ce600088815260200190815260200160002060060160009054906101000a900473ffffffffffffffffffffffffffffffffffffffff1673ffffffffffffffffffffffffffffffffffffffff166130389092919063ffffffff16565b60008184600101546122e29190614b32565b9050818460020181905550808460040181905550428460060181905550612307612c62565b73ffffffffffffffffffffffffffffffffffffffff16857fe17a4e28c1e671d625028150b4ebb254cb9bab36831d7ad13f442c63bc336e72858460405161234f929190615214565b60405180910390a3505050506001808190555050565b60cf602052816000526040600020602052806000526040600020600091509150508060000154908060010154908060020154908060030154908060040154905085565b6123bc6000801b6123b7612c62565b612091565b6123fb576040517f08c379a00000000000000000000000000000000000000000000000000000000081526004016123f2906153c5565b60405180910390fd5b61242d612406612c62565b828473ffffffffffffffffffffffffffffffffffffffff166130389092919063ffffffff16565b5050565b600080600060cf600086815260200190815260200160002060008573ffffffffffffffffffffffffffffffffffffffff1673ffffffffffffffffffffffffffffffffffffffff1681526020019081526020016000206040518060a0016040529081600082015481526020016001820154815260200160028201548152602001600382015481526020016004820154815250509050600081600001511161250c576040517f08c379a000000000000000000000000000000000000000000000000000000000815260040161250390615670565b60405180910390fd5b4260cd600087815260200190815260200160002060020154116125355780604001519150612575565b4260cd600087815260200190815260200160002060020154106125745780608001518160600151426125679190614b32565b6125719190614a5c565b91505b5b819250505092915050565b6000801b81565b7f64ed6499e2f5a7ea55dfd56da361bf9d48064843bb3891c36f1dabd9ba24613581565b60d26020528060005260406000206000915054906101000a900460ff1681565b600080600060d1600086815260200190815260200160002060008573ffffffffffffffffffffffffffffffffffffffff1673ffffffffffffffffffffffffffffffffffffffff1681526020019081526020016000206040518060e0016040529081600082015481526020016001820154815260200160028201548152602001600382015481526020016004820154815260200160058201548152602001600682015481525050905060008160000151116126ba576040517f08c379a00000000000000000000000000000000000000000000000000000000081526004016126b190615670565b60405180910390fd5b4260ce60008781526020019081526020016000206005015411612723574260ce6000878152602001908152602001600020600201541061271a578060a001518160c00151426127099190614b32565b6127139190614a5c565b9150612722565b806080015191505b5b819250505092915050565b61273782610f4d565b61274081612e61565b61274a8383612f56565b505050565b60c9805461275c90614bdd565b80601f016020809104026020016040519081016040528092919081815260200182805461278890614bdd565b80156127d55780601f106127aa576101008083540402835291602001916127d5565b820191906000526020600020905b8154815290600101906020018083116127b857829003601f168201915b505050505081565b600080600060d0600086815260200190815260200160002060008573ffffffffffffffffffffffffffffffffffffffff1673ffffffffffffffffffffffffffffffffffffffff1681526020019081526020016000206040518060e0016040529081600082015481526020016001820154815260200160028201548152602001600382015481526020016004820154815260200160058201548152602001600682015481525050905060008160000151116128cc576040517f08c379a00000000000000000000000000000000000000000000000000000000081526004016128c390615670565b60405180910390fd5b4260ce60008781526020019081526020016000206005015411612935574260ce6000878152602001908152602001600020600301541061292c578060a001518160c001514261291b9190614b32565b6129259190614a5c565b9150612934565b806080015191505b5b819250505092915050565b60d0602052816000526040600020602052806000526040600020600091509150508060000154908060010154908060020154908060030154908060040154908060050154908060060154905087565b6002600154036129d4576040517f08c379a00000000000000000000000000000000000000000000000000000000081526004016129cb906145ba565b60405180910390fd5b6002600181905550600060d0600083815260200190815260200160002060006129fb612c62565b73ffffffffffffffffffffffffffffffffffffffff1673ffffffffffffffffffffffffffffffffffffffff16815260200190815260200160002090504260ce60008481526020019081526020016000206005015410612a8f576040517f08c379a0000000000000000000000000000000000000000000000000000000008152600401612a86906155de565b60405180910390fd5b6000612aa283612a9d612c62565b6127dd565b905060008111612ae7576040517f08c379a0000000000000000000000000000000000000000000000000000000008152600401612ade906151f4565b60405180910390fd5b612b4f612af2612c62565b8260ce600087815260200190815260200160002060060160009054906101000a900473ffffffffffffffffffffffffffffffffffffffff1673ffffffffffffffffffffffffffffffffffffffff166130389092919063ffffffff16565b6000826002015482612b619190614afe565b90506000818460010154612b759190614b32565b9050818460020181905550808460040181905550428460060181905550612b9a612c62565b73ffffffffffffffffffffffffffffffffffffffff16857f8c03c732a4b999acfceb5e117a809006980fc5a765e10c915b886aa5356ed3808584604051612be2929190615214565b60405180910390a3505050506001808190555050565b60007f01ffc9a7000000000000000000000000000000000000000000000000000000007bffffffffffffffffffffffffffffffffffffffffffffffffffffffff1916827bffffffffffffffffffffffffffffffffffffffffffffffffffffffff1916149050919050565b600033905090565b612ced846323b872dd60e01b858585604051602401612c8b93929190615690565b604051602081830303815290604052907bffffffffffffffffffffffffffffffffffffffffffffffffffffffff19166020820180517bffffffffffffffffffffffffffffffffffffffffffffffffffffffff8381831617835250505050613199565b50505050565b60008084848446604051602001612d0d94939291906157b3565b604051602081830303815290604052805190602001209050809150509392505050565b60008060006041845114612d79576040517f08c379a0000000000000000000000000000000000000000000000000000000008152600401612d7090615845565b60405180910390fd5b6020840151925060408401519150606084015160001a90509193909250565b6000806040518060400160405280601c81526020017f19457468657265756d205369676e6564204d6573736167653a0a333200000000815250905060008187604051602001612de8929190615886565b604051602081830303815290604052805190602001209050600060018288888860405160008152602001604052604051612e2594939291906158bd565b6020604051602081039080840390855afa158015612e47573d6000803e3d6000fd5b505050602060405103519050809350505050949350505050565b612e7281612e6d612c62565b613260565b50565b612e7f8282612091565b612f525760016097600084815260200190815260200160002060000160008373ffffffffffffffffffffffffffffffffffffffff1673ffffffffffffffffffffffffffffffffffffffff16815260200190815260200160002060006101000a81548160ff021916908315150217905550612ef7612c62565b73ffffffffffffffffffffffffffffffffffffffff168173ffffffffffffffffffffffffffffffffffffffff16837f2f8788117e7eff1d82e926ec794901d17c78024a50270940304540a733656f0d60405160405180910390a45b5050565b612f608282612091565b156130345760006097600084815260200190815260200160002060000160008373ffffffffffffffffffffffffffffffffffffffff1673ffffffffffffffffffffffffffffffffffffffff16815260200190815260200160002060006101000a81548160ff021916908315150217905550612fd9612c62565b73ffffffffffffffffffffffffffffffffffffffff168173ffffffffffffffffffffffffffffffffffffffff16837ff6391f5c32d9c69d2a47ea670b442974b53935d1edc7fd64eb21e047a839171b60405160405180910390a45b5050565b6130b98363a9059cbb60e01b8484604051602401613057929190615902565b604051602081830303815290604052907bffffffffffffffffffffffffffffffffffffffffffffffffffffffff19166020820180517bffffffffffffffffffffffffffffffffffffffffffffffffffffffff8381831617835250505050613199565b505050565b6000808273ffffffffffffffffffffffffffffffffffffffff163b119050919050565b600060019054906101000a900460ff16613130576040517f08c379a00000000000000000000000000000000000000000000000000000000081526004016131279061599d565b60405180910390fd5b6131386132fd565b565b600060019054906101000a900460ff16613189576040517f08c379a00000000000000000000000000000000000000000000000000000000081526004016131809061599d565b60405180910390fd5b565b6131958282612e75565b5050565b60006131fb826040518060400160405280602081526020017f5361666545524332303a206c6f772d6c6576656c2063616c6c206661696c65648152508573ffffffffffffffffffffffffffffffffffffffff166133559092919063ffffffff16565b905060008151111561325b578080602001905181019061321b91906159e9565b61325a576040517f08c379a000000000000000000000000000000000000000000000000000000000815260040161325190615a88565b60405180910390fd5b5b505050565b61326a8282612091565b6132f95761328f8173ffffffffffffffffffffffffffffffffffffffff16601461336d565b61329d8360001c602061336d565b6040516020016132ae929190615b40565b6040516020818303038152906040526040517f08c379a00000000000000000000000000000000000000000000000000000000081526004016132f091906144ba565b60405180910390fd5b5050565b600060019054906101000a900460ff1661334c576040517f08c379a00000000000000000000000000000000000000000000000000000000081526004016133439061599d565b60405180910390fd5b60018081905550565b606061336484846000856135a9565b90509392505050565b6060600060028360026133809190614a5c565b61338a9190614afe565b67ffffffffffffffff8111156133a3576133a2613902565b5b6040519080825280601f01601f1916602001820160405280156133d55781602001600182028036833780820191505090505b5090507f30000000000000000000000000000000000000000000000000000000000000008160008151811061340d5761340c6149fe565b5b60200101907effffffffffffffffffffffffffffffffffffffffffffffffffffffffffffff1916908160001a9053507f780000000000000000000000000000000000000000000000000000000000000081600181518110613471576134706149fe565b5b60200101907effffffffffffffffffffffffffffffffffffffffffffffffffffffffffffff1916908160001a905350600060018460026134b19190614a5c565b6134bb9190614afe565b90505b600181111561355b577f3031323334353637383961626364656600000000000000000000000000000000600f8616601081106134fd576134fc6149fe565b5b1a60f81b828281518110613514576135136149fe565b5b60200101907effffffffffffffffffffffffffffffffffffffffffffffffffffffffffffff1916908160001a905350600485901c94508061355490615b7a565b90506134be565b506000841461359f576040517f08c379a000000000000000000000000000000000000000000000000000000000815260040161359690615bef565b60405180910390fd5b8091505092915050565b6060824710156135ee576040517f08c379a00000000000000000000000000000000000000000000000000000000081526004016135e590615c81565b60405180910390fd5b6135f7856130be565b613636576040517f08c379a000000000000000000000000000000000000000000000000000000000815260040161362d90615ced565b60405180910390fd5b6000808673ffffffffffffffffffffffffffffffffffffffff16858760405161365f9190615d0d565b60006040518083038185875af1925050503d806000811461369c576040519150601f19603f3d011682016040523d82523d6000602084013e6136a1565b606091505b50915091506136b18282866136bd565b92505050949350505050565b606083156136cd5782905061371d565b6000835111156136e05782518084602001fd5b816040517f08c379a000000000000000000000000000000000000000000000000000000000815260040161371491906144ba565b60405180910390fd5b9392505050565b82805482825590600052602060002090810192821561379d579160200282015b8281111561379c5782518260006101000a81548173ffffffffffffffffffffffffffffffffffffffff021916908373ffffffffffffffffffffffffffffffffffffffff16021790555091602001919060010190613744565b5b5090506137aa91906137fb565b5090565b8280548282559060005260206000209081019282156137ea579160200282015b828111156137e95782518255916020019190600101906137ce565b5b5090506137f791906137fb565b5090565b5b808211156138145760008160009055506001016137fc565b5090565b6000604051905090565b600080fd5b600080fd5b60007fffffffff0000000000000000000000000000000000000000000000000000000082169050919050565b6138618161382c565b811461386c57600080fd5b50565b60008135905061387e81613858565b92915050565b60006020828403121561389a57613899613822565b5b60006138a88482850161386f565b91505092915050565b60008115159050919050565b6138c6816138b1565b82525050565b60006020820190506138e160008301846138bd565b92915050565b600080fd5b600080fd5b6000601f19601f8301169050919050565b7f4e487b7100000000000000000000000000000000000000000000000000000000600052604160045260246000fd5b61393a826138f1565b810181811067ffffffffffffffff8211171561395957613958613902565b5b80604052505050565b600061396c613818565b90506139788282613931565b919050565b600067ffffffffffffffff82111561399857613997613902565b5b6139a1826138f1565b9050602081019050919050565b82818337600083830152505050565b60006139d06139cb8461397d565b613962565b9050828152602081018484840111156139ec576139eb6138ec565b5b6139f78482856139ae565b509392505050565b600082601f830112613a1457613a136138e7565b5b8135613a248482602086016139bd565b91505092915050565b6000819050919050565b613a4081613a2d565b8114613a4b57600080fd5b50565b600081359050613a5d81613a37565b92915050565b600073ffffffffffffffffffffffffffffffffffffffff82169050919050565b6000613a8e82613a63565b9050919050565b613a9e81613a83565b8114613aa957600080fd5b50565b600081359050613abb81613a95565b92915050565b600067ffffffffffffffff821115613adc57613adb613902565b5b602082029050602081019050919050565b600080fd5b6000613b05613b0084613ac1565b613962565b90508083825260208201905060208402830185811115613b2857613b27613aed565b5b835b81811015613b515780613b3d8882613aac565b845260208401935050602081019050613b2a565b5050509392505050565b600082601f830112613b7057613b6f6138e7565b5b8135613b80848260208601613af2565b91505092915050565b600067ffffffffffffffff821115613ba457613ba3613902565b5b602082029050602081019050919050565b6000613bc8613bc384613b89565b613962565b90508083825260208201905060208402830185811115613beb57613bea613aed565b5b835b81811015613c145780613c008882613a4e565b845260208401935050602081019050613bed565b5050509392505050565b600082601f830112613c3357613c326138e7565b5b8135613c43848260208601613bb5565b91505092915050565b600067ffffffffffffffff821115613c6757613c66613902565b5b613c70826138f1565b9050602081019050919050565b6000613c90613c8b84613c4c565b613962565b905082815260208101848484011115613cac57613cab6138ec565b5b613cb78482856139ae565b509392505050565b600082601f830112613cd457613cd36138e7565b5b8135613ce4848260208601613c7d565b91505092915050565b6000806000806000806000806000806101408b8d031215613d1157613d10613822565b5b60008b013567ffffffffffffffff811115613d2f57613d2e613827565b5b613d3b8d828e016139ff565b9a50506020613d4c8d828e01613a4e565b9950506040613d5d8d828e01613a4e565b9850506060613d6e8d828e01613a4e565b9750506080613d7f8d828e01613aac565b96505060a0613d908d828e01613a4e565b95505060c08b013567ffffffffffffffff811115613db157613db0613827565b5b613dbd8d828e01613b5b565b94505060e08b013567ffffffffffffffff811115613dde57613ddd613827565b5b613dea8d828e01613c1e565b9350506101008b013567ffffffffffffffff811115613e0c57613e0b613827565b5b613e188d828e01613cbf565b9250506101208b013567ffffffffffffffff811115613e3a57613e39613827565b5b613e468d828e01613cbf565b9150509295989b9194979a5092959850565b613e6181613a83565b82525050565b6000602082019050613e7c6000830184613e58565b92915050565b6000819050919050565b613e9581613e82565b8114613ea057600080fd5b50565b600081359050613eb281613e8c565b92915050565b600060208284031215613ece57613ecd613822565b5b6000613edc84828501613ea3565b91505092915050565b613eee81613e82565b82525050565b6000602082019050613f096000830184613ee5565b92915050565b60008060008060808587031215613f2957613f28613822565b5b600085013567ffffffffffffffff811115613f4757613f46613827565b5b613f5387828801613cbf565b945050602085013567ffffffffffffffff811115613f7457613f73613827565b5b613f80878288016139ff565b9350506040613f9187828801613aac565b925050606085013567ffffffffffffffff811115613fb257613fb1613827565b5b613fbe87828801613cbf565b91505092959194509250565b60008060408385031215613fe157613fe0613822565b5b6000613fef85828601613ea3565b925050602061400085828601613aac565b9150509250929050565b6000602082840312156140205761401f613822565b5b600061402e84828501613a4e565b91505092915050565b600080600080600080600060e0888a03121561405657614055613822565b5b600088013567ffffffffffffffff81111561407457614073613827565b5b6140808a828b016139ff565b97505060206140918a828b01613a4e565b96505060406140a28a828b01613aac565b955050606088013567ffffffffffffffff8111156140c3576140c2613827565b5b6140cf8a828b01613b5b565b945050608088013567ffffffffffffffff8111156140f0576140ef613827565b5b6140fc8a828b01613c1e565b93505060a088013567ffffffffffffffff81111561411d5761411c613827565b5b6141298a828b01613cbf565b92505060c088013567ffffffffffffffff81111561414a57614149613827565b5b6141568a828b01613cbf565b91505092959891949750929550565b61416e81613a2d565b82525050565b60006020820190506141896000830184614165565b92915050565b600080604083850312156141a6576141a5613822565b5b60006141b485828601613a4e565b92505060206141c585828601613aac565b9150509250929050565b600060e0820190506141e4600083018a614165565b6141f16020830189614165565b6141fe6040830188614165565b61420b6060830187614165565b6142186080830186614165565b61422560a0830185614165565b61423260c0830184614165565b98975050505050505050565b60006020828403121561425457614253613822565b5b600061426284828501613aac565b91505092915050565b600081519050919050565b600082825260208201905092915050565b60005b838110156142a557808201518184015260208101905061428a565b60008484015250505050565b60006142bc8261426b565b6142c68185614276565b93506142d6818560208601614287565b6142df816138f1565b840191505092915050565b600061014082019050614300600083018d6138bd565b8181036020830152614312818c6142b1565b9050614321604083018b614165565b61432e606083018a614165565b61433b6080830189614165565b61434860a0830188614165565b61435560c0830187614165565b61436260e0830186613e58565b614370610100830185614165565b61437e610120830184614165565b9b9a5050505050505050505050565b600080604083850312156143a4576143a3613822565b5b600083013567ffffffffffffffff8111156143c2576143c1613827565b5b6143ce858286016139ff565b92505060206143df85828601613aac565b9150509250929050565b600060a0820190506143fe6000830188614165565b61440b6020830187614165565b6144186040830186614165565b6144256060830185614165565b6144326080830184614165565b9695505050505050565b600061444782613a83565b9050919050565b6144578161443c565b811461446257600080fd5b50565b6000813590506144748161444e565b92915050565b6000806040838503121561449157614490613822565b5b600061449f85828601614465565b92505060206144b085828601613a4e565b9150509250929050565b600060208201905081810360008301526144d481846142b1565b905092915050565b7f41636365737344656e696564203a204f6e6c79205665737465722043616c6c2060008201527f546869732046756e6374696f6e00000000000000000000000000000000000000602082015250565b6000614538602d83614276565b9150614543826144dc565b604082019050919050565b600060208201905081810360008301526145678161452b565b9050919050565b7f5265656e7472616e637947756172643a207265656e7472616e742063616c6c00600082015250565b60006145a4601f83614276565b91506145af8261456e565b602082019050919050565b600060208201905081810360008301526145d381614597565b9050919050565b7f4949726f6e56657374204172726179203a204c656e677468206f66205f75736560008201527f727341646472657373657320416e64205f75736572416c6c6f63204d7573742060208201527f426520457175616c000000000000000000000000000000000000000000000000604082015250565b600061465c604883614276565b9150614667826145da565b606082019050919050565b6000602082019050818103600083015261468b8161464f565b9050919050565b7f4949726f6e56657374203a20436c6966662056657374696e6720456e6420546960008201527f6d65204d757374204265204c6573736572205468616e2056657374696e67205460208201527f696d650000000000000000000000000000000000000000000000000000000000604082015250565b6000614714604383614276565b915061471f82614692565b606082019050919050565b6000602082019050818103600083015261474381614707565b9050919050565b7f4949726f6e56657374203a20436c6966662056657374696e672054696d65204d60008201527f7573742042652047726561746572205468616e20436c69666620506572696f64602082015250565b60006147a6604083614276565b91506147b18261474a565b604082019050919050565b600060208201905081810360008301526147d581614799565b9050919050565b7f4949726f6e56657374203a20436c6966662056657374696e672054696d65204d60008201527f757374204265204c6573736572205468616e2056657374696e672054696d6500602082015250565b6000614838603f83614276565b9150614843826147dc565b604082019050919050565b600060208201905081810360008301526148678161482b565b9050919050565b7f5369676e6572203a20496e76616c6964207369676e6572000000000000000000600082015250565b60006148a4601783614276565b91506148af8261486e565b602082019050919050565b600060208201905081810360008301526148d381614897565b9050919050565b7f50657263656e74616765203a50657263656e746167652053686f756c6420426560008201527f206c657373205468616e20203530250000000000000000000000000000000000602082015250565b6000614936602f83614276565b9150614941826148da565b604082019050919050565b6000602082019050818103600083015261496581614929565b9050919050565b7f50657263656e74616765203a50657263656e746167652053686f756c6420426560008201527f204d6f7265205468616e2020302e312500000000000000000000000000000000602082015250565b60006149c8603083614276565b91506149d38261496c565b604082019050919050565b600060208201905081810360008301526149f7816149bb565b9050919050565b7f4e487b7100000000000000000000000000000000000000000000000000000000600052603260045260246000fd5b7f4e487b7100000000000000000000000000000000000000000000000000000000600052601160045260246000fd5b6000614a6782613a2d565b9150614a7283613a2d565b9250828202614a8081613a2d565b91508282048414831517614a9757614a96614a2d565b5b5092915050565b7f4e487b7100000000000000000000000000000000000000000000000000000000600052601260045260246000fd5b6000614ad882613a2d565b9150614ae383613a2d565b925082614af357614af2614a9e565b5b828204905092915050565b6000614b0982613a2d565b9150614b1483613a2d565b9250828201905080821115614b2c57614b2b614a2d565b5b92915050565b6000614b3d82613a2d565b9150614b4883613a2d565b9250828203905081811115614b6057614b5f614a2d565b5b92915050565b6000614b7182613a2d565b91507fffffffffffffffffffffffffffffffffffffffffffffffffffffffffffffffff8203614ba357614ba2614a2d565b5b600182019050919050565b7f4e487b7100000000000000000000000000000000000000000000000000000000600052602260045260246000fd5b60006002820490506001821680614bf557607f821691505b602082108103614c0857614c07614bae565b5b50919050565b60008190508160005260206000209050919050565b60006020601f8301049050919050565b600082821b905092915050565b600060088302614c707fffffffffffffffffffffffffffffffffffffffffffffffffffffffffffffffff82614c33565b614c7a8683614c33565b95508019841693508086168417925050509392505050565b6000819050919050565b6000614cb7614cb2614cad84613a2d565b614c92565b613a2d565b9050919050565b6000819050919050565b614cd183614c9c565b614ce5614cdd82614cbe565b848454614c40565b825550505050565b600090565b614cfa614ced565b614d05818484614cc8565b505050565b5b81811015614d2957614d1e600082614cf2565b600181019050614d0b565b5050565b601f821115614d6e57614d3f81614c0e565b614d4884614c23565b81016020851015614d57578190505b614d6b614d6385614c23565b830182614d0a565b50505b505050565b600082821c905092915050565b6000614d9160001984600802614d73565b1980831691505092915050565b6000614daa8383614d80565b9150826002028217905092915050565b614dc38261426b565b67ffffffffffffffff811115614ddc57614ddb613902565b5b614de68254614bdd565b614df1828285614d2d565b600060209050601f831160018114614e245760008415614e12578287015190505b614e1c8582614d9e565b865550614e84565b601f198416614e3286614c0e565b60005b82811015614e5a57848901518255600182019150602085019450602081019050614e35565b86831015614e775784890151614e73601f891682614d80565b8355505b6001600288020188555050505b505050505050565b600081519050919050565b600082825260208201905092915050565b6000819050602082019050919050565b614ec181613a83565b82525050565b6000614ed38383614eb8565b60208301905092915050565b6000602082019050919050565b6000614ef782614e8c565b614f018185614e97565b9350614f0c83614ea8565b8060005b83811015614f3d578151614f248882614ec7565b9750614f2f83614edf565b925050600181019050614f10565b5085935050505092915050565b600081519050919050565b600082825260208201905092915050565b6000819050602082019050919050565b614f7f81613a2d565b82525050565b6000614f918383614f76565b60208301905092915050565b6000602082019050919050565b6000614fb582614f4a565b614fbf8185614f55565b9350614fca83614f66565b8060005b83811015614ffb578151614fe28882614f85565b9750614fed83614f9d565b925050600181019050614fce565b5085935050505092915050565b6000610120820190508181036000830152615023818c6142b1565b9050615032602083018b614165565b61503f604083018a614165565b61504c6060830189614165565b6150596080830188614165565b61506660a0830187613e58565b61507360c0830186614165565b81810360e08301526150858185614eec565b905081810361010083015261509a8184614faa565b90509a9950505050505050505050565b7f4d65737361676520616c72656164792075736564000000000000000000000000600082015250565b60006150e0601483614276565b91506150eb826150aa565b602082019050919050565b6000602082019050818103600083015261510f816150d3565b9050919050565b7f416363657373436f6e74726f6c3a2063616e206f6e6c792072656e6f756e636560008201527f20726f6c657320666f722073656c660000000000000000000000000000000000602082015250565b6000615172602f83614276565b915061517d82615116565b604082019050919050565b600060208201905081810360008301526151a181615165565b9050919050565b7f4949726f6e56657374203a20496e76616c6964205472616e7366657241626c65600082015250565b60006151de602083614276565b91506151e9826151a8565b602082019050919050565b6000602082019050818103600083015261520d816151d1565b9050919050565b60006040820190506152296000830185614165565b6152366020830184614165565b9392505050565b7f4949726f6e56657374203a2056657374696e6720456e642054696d652053686f60008201527f756c642042652047726561746572205468616e2043757272656e742054696d65602082015250565b6000615299604083614276565b91506152a48261523d565b604082019050919050565b600060208201905081810360008301526152c88161528c565b9050919050565b600060e08201905081810360008301526152e9818a6142b1565b90506152f86020830189614165565b6153056040830188614165565b6153126060830187613e58565b61531f6080830186614165565b81810360a08301526153318185614eec565b905081810360c08301526153458184614faa565b905098975050505050505050565b7f41636365737344656e696564203a204f6e6c792041646d696e2043616c6c205460008201527f6869732046756e6374696f6e0000000000000000000000000000000000000000602082015250565b60006153af602c83614276565b91506153ba82615353565b604082019050919050565b600060208201905081810360008301526153de816153a2565b9050919050565b7f496e76616c6964203a205369676e6572204164647265737320497320496e766160008201527f6c69640000000000000000000000000000000000000000000000000000000000602082015250565b6000615441602383614276565b915061544c826153e5565b604082019050919050565b6000602082019050818103600083015261547081615434565b9050919050565b7f496e697469616c697a61626c653a20636f6e747261637420697320616c72656160008201527f647920696e697469616c697a6564000000000000000000000000000000000000602082015250565b60006154d3602e83614276565b91506154de82615477565b604082019050919050565b60006020820190508181036000830152615502816154c6565b9050919050565b6000819050919050565b600060ff82169050919050565b600061553b61553661553184615509565b614c92565b615513565b9050919050565b61554b81615520565b82525050565b60006020820190506155666000830184615542565b92915050565b7f4949726f6e56657374203a20436c69666620506572696f64204973204e6f742060008201527f4f76657220596574000000000000000000000000000000000000000000000000602082015250565b60006155c8602883614276565b91506155d38261556c565b604082019050919050565b600060208201905081810360008301526155f7816155bb565b9050919050565b7f416c6c6f636174696f6e203a20596f7520446f6e2774206861766520616c6c6f60008201527f636174696f6e20696e207468697320706f6f6c00000000000000000000000000602082015250565b600061565a603383614276565b9150615665826155fe565b604082019050919050565b600060208201905081810360008301526156898161564d565b9050919050565b60006060820190506156a56000830186613e58565b6156b26020830185613e58565b6156bf6040830184614165565b949350505050565b600081905092915050565b60006156dd8261426b565b6156e781856156c7565b93506156f7818560208601614287565b80840191505092915050565b60008160601b9050919050565b600061571b82615703565b9050919050565b600061572d82615710565b9050919050565b61574561574082613a83565b615722565b82525050565b600081519050919050565b600081905092915050565b600061576c8261574b565b6157768185615756565b9350615786818560208601614287565b80840191505092915050565b6000819050919050565b6157ad6157a882613a2d565b615792565b82525050565b60006157bf82876156d2565b91506157cb8286615734565b6014820191506157db8285615761565b91506157e7828461579c565b60208201915081905095945050505050565b7f696e76616c6964207369676e6174757265206c656e6774680000000000000000600082015250565b600061582f601883614276565b915061583a826157f9565b602082019050919050565b6000602082019050818103600083015261585e81615822565b9050919050565b6000819050919050565b61588061587b82613e82565b615865565b82525050565b60006158928285615761565b915061589e828461586f565b6020820191508190509392505050565b6158b781615513565b82525050565b60006080820190506158d26000830187613ee5565b6158df60208301866158ae565b6158ec6040830185613ee5565b6158f96060830184613ee5565b95945050505050565b60006040820190506159176000830185613e58565b6159246020830184614165565b9392505050565b7f496e697469616c697a61626c653a20636f6e7472616374206973206e6f74206960008201527f6e697469616c697a696e67000000000000000000000000000000000000000000602082015250565b6000615987602b83614276565b91506159928261592b565b604082019050919050565b600060208201905081810360008301526159b68161597a565b9050919050565b6159c6816138b1565b81146159d157600080fd5b50565b6000815190506159e3816159bd565b92915050565b6000602082840312156159ff576159fe613822565b5b6000615a0d848285016159d4565b91505092915050565b7f5361666545524332303a204552433230206f7065726174696f6e20646964206e60008201527f6f74207375636365656400000000000000000000000000000000000000000000602082015250565b6000615a72602a83614276565b9150615a7d82615a16565b604082019050919050565b60006020820190508181036000830152615aa181615a65565b9050919050565b7f416363657373436f6e74726f6c3a206163636f756e7420000000000000000000600082015250565b6000615ade6017836156c7565b9150615ae982615aa8565b601782019050919050565b7f206973206d697373696e6720726f6c6520000000000000000000000000000000600082015250565b6000615b2a6011836156c7565b9150615b3582615af4565b601182019050919050565b6000615b4b82615ad1565b9150615b5782856156d2565b9150615b6282615b1d565b9150615b6e82846156d2565b91508190509392505050565b6000615b8582613a2d565b915060008203615b9857615b97614a2d565b5b600182039050919050565b7f537472696e67733a20686578206c656e67746820696e73756666696369656e74600082015250565b6000615bd9602083614276565b9150615be482615ba3565b602082019050919050565b60006020820190508181036000830152615c0881615bcc565b9050919050565b7f416464726573733a20696e73756666696369656e742062616c616e636520666f60008201527f722063616c6c0000000000000000000000000000000000000000000000000000602082015250565b6000615c6b602683614276565b9150615c7682615c0f565b604082019050919050565b60006020820190508181036000830152615c9a81615c5e565b9050919050565b7f416464726573733a2063616c6c20746f206e6f6e2d636f6e7472616374000000600082015250565b6000615cd7601d83614276565b9150615ce282615ca1565b602082019050919050565b60006020820190508181036000830152615d0681615cca565b9050919050565b6000615d198284615761565b91508190509291505056fea26469706673582212208fce8aa8437eb4cf399f4c63edf7ac5aa6bd78383b6419ca07a8f6250f7c9a4164736f6c63430008110033",
			"opcodes": "PUSH1 0x80 PUSH1 0x40 MSTORE CALLVALUE DUP1 ISZERO PUSH2 0x10 JUMPI PUSH1 0x0 DUP1 REVERT JUMPDEST POP PUSH2 0x5D5A DUP1 PUSH3 0x21 PUSH1 0x0 CODECOPY PUSH1 0x0 RETURN INVALID PUSH1 0x80 PUSH1 0x40 MSTORE CALLVALUE DUP1 ISZERO PUSH2 0x10 JUMPI PUSH1 0x0 DUP1 REVERT JUMPDEST POP PUSH1 0x4 CALLDATASIZE LT PUSH2 0x1CF JUMPI PUSH1 0x0 CALLDATALOAD PUSH1 0xE0 SHR DUP1 PUSH4 0x7AB4339D GT PUSH2 0x104 JUMPI DUP1 PUSH4 0xAE5AD227 GT PUSH2 0xA2 JUMPI DUP1 PUSH4 0xDF2786EE GT PUSH2 0x71 JUMPI DUP1 PUSH4 0xDF2786EE EQ PUSH2 0x587 JUMPI DUP1 PUSH4 0xE82CD8BF EQ PUSH2 0x5A5 JUMPI DUP1 PUSH4 0xEBB48C3B EQ PUSH2 0x5D5 JUMPI DUP1 PUSH4 0xEF89D3FE EQ PUSH2 0x60B JUMPI PUSH2 0x1CF JUMP JUMPDEST DUP1 PUSH4 0xAE5AD227 EQ PUSH2 0x4ED JUMPI DUP1 PUSH4 0xAEF18BF7 EQ PUSH2 0x50B JUMPI DUP1 PUSH4 0xBE07B52F EQ PUSH2 0x53B JUMPI DUP1 PUSH4 0xD547741F EQ PUSH2 0x56B JUMPI PUSH2 0x1CF JUMP JUMPDEST DUP1 PUSH4 0x93F1A40B GT PUSH2 0xDE JUMPI DUP1 PUSH4 0x93F1A40B EQ PUSH2 0x44F JUMPI DUP1 PUSH4 0x95CCEA67 EQ PUSH2 0x483 JUMPI DUP1 PUSH4 0xA0C7F71C EQ PUSH2 0x49F JUMPI DUP1 PUSH4 0xA217FDDF EQ PUSH2 0x4CF JUMPI PUSH2 0x1CF JUMP JUMPDEST DUP1 PUSH4 0x7AB4339D EQ PUSH2 0x3E7 JUMPI DUP1 PUSH4 0x91D14854 EQ PUSH2 0x403 JUMPI DUP1 PUSH4 0x92FD33F2 EQ PUSH2 0x433 JUMPI PUSH2 0x1CF JUMP JUMPDEST DUP1 PUSH4 0x379607F5 GT PUSH2 0x171 JUMPI DUP1 PUSH4 0x4A0BFEEB GT PUSH2 0x14B JUMPI DUP1 PUSH4 0x4A0BFEEB EQ PUSH2 0x33E JUMPI DUP1 PUSH4 0x5889BE46 EQ PUSH2 0x35C JUMPI DUP1 PUSH4 0x6C19E783 EQ PUSH2 0x392 JUMPI DUP1 PUSH4 0x6E50132F EQ PUSH2 0x3AE JUMPI PUSH2 0x1CF JUMP JUMPDEST DUP1 PUSH4 0x379607F5 EQ PUSH2 0x2D6 JUMPI DUP1 PUSH4 0x42C3CB55 EQ PUSH2 0x2F2 JUMPI DUP1 PUSH4 0x48C0D662 EQ PUSH2 0x322 JUMPI PUSH2 0x1CF JUMP JUMPDEST DUP1 PUSH4 0x248A9CA3 GT PUSH2 0x1AD JUMPI DUP1 PUSH4 0x248A9CA3 EQ PUSH2 0x23E JUMPI DUP1 PUSH4 0x28A9A6C2 EQ PUSH2 0x26E JUMPI DUP1 PUSH4 0x2F2FF15D EQ PUSH2 0x29E JUMPI DUP1 PUSH4 0x36568ABE EQ PUSH2 0x2BA JUMPI PUSH2 0x1CF JUMP JUMPDEST DUP1 PUSH4 0x1FFC9A7 EQ PUSH2 0x1D4 JUMPI DUP1 PUSH4 0x7AC1762 EQ PUSH2 0x204 JUMPI DUP1 PUSH4 0x238AC933 EQ PUSH2 0x220 JUMPI JUMPDEST PUSH1 0x0 DUP1 REVERT JUMPDEST PUSH2 0x1EE PUSH1 0x4 DUP1 CALLDATASIZE SUB DUP2 ADD SWAP1 PUSH2 0x1E9 SWAP2 SWAP1 PUSH2 0x3884 JUMP JUMPDEST PUSH2 0x627 JUMP JUMPDEST PUSH1 0x40 MLOAD PUSH2 0x1FB SWAP2 SWAP1 PUSH2 0x38CC JUMP JUMPDEST PUSH1 0x40 MLOAD DUP1 SWAP2 SUB SWAP1 RETURN JUMPDEST PUSH2 0x21E PUSH1 0x4 DUP1 CALLDATASIZE SUB DUP2 ADD SWAP1 PUSH2 0x219 SWAP2 SWAP1 PUSH2 0x3CED JUMP JUMPDEST PUSH2 0x6A1 JUMP JUMPDEST STOP JUMPDEST PUSH2 0x228 PUSH2 0xF27 JUMP JUMPDEST PUSH1 0x40 MLOAD PUSH2 0x235 SWAP2 SWAP1 PUSH2 0x3E67 JUMP JUMPDEST PUSH1 0x40 MLOAD DUP1 SWAP2 SUB SWAP1 RETURN JUMPDEST PUSH2 0x258 PUSH1 0x4 DUP1 CALLDATASIZE SUB DUP2 ADD SWAP1 PUSH2 0x253 SWAP2 SWAP1 PUSH2 0x3EB8 JUMP JUMPDEST PUSH2 0xF4D JUMP JUMPDEST PUSH1 0x40 MLOAD PUSH2 0x265 SWAP2 SWAP1 PUSH2 0x3EF4 JUMP JUMPDEST PUSH1 0x40 MLOAD DUP1 SWAP2 SUB SWAP1 RETURN JUMPDEST PUSH2 0x288 PUSH1 0x4 DUP1 CALLDATASIZE SUB DUP2 ADD SWAP1 PUSH2 0x283 SWAP2 SWAP1 PUSH2 0x3F0F JUMP JUMPDEST PUSH2 0xF6D JUMP JUMPDEST PUSH1 0x40 MLOAD PUSH2 0x295 SWAP2 SWAP1 PUSH2 0x3E67 JUMP JUMPDEST PUSH1 0x40 MLOAD DUP1 SWAP2 SUB SWAP1 RETURN JUMPDEST PUSH2 0x2B8 PUSH1 0x4 DUP1 CALLDATASIZE SUB DUP2 ADD SWAP1 PUSH2 0x2B3 SWAP2 SWAP1 PUSH2 0x3FCA JUMP JUMPDEST PUSH2 0x1012 JUMP JUMPDEST STOP JUMPDEST PUSH2 0x2D4 PUSH1 0x4 DUP1 CALLDATASIZE SUB DUP2 ADD SWAP1 PUSH2 0x2CF SWAP2 SWAP1 PUSH2 0x3FCA JUMP JUMPDEST PUSH2 0x1033 JUMP JUMPDEST STOP JUMPDEST PUSH2 0x2F0 PUSH1 0x4 DUP1 CALLDATASIZE SUB DUP2 ADD SWAP1 PUSH2 0x2EB SWAP2 SWAP1 PUSH2 0x400A JUMP JUMPDEST PUSH2 0x10B6 JUMP JUMPDEST STOP JUMPDEST PUSH2 0x30C PUSH1 0x4 DUP1 CALLDATASIZE SUB DUP2 ADD SWAP1 PUSH2 0x307 SWAP2 SWAP1 PUSH2 0x400A JUMP JUMPDEST PUSH2 0x12C7 JUMP JUMPDEST PUSH1 0x40 MLOAD PUSH2 0x319 SWAP2 SWAP1 PUSH2 0x38CC JUMP JUMPDEST PUSH1 0x40 MLOAD DUP1 SWAP2 SUB SWAP1 RETURN JUMPDEST PUSH2 0x33C PUSH1 0x4 DUP1 CALLDATASIZE SUB DUP2 ADD SWAP1 PUSH2 0x337 SWAP2 SWAP1 PUSH2 0x4037 JUMP JUMPDEST PUSH2 0x12E7 JUMP JUMPDEST STOP JUMPDEST PUSH2 0x346 PUSH2 0x1849 JUMP JUMPDEST PUSH1 0x40 MLOAD PUSH2 0x353 SWAP2 SWAP1 PUSH2 0x4174 JUMP JUMPDEST PUSH1 0x40 MLOAD DUP1 SWAP2 SUB SWAP1 RETURN JUMPDEST PUSH2 0x376 PUSH1 0x4 DUP1 CALLDATASIZE SUB DUP2 ADD SWAP1 PUSH2 0x371 SWAP2 SWAP1 PUSH2 0x418F JUMP JUMPDEST PUSH2 0x184F JUMP JUMPDEST PUSH1 0x40 MLOAD PUSH2 0x389 SWAP8 SWAP7 SWAP6 SWAP5 SWAP4 SWAP3 SWAP2 SWAP1 PUSH2 0x41CF JUMP JUMPDEST PUSH1 0x40 MLOAD DUP1 SWAP2 SUB SWAP1 RETURN JUMPDEST PUSH2 0x3AC PUSH1 0x4 DUP1 CALLDATASIZE SUB DUP2 ADD SWAP1 PUSH2 0x3A7 SWAP2 SWAP1 PUSH2 0x423E JUMP JUMPDEST PUSH2 0x189E JUMP JUMPDEST STOP JUMPDEST PUSH2 0x3C8 PUSH1 0x4 DUP1 CALLDATASIZE SUB DUP2 ADD SWAP1 PUSH2 0x3C3 SWAP2 SWAP1 PUSH2 0x400A JUMP JUMPDEST PUSH2 0x19A4 JUMP JUMPDEST PUSH1 0x40 MLOAD PUSH2 0x3DE SWAP11 SWAP10 SWAP9 SWAP8 SWAP7 SWAP6 SWAP5 SWAP4 SWAP3 SWAP2 SWAP1 PUSH2 0x42EA JUMP JUMPDEST PUSH1 0x40 MLOAD DUP1 SWAP2 SUB SWAP1 RETURN JUMPDEST PUSH2 0x401 PUSH1 0x4 DUP1 CALLDATASIZE SUB DUP2 ADD SWAP1 PUSH2 0x3FC SWAP2 SWAP1 PUSH2 0x438D JUMP JUMPDEST PUSH2 0x1EB3 JUMP JUMPDEST STOP JUMPDEST PUSH2 0x41D PUSH1 0x4 DUP1 CALLDATASIZE SUB DUP2 ADD SWAP1 PUSH2 0x418 SWAP2 SWAP1 PUSH2 0x3FCA JUMP JUMPDEST PUSH2 0x2091 JUMP JUMPDEST PUSH1 0x40 MLOAD PUSH2 0x42A SWAP2 SWAP1 PUSH2 0x38CC JUMP JUMPDEST PUSH1 0x40 MLOAD DUP1 SWAP2 SUB SWAP1 RETURN JUMPDEST PUSH2 0x44D PUSH1 0x4 DUP1 CALLDATASIZE SUB DUP2 ADD SWAP1 PUSH2 0x448 SWAP2 SWAP1 PUSH2 0x400A JUMP JUMPDEST PUSH2 0x20FC JUMP JUMPDEST STOP JUMPDEST PUSH2 0x469 PUSH1 0x4 DUP1 CALLDATASIZE SUB DUP2 ADD SWAP1 PUSH2 0x464 SWAP2 SWAP1 PUSH2 0x418F JUMP JUMPDEST PUSH2 0x2365 JUMP JUMPDEST PUSH1 0x40 MLOAD PUSH2 0x47A SWAP6 SWAP5 SWAP4 SWAP3 SWAP2 SWAP1 PUSH2 0x43E9 JUMP JUMPDEST PUSH1 0x40 MLOAD DUP1 SWAP2 SUB SWAP1 RETURN JUMPDEST PUSH2 0x49D PUSH1 0x4 DUP1 CALLDATASIZE SUB DUP2 ADD SWAP1 PUSH2 0x498 SWAP2 SWAP1 PUSH2 0x447A JUMP JUMPDEST PUSH2 0x23A8 JUMP JUMPDEST STOP JUMPDEST PUSH2 0x4B9 PUSH1 0x4 DUP1 CALLDATASIZE SUB DUP2 ADD SWAP1 PUSH2 0x4B4 SWAP2 SWAP1 PUSH2 0x418F JUMP JUMPDEST PUSH2 0x2431 JUMP JUMPDEST PUSH1 0x40 MLOAD PUSH2 0x4C6 SWAP2 SWAP1 PUSH2 0x4174 JUMP JUMPDEST PUSH1 0x40 MLOAD DUP1 SWAP2 SUB SWAP1 RETURN JUMPDEST PUSH2 0x4D7 PUSH2 0x2580 JUMP JUMPDEST PUSH1 0x40 MLOAD PUSH2 0x4E4 SWAP2 SWAP1 PUSH2 0x3EF4 JUMP JUMPDEST PUSH1 0x40 MLOAD DUP1 SWAP2 SUB SWAP1 RETURN JUMPDEST PUSH2 0x4F5 PUSH2 0x2587 JUMP JUMPDEST PUSH1 0x40 MLOAD PUSH2 0x502 SWAP2 SWAP1 PUSH2 0x3EF4 JUMP JUMPDEST PUSH1 0x40 MLOAD DUP1 SWAP2 SUB SWAP1 RETURN JUMPDEST PUSH2 0x525 PUSH1 0x4 DUP1 CALLDATASIZE SUB DUP2 ADD SWAP1 PUSH2 0x520 SWAP2 SWAP1 PUSH2 0x3EB8 JUMP JUMPDEST PUSH2 0x25AB JUMP JUMPDEST PUSH1 0x40 MLOAD PUSH2 0x532 SWAP2 SWAP1 PUSH2 0x38CC JUMP JUMPDEST PUSH1 0x40 MLOAD DUP1 SWAP2 SUB SWAP1 RETURN JUMPDEST PUSH2 0x555 PUSH1 0x4 DUP1 CALLDATASIZE SUB DUP2 ADD SWAP1 PUSH2 0x550 SWAP2 SWAP1 PUSH2 0x418F JUMP JUMPDEST PUSH2 0x25CB JUMP JUMPDEST PUSH1 0x40 MLOAD PUSH2 0x562 SWAP2 SWAP1 PUSH2 0x4174 JUMP JUMPDEST PUSH1 0x40 MLOAD DUP1 SWAP2 SUB SWAP1 RETURN JUMPDEST PUSH2 0x585 PUSH1 0x4 DUP1 CALLDATASIZE SUB DUP2 ADD SWAP1 PUSH2 0x580 SWAP2 SWAP1 PUSH2 0x3FCA JUMP JUMPDEST PUSH2 0x272E JUMP JUMPDEST STOP JUMPDEST PUSH2 0x58F PUSH2 0x274F JUMP JUMPDEST PUSH1 0x40 MLOAD PUSH2 0x59C SWAP2 SWAP1 PUSH2 0x44BA JUMP JUMPDEST PUSH1 0x40 MLOAD DUP1 SWAP2 SUB SWAP1 RETURN JUMPDEST PUSH2 0x5BF PUSH1 0x4 DUP1 CALLDATASIZE SUB DUP2 ADD SWAP1 PUSH2 0x5BA SWAP2 SWAP1 PUSH2 0x418F JUMP JUMPDEST PUSH2 0x27DD JUMP JUMPDEST PUSH1 0x40 MLOAD PUSH2 0x5CC SWAP2 SWAP1 PUSH2 0x4174 JUMP JUMPDEST PUSH1 0x40 MLOAD DUP1 SWAP2 SUB SWAP1 RETURN JUMPDEST PUSH2 0x5EF PUSH1 0x4 DUP1 CALLDATASIZE SUB DUP2 ADD SWAP1 PUSH2 0x5EA SWAP2 SWAP1 PUSH2 0x418F JUMP JUMPDEST PUSH2 0x2940 JUMP JUMPDEST PUSH1 0x40 MLOAD PUSH2 0x602 SWAP8 SWAP7 SWAP6 SWAP5 SWAP4 SWAP3 SWAP2 SWAP1 PUSH2 0x41CF JUMP JUMPDEST PUSH1 0x40 MLOAD DUP1 SWAP2 SUB SWAP1 RETURN JUMPDEST PUSH2 0x625 PUSH1 0x4 DUP1 CALLDATASIZE SUB DUP2 ADD SWAP1 PUSH2 0x620 SWAP2 SWAP1 PUSH2 0x400A JUMP JUMPDEST PUSH2 0x298F JUMP JUMPDEST STOP JUMPDEST PUSH1 0x0 PUSH32 0x7965DB0B00000000000000000000000000000000000000000000000000000000 PUSH28 0xFFFFFFFFFFFFFFFFFFFFFFFFFFFFFFFFFFFFFFFFFFFFFFFFFFFFFFFF NOT AND DUP3 PUSH28 0xFFFFFFFFFFFFFFFFFFFFFFFFFFFFFFFFFFFFFFFFFFFFFFFFFFFFFFFF NOT AND EQ DUP1 PUSH2 0x69A JUMPI POP PUSH2 0x699 DUP3 PUSH2 0x2BF8 JUMP JUMPDEST JUMPDEST SWAP1 POP SWAP2 SWAP1 POP JUMP JUMPDEST PUSH2 0x6D2 PUSH32 0x64ED6499E2F5A7EA55DFD56DA361BF9D48064843BB3891C36F1DABD9BA246135 PUSH2 0x6CD PUSH2 0x2C62 JUMP JUMPDEST PUSH2 0x2091 JUMP JUMPDEST PUSH2 0x711 JUMPI PUSH1 0x40 MLOAD PUSH32 0x8C379A000000000000000000000000000000000000000000000000000000000 DUP2 MSTORE PUSH1 0x4 ADD PUSH2 0x708 SWAP1 PUSH2 0x454E JUMP JUMPDEST PUSH1 0x40 MLOAD DUP1 SWAP2 SUB SWAP1 REVERT JUMPDEST PUSH1 0x2 PUSH1 0x1 SLOAD SUB PUSH2 0x756 JUMPI PUSH1 0x40 MLOAD PUSH32 0x8C379A000000000000000000000000000000000000000000000000000000000 DUP2 MSTORE PUSH1 0x4 ADD PUSH2 0x74D SWAP1 PUSH2 0x45BA JUMP JUMPDEST PUSH1 0x40 MLOAD DUP1 SWAP2 SUB SWAP1 REVERT JUMPDEST PUSH1 0x2 PUSH1 0x1 DUP2 SWAP1 SSTORE POP DUP3 MLOAD DUP5 MLOAD EQ PUSH2 0x7A2 JUMPI PUSH1 0x40 MLOAD PUSH32 0x8C379A000000000000000000000000000000000000000000000000000000000 DUP2 MSTORE PUSH1 0x4 ADD PUSH2 0x799 SWAP1 PUSH2 0x4672 JUMP JUMPDEST PUSH1 0x40 MLOAD DUP1 SWAP2 SUB SWAP1 REVERT JUMPDEST DUP9 DUP9 LT PUSH2 0x7E4 JUMPI PUSH1 0x40 MLOAD PUSH32 0x8C379A000000000000000000000000000000000000000000000000000000000 DUP2 MSTORE PUSH1 0x4 ADD PUSH2 0x7DB SWAP1 PUSH2 0x472A JUMP JUMPDEST PUSH1 0x40 MLOAD DUP1 SWAP2 SUB SWAP1 REVERT JUMPDEST DUP7 DUP9 GT PUSH2 0x826 JUMPI PUSH1 0x40 MLOAD PUSH32 0x8C379A000000000000000000000000000000000000000000000000000000000 DUP2 MSTORE PUSH1 0x4 ADD PUSH2 0x81D SWAP1 PUSH2 0x47BC JUMP JUMPDEST PUSH1 0x40 MLOAD DUP1 SWAP2 SUB SWAP1 REVERT JUMPDEST TIMESTAMP DUP8 GT PUSH2 0x868 JUMPI PUSH1 0x40 MLOAD PUSH32 0x8C379A000000000000000000000000000000000000000000000000000000000 DUP2 MSTORE PUSH1 0x4 ADD PUSH2 0x85F SWAP1 PUSH2 0x484E JUMP JUMPDEST PUSH1 0x40 MLOAD DUP1 SWAP2 SUB SWAP1 REVERT JUMPDEST PUSH1 0xCB PUSH1 0x0 SWAP1 SLOAD SWAP1 PUSH2 0x100 EXP SWAP1 DIV PUSH20 0xFFFFFFFFFFFFFFFFFFFFFFFFFFFFFFFFFFFFFFFF AND PUSH20 0xFFFFFFFFFFFFFFFFFFFFFFFFFFFFFFFFFFFFFFFF AND PUSH2 0x8AD DUP4 DUP13 DUP10 DUP6 PUSH2 0xF6D JUMP JUMPDEST PUSH20 0xFFFFFFFFFFFFFFFFFFFFFFFFFFFFFFFFFFFFFFFF AND EQ PUSH2 0x903 JUMPI PUSH1 0x40 MLOAD PUSH32 0x8C379A000000000000000000000000000000000000000000000000000000000 DUP2 MSTORE PUSH1 0x4 ADD PUSH2 0x8FA SWAP1 PUSH2 0x48BA JUMP JUMPDEST PUSH1 0x40 MLOAD DUP1 SWAP2 SUB SWAP1 REVERT JUMPDEST PUSH2 0x1388 DUP6 GT ISZERO PUSH2 0x948 JUMPI PUSH1 0x40 MLOAD PUSH32 0x8C379A000000000000000000000000000000000000000000000000000000000 DUP2 MSTORE PUSH1 0x4 ADD PUSH2 0x93F SWAP1 PUSH2 0x494C JUMP JUMPDEST PUSH1 0x40 MLOAD DUP1 SWAP2 SUB SWAP1 REVERT JUMPDEST PUSH1 0xA DUP6 LT ISZERO PUSH2 0x98C JUMPI PUSH1 0x40 MLOAD PUSH32 0x8C379A000000000000000000000000000000000000000000000000000000000 DUP2 MSTORE PUSH1 0x4 ADD PUSH2 0x983 SWAP1 PUSH2 0x49DE JUMP JUMPDEST PUSH1 0x40 MLOAD DUP1 SWAP2 SUB SWAP1 REVERT JUMPDEST PUSH1 0x0 DUP1 PUSH1 0x0 SWAP1 POP JUMPDEST DUP6 MLOAD DUP2 LT ISZERO PUSH2 0xC92 JUMPI PUSH1 0x0 PUSH2 0x2710 DUP9 DUP8 DUP5 DUP2 MLOAD DUP2 LT PUSH2 0x9B6 JUMPI PUSH2 0x9B5 PUSH2 0x49FE JUMP JUMPDEST JUMPDEST PUSH1 0x20 MUL PUSH1 0x20 ADD ADD MLOAD PUSH2 0x9C8 SWAP2 SWAP1 PUSH2 0x4A5C JUMP JUMPDEST PUSH2 0x9D2 SWAP2 SWAP1 PUSH2 0x4ACD JUMP JUMPDEST SWAP1 POP DUP6 DUP3 DUP2 MLOAD DUP2 LT PUSH2 0x9E7 JUMPI PUSH2 0x9E6 PUSH2 0x49FE JUMP JUMPDEST JUMPDEST PUSH1 0x20 MUL PUSH1 0x20 ADD ADD MLOAD DUP4 PUSH2 0x9FA SWAP2 SWAP1 PUSH2 0x4AFE JUMP JUMPDEST SWAP3 POP PUSH1 0x0 DUP2 DUP8 DUP5 DUP2 MLOAD DUP2 LT PUSH2 0xA12 JUMPI PUSH2 0xA11 PUSH2 0x49FE JUMP JUMPDEST JUMPDEST PUSH1 0x20 MUL PUSH1 0x20 ADD ADD MLOAD PUSH2 0xA24 SWAP2 SWAP1 PUSH2 0x4B32 JUMP JUMPDEST SWAP1 POP PUSH1 0x40 MLOAD DUP1 PUSH1 0xE0 ADD PUSH1 0x40 MSTORE DUP1 DUP9 DUP6 DUP2 MLOAD DUP2 LT PUSH2 0xA44 JUMPI PUSH2 0xA43 PUSH2 0x49FE JUMP JUMPDEST JUMPDEST PUSH1 0x20 MUL PUSH1 0x20 ADD ADD MLOAD DUP2 MSTORE PUSH1 0x20 ADD DUP4 DUP2 MSTORE PUSH1 0x20 ADD PUSH1 0x0 DUP2 MSTORE PUSH1 0x20 ADD DUP13 DUP2 MSTORE PUSH1 0x20 ADD DUP4 DUP2 MSTORE PUSH1 0x20 ADD DUP13 DUP15 PUSH2 0xA76 SWAP2 SWAP1 PUSH2 0x4B32 JUMP JUMPDEST DUP5 PUSH2 0xA81 SWAP2 SWAP1 PUSH2 0x4ACD JUMP JUMPDEST DUP2 MSTORE PUSH1 0x20 ADD DUP13 DUP2 MSTORE POP PUSH1 0xD0 PUSH1 0x0 PUSH1 0xCA SLOAD DUP2 MSTORE PUSH1 0x20 ADD SWAP1 DUP2 MSTORE PUSH1 0x20 ADD PUSH1 0x0 KECCAK256 PUSH1 0x0 DUP11 DUP7 DUP2 MLOAD DUP2 LT PUSH2 0xAB4 JUMPI PUSH2 0xAB3 PUSH2 0x49FE JUMP JUMPDEST JUMPDEST PUSH1 0x20 MUL PUSH1 0x20 ADD ADD MLOAD PUSH20 0xFFFFFFFFFFFFFFFFFFFFFFFFFFFFFFFFFFFFFFFF AND PUSH20 0xFFFFFFFFFFFFFFFFFFFFFFFFFFFFFFFFFFFFFFFF AND DUP2 MSTORE PUSH1 0x20 ADD SWAP1 DUP2 MSTORE PUSH1 0x20 ADD PUSH1 0x0 KECCAK256 PUSH1 0x0 DUP3 ADD MLOAD DUP2 PUSH1 0x0 ADD SSTORE PUSH1 0x20 DUP3 ADD MLOAD DUP2 PUSH1 0x1 ADD SSTORE PUSH1 0x40 DUP3 ADD MLOAD DUP2 PUSH1 0x2 ADD SSTORE PUSH1 0x60 DUP3 ADD MLOAD DUP2 PUSH1 0x3 ADD SSTORE PUSH1 0x80 DUP3 ADD MLOAD DUP2 PUSH1 0x4 ADD SSTORE PUSH1 0xA0 DUP3 ADD MLOAD DUP2 PUSH1 0x5 ADD SSTORE PUSH1 0xC0 DUP3 ADD MLOAD DUP2 PUSH1 0x6 ADD SSTORE SWAP1 POP POP PUSH1 0x40 MLOAD DUP1 PUSH1 0xE0 ADD PUSH1 0x40 MSTORE DUP1 DUP9 DUP6 DUP2 MLOAD DUP2 LT PUSH2 0xB5D JUMPI PUSH2 0xB5C PUSH2 0x49FE JUMP JUMPDEST JUMPDEST PUSH1 0x20 MUL PUSH1 0x20 ADD ADD MLOAD DUP2 MSTORE PUSH1 0x20 ADD DUP3 DUP2 MSTORE PUSH1 0x20 ADD PUSH1 0x0 DUP2 MSTORE PUSH1 0x20 ADD DUP13 DUP2 MSTORE PUSH1 0x20 ADD DUP3 DUP2 MSTORE PUSH1 0x20 ADD DUP13 DUP16 PUSH2 0xB8F SWAP2 SWAP1 PUSH2 0x4B32 JUMP JUMPDEST DUP5 DUP11 DUP8 DUP2 MLOAD DUP2 LT PUSH2 0xBA3 JUMPI PUSH2 0xBA2 PUSH2 0x49FE JUMP JUMPDEST JUMPDEST PUSH1 0x20 MUL PUSH1 0x20 ADD ADD MLOAD PUSH2 0xBB5 SWAP2 SWAP1 PUSH2 0x4B32 JUMP JUMPDEST PUSH2 0xBBF SWAP2 SWAP1 PUSH2 0x4ACD JUMP JUMPDEST DUP2 MSTORE PUSH1 0x20 ADD DUP13 DUP2 MSTORE POP PUSH1 0xD1 PUSH1 0x0 PUSH1 0xCA SLOAD DUP2 MSTORE PUSH1 0x20 ADD SWAP1 DUP2 MSTORE PUSH1 0x20 ADD PUSH1 0x0 KECCAK256 PUSH1 0x0 DUP11 DUP7 DUP2 MLOAD DUP2 LT PUSH2 0xBF2 JUMPI PUSH2 0xBF1 PUSH2 0x49FE JUMP JUMPDEST JUMPDEST PUSH1 0x20 MUL PUSH1 0x20 ADD ADD MLOAD PUSH20 0xFFFFFFFFFFFFFFFFFFFFFFFFFFFFFFFFFFFFFFFF AND PUSH20 0xFFFFFFFFFFFFFFFFFFFFFFFFFFFFFFFFFFFFFFFF AND DUP2 MSTORE PUSH1 0x20 ADD SWAP1 DUP2 MSTORE PUSH1 0x20 ADD PUSH1 0x0 KECCAK256 PUSH1 0x0 DUP3 ADD MLOAD DUP2 PUSH1 0x0 ADD SSTORE PUSH1 0x20 DUP3 ADD MLOAD DUP2 PUSH1 0x1 ADD SSTORE PUSH1 0x40 DUP3 ADD MLOAD DUP2 PUSH1 0x2 ADD SSTORE PUSH1 0x60 DUP3 ADD MLOAD DUP2 PUSH1 0x3 ADD SSTORE PUSH1 0x80 DUP3 ADD MLOAD DUP2 PUSH1 0x4 ADD SSTORE PUSH1 0xA0 DUP3 ADD MLOAD DUP2 PUSH1 0x5 ADD SSTORE PUSH1 0xC0 DUP3 ADD MLOAD DUP2 PUSH1 0x6 ADD SSTORE SWAP1 POP POP POP POP DUP1 DUP1 PUSH2 0xC8A SWAP1 PUSH2 0x4B66 JUMP JUMPDEST SWAP2 POP POP PUSH2 0x994 JUMP JUMPDEST POP PUSH1 0x0 DUP9 DUP12 PUSH2 0xCA1 SWAP2 SWAP1 PUSH2 0x4B32 JUMP JUMPDEST SWAP1 POP PUSH1 0x40 MLOAD DUP1 PUSH2 0x160 ADD PUSH1 0x40 MSTORE DUP1 DUP14 DUP2 MSTORE PUSH1 0x20 ADD TIMESTAMP DUP2 MSTORE PUSH1 0x20 ADD DUP13 DUP2 MSTORE PUSH1 0x20 ADD DUP12 DUP2 MSTORE PUSH1 0x20 ADD DUP3 DUP2 MSTORE PUSH1 0x20 ADD DUP11 DUP2 MSTORE PUSH1 0x20 ADD DUP10 PUSH20 0xFFFFFFFFFFFFFFFFFFFFFFFFFFFFFFFFFFFFFFFF AND DUP2 MSTORE PUSH1 0x20 ADD DUP4 DUP2 MSTORE PUSH1 0x20 ADD DUP9 DUP2 MSTORE PUSH1 0x20 ADD DUP8 DUP2 MSTORE PUSH1 0x20 ADD DUP7 DUP2 MSTORE POP PUSH1 0xCE PUSH1 0x0 PUSH1 0xCA SLOAD DUP2 MSTORE PUSH1 0x20 ADD SWAP1 DUP2 MSTORE PUSH1 0x20 ADD PUSH1 0x0 KECCAK256 PUSH1 0x0 DUP3 ADD MLOAD DUP2 PUSH1 0x0 ADD SWAP1 DUP2 PUSH2 0xD2F SWAP2 SWAP1 PUSH2 0x4DBA JUMP JUMPDEST POP PUSH1 0x20 DUP3 ADD MLOAD DUP2 PUSH1 0x1 ADD SSTORE PUSH1 0x40 DUP3 ADD MLOAD DUP2 PUSH1 0x2 ADD SSTORE PUSH1 0x60 DUP3 ADD MLOAD DUP2 PUSH1 0x3 ADD SSTORE PUSH1 0x80 DUP3 ADD MLOAD DUP2 PUSH1 0x4 ADD SSTORE PUSH1 0xA0 DUP3 ADD MLOAD DUP2 PUSH1 0x5 ADD SSTORE PUSH1 0xC0 DUP3 ADD MLOAD DUP2 PUSH1 0x6 ADD PUSH1 0x0 PUSH2 0x100 EXP DUP2 SLOAD DUP2 PUSH20 0xFFFFFFFFFFFFFFFFFFFFFFFFFFFFFFFFFFFFFFFF MUL NOT AND SWAP1 DUP4 PUSH20 0xFFFFFFFFFFFFFFFFFFFFFFFFFFFFFFFFFFFFFFFF AND MUL OR SWAP1 SSTORE POP PUSH1 0xE0 DUP3 ADD MLOAD DUP2 PUSH1 0x7 ADD SSTORE PUSH2 0x100 DUP3 ADD MLOAD DUP2 PUSH1 0x8 ADD SSTORE PUSH2 0x120 DUP3 ADD MLOAD DUP2 PUSH1 0x9 ADD SWAP1 DUP1 MLOAD SWAP1 PUSH1 0x20 ADD SWAP1 PUSH2 0xDDB SWAP3 SWAP2 SWAP1 PUSH2 0x3724 JUMP JUMPDEST POP PUSH2 0x140 DUP3 ADD MLOAD DUP2 PUSH1 0xA ADD SWAP1 DUP1 MLOAD SWAP1 PUSH1 0x20 ADD SWAP1 PUSH2 0xDF9 SWAP3 SWAP2 SWAP1 PUSH2 0x37AE JUMP JUMPDEST POP SWAP1 POP POP PUSH2 0xE31 PUSH2 0xE08 PUSH2 0x2C62 JUMP JUMPDEST ADDRESS DUP5 DUP12 PUSH20 0xFFFFFFFFFFFFFFFFFFFFFFFFFFFFFFFFFFFFFFFF AND PUSH2 0x2C6A SWAP1 SWAP4 SWAP3 SWAP2 SWAP1 PUSH4 0xFFFFFFFF AND JUMP JUMPDEST PUSH1 0x1 PUSH1 0xCC PUSH1 0x0 PUSH1 0xCA SLOAD DUP2 MSTORE PUSH1 0x20 ADD SWAP1 DUP2 MSTORE PUSH1 0x20 ADD PUSH1 0x0 KECCAK256 PUSH1 0x0 PUSH2 0x100 EXP DUP2 SLOAD DUP2 PUSH1 0xFF MUL NOT AND SWAP1 DUP4 ISZERO ISZERO MUL OR SWAP1 SSTORE POP PUSH1 0xCA SLOAD PUSH2 0xE6A PUSH2 0x2C62 JUMP JUMPDEST PUSH20 0xFFFFFFFFFFFFFFFFFFFFFFFFFFFFFFFFFFFFFFFF AND PUSH32 0x8F48C5C87FD18C78FB2F723EB06075C3AE8C8BC0C3CDC3AEDD86CC18C0B4253B DUP15 DUP15 DUP15 DUP7 DUP16 DUP16 DUP11 DUP16 DUP16 PUSH1 0x40 MLOAD PUSH2 0xEBF SWAP10 SWAP9 SWAP8 SWAP7 SWAP6 SWAP5 SWAP4 SWAP3 SWAP2 SWAP1 PUSH2 0x5008 JUMP JUMPDEST PUSH1 0x40 MLOAD DUP1 SWAP2 SUB SWAP1 LOG3 PUSH1 0x1 PUSH1 0xCA SLOAD PUSH2 0xED6 SWAP2 SWAP1 PUSH2 0x4AFE JUMP JUMPDEST PUSH1 0xCA DUP2 SWAP1 SSTORE POP PUSH1 0x1 PUSH1 0xD2 PUSH1 0x0 PUSH2 0xEED DUP16 DUP13 DUP9 PUSH2 0x2CF3 JUMP JUMPDEST DUP2 MSTORE PUSH1 0x20 ADD SWAP1 DUP2 MSTORE PUSH1 0x20 ADD PUSH1 0x0 KECCAK256 PUSH1 0x0 PUSH2 0x100 EXP DUP2 SLOAD DUP2 PUSH1 0xFF MUL NOT AND SWAP1 DUP4 ISZERO ISZERO MUL OR SWAP1 SSTORE POP POP POP PUSH1 0x1 DUP1 DUP2 SWAP1 SSTORE POP POP POP POP POP POP POP POP POP POP POP JUMP JUMPDEST PUSH1 0xCB PUSH1 0x0 SWAP1 SLOAD SWAP1 PUSH2 0x100 EXP SWAP1 DIV PUSH20 0xFFFFFFFFFFFFFFFFFFFFFFFFFFFFFFFFFFFFFFFF AND DUP2 JUMP JUMPDEST PUSH1 0x0 PUSH1 0x97 PUSH1 0x0 DUP4 DUP2 MSTORE PUSH1 0x20 ADD SWAP1 DUP2 MSTORE PUSH1 0x20 ADD PUSH1 0x0 KECCAK256 PUSH1 0x1 ADD SLOAD SWAP1 POP SWAP2 SWAP1 POP JUMP JUMPDEST PUSH1 0x0 DUP1 PUSH2 0xF7B DUP6 DUP6 DUP6 PUSH2 0x2CF3 JUMP JUMPDEST SWAP1 POP PUSH1 0x0 DUP1 PUSH1 0x0 PUSH2 0xF8B DUP10 PUSH2 0x2D30 JUMP JUMPDEST SWAP3 POP SWAP3 POP SWAP3 POP PUSH1 0xD2 PUSH1 0x0 DUP6 DUP2 MSTORE PUSH1 0x20 ADD SWAP1 DUP2 MSTORE PUSH1 0x20 ADD PUSH1 0x0 KECCAK256 PUSH1 0x0 SWAP1 SLOAD SWAP1 PUSH2 0x100 EXP SWAP1 DIV PUSH1 0xFF AND ISZERO PUSH2 0xFF2 JUMPI PUSH1 0x40 MLOAD PUSH32 0x8C379A000000000000000000000000000000000000000000000000000000000 DUP2 MSTORE PUSH1 0x4 ADD PUSH2 0xFE9 SWAP1 PUSH2 0x50F6 JUMP JUMPDEST PUSH1 0x40 MLOAD DUP1 SWAP2 SUB SWAP1 REVERT JUMPDEST PUSH1 0x0 PUSH2 0x1000 DUP6 DUP4 DUP7 DUP7 PUSH2 0x2D98 JUMP JUMPDEST SWAP1 POP DUP1 SWAP6 POP POP POP POP POP POP SWAP5 SWAP4 POP POP POP POP JUMP JUMPDEST PUSH2 0x101B DUP3 PUSH2 0xF4D JUMP JUMPDEST PUSH2 0x1024 DUP2 PUSH2 0x2E61 JUMP JUMPDEST PUSH2 0x102E DUP4 DUP4 PUSH2 0x2E75 JUMP JUMPDEST POP POP POP JUMP JUMPDEST PUSH2 0x103B PUSH2 0x2C62 JUMP JUMPDEST PUSH20 0xFFFFFFFFFFFFFFFFFFFFFFFFFFFFFFFFFFFFFFFF AND DUP2 PUSH20 0xFFFFFFFFFFFFFFFFFFFFFFFFFFFFFFFFFFFFFFFF AND EQ PUSH2 0x10A8 JUMPI PUSH1 0x40 MLOAD PUSH32 0x8C379A000000000000000000000000000000000000000000000000000000000 DUP2 MSTORE PUSH1 0x4 ADD PUSH2 0x109F SWAP1 PUSH2 0x5188 JUMP JUMPDEST PUSH1 0x40 MLOAD DUP1 SWAP2 SUB SWAP1 REVERT JUMPDEST PUSH2 0x10B2 DUP3 DUP3 PUSH2 0x2F56 JUMP JUMPDEST POP POP JUMP JUMPDEST PUSH1 0x2 PUSH1 0x1 SLOAD SUB PUSH2 0x10FB JUMPI PUSH1 0x40 MLOAD PUSH32 0x8C379A000000000000000000000000000000000000000000000000000000000 DUP2 MSTORE PUSH1 0x4 ADD PUSH2 0x10F2 SWAP1 PUSH2 0x45BA JUMP JUMPDEST PUSH1 0x40 MLOAD DUP1 SWAP2 SUB SWAP1 REVERT JUMPDEST PUSH1 0x2 PUSH1 0x1 DUP2 SWAP1 SSTORE POP PUSH1 0x0 PUSH2 0x1116 DUP3 PUSH2 0x1111 PUSH2 0x2C62 JUMP JUMPDEST PUSH2 0x2431 JUMP JUMPDEST SWAP1 POP PUSH1 0x0 DUP2 GT PUSH2 0x115B JUMPI PUSH1 0x40 MLOAD PUSH32 0x8C379A000000000000000000000000000000000000000000000000000000000 DUP2 MSTORE PUSH1 0x4 ADD PUSH2 0x1152 SWAP1 PUSH2 0x51F4 JUMP JUMPDEST PUSH1 0x40 MLOAD DUP1 SWAP2 SUB SWAP1 REVERT JUMPDEST PUSH2 0x11C3 PUSH2 0x1166 PUSH2 0x2C62 JUMP JUMPDEST DUP3 PUSH1 0xCD PUSH1 0x0 DUP7 DUP2 MSTORE PUSH1 0x20 ADD SWAP1 DUP2 MSTORE PUSH1 0x20 ADD PUSH1 0x0 KECCAK256 PUSH1 0x3 ADD PUSH1 0x0 SWAP1 SLOAD SWAP1 PUSH2 0x100 EXP SWAP1 DIV PUSH20 0xFFFFFFFFFFFFFFFFFFFFFFFFFFFFFFFFFFFFFFFF AND PUSH20 0xFFFFFFFFFFFFFFFFFFFFFFFFFFFFFFFFFFFFFFFF AND PUSH2 0x3038 SWAP1 SWAP3 SWAP2 SWAP1 PUSH4 0xFFFFFFFF AND JUMP JUMPDEST PUSH1 0x0 PUSH1 0xCF PUSH1 0x0 DUP5 DUP2 MSTORE PUSH1 0x20 ADD SWAP1 DUP2 MSTORE PUSH1 0x20 ADD PUSH1 0x0 KECCAK256 PUSH1 0x0 PUSH2 0x11E2 PUSH2 0x2C62 JUMP JUMPDEST PUSH20 0xFFFFFFFFFFFFFFFFFFFFFFFFFFFFFFFFFFFFFFFF AND PUSH20 0xFFFFFFFFFFFFFFFFFFFFFFFFFFFFFFFFFFFFFFFF AND DUP2 MSTORE PUSH1 0x20 ADD SWAP1 DUP2 MSTORE PUSH1 0x20 ADD PUSH1 0x0 KECCAK256 SWAP1 POP PUSH1 0x0 DUP3 DUP3 PUSH1 0x1 ADD SLOAD PUSH2 0x1230 SWAP2 SWAP1 PUSH2 0x4AFE JUMP JUMPDEST SWAP1 POP PUSH1 0x0 DUP2 DUP4 PUSH1 0x0 ADD SLOAD PUSH2 0x1244 SWAP2 SWAP1 PUSH2 0x4B32 JUMP JUMPDEST SWAP1 POP DUP2 DUP4 PUSH1 0x1 ADD DUP2 SWAP1 SSTORE POP DUP1 DUP4 PUSH1 0x2 ADD DUP2 SWAP1 SSTORE POP TIMESTAMP DUP4 PUSH1 0x3 ADD DUP2 SWAP1 SSTORE POP PUSH2 0x1269 PUSH2 0x2C62 JUMP JUMPDEST PUSH20 0xFFFFFFFFFFFFFFFFFFFFFFFFFFFFFFFFFFFFFFFF AND DUP6 PUSH32 0x18E22050893AA2ECE2423F6A3F2C7D3468EDA73CB9FB8A8B623B1F27A2FC65A9 DUP7 DUP5 PUSH1 0x40 MLOAD PUSH2 0x12B1 SWAP3 SWAP2 SWAP1 PUSH2 0x5214 JUMP JUMPDEST PUSH1 0x40 MLOAD DUP1 SWAP2 SUB SWAP1 LOG3 POP POP POP POP PUSH1 0x1 DUP1 DUP2 SWAP1 SSTORE POP POP JUMP JUMPDEST PUSH1 0xCC PUSH1 0x20 MSTORE DUP1 PUSH1 0x0 MSTORE PUSH1 0x40 PUSH1 0x0 KECCAK256 PUSH1 0x0 SWAP2 POP SLOAD SWAP1 PUSH2 0x100 EXP SWAP1 DIV PUSH1 0xFF AND DUP2 JUMP JUMPDEST PUSH2 0x1318 PUSH32 0x64ED6499E2F5A7EA55DFD56DA361BF9D48064843BB3891C36F1DABD9BA246135 PUSH2 0x1313 PUSH2 0x2C62 JUMP JUMPDEST PUSH2 0x2091 JUMP JUMPDEST PUSH2 0x1357 JUMPI PUSH1 0x40 MLOAD PUSH32 0x8C379A000000000000000000000000000000000000000000000000000000000 DUP2 MSTORE PUSH1 0x4 ADD PUSH2 0x134E SWAP1 PUSH2 0x454E JUMP JUMPDEST PUSH1 0x40 MLOAD DUP1 SWAP2 SUB SWAP1 REVERT JUMPDEST PUSH1 0x2 PUSH1 0x1 SLOAD SUB PUSH2 0x139C JUMPI PUSH1 0x40 MLOAD PUSH32 0x8C379A000000000000000000000000000000000000000000000000000000000 DUP2 MSTORE PUSH1 0x4 ADD PUSH2 0x1393 SWAP1 PUSH2 0x45BA JUMP JUMPDEST PUSH1 0x40 MLOAD DUP1 SWAP2 SUB SWAP1 REVERT JUMPDEST PUSH1 0x2 PUSH1 0x1 DUP2 SWAP1 SSTORE POP DUP3 MLOAD DUP5 MLOAD EQ PUSH2 0x13E8 JUMPI PUSH1 0x40 MLOAD PUSH32 0x8C379A000000000000000000000000000000000000000000000000000000000 DUP2 MSTORE PUSH1 0x4 ADD PUSH2 0x13DF SWAP1 PUSH2 0x4672 JUMP JUMPDEST PUSH1 0x40 MLOAD DUP1 SWAP2 SUB SWAP1 REVERT JUMPDEST TIMESTAMP DUP7 GT PUSH2 0x142A JUMPI PUSH1 0x40 MLOAD PUSH32 0x8C379A000000000000000000000000000000000000000000000000000000000 DUP2 MSTORE PUSH1 0x4 ADD PUSH2 0x1421 SWAP1 PUSH2 0x52AF JUMP JUMPDEST PUSH1 0x40 MLOAD DUP1 SWAP2 SUB SWAP1 REVERT JUMPDEST PUSH1 0xCB PUSH1 0x0 SWAP1 SLOAD SWAP1 PUSH2 0x100 EXP SWAP1 DIV PUSH20 0xFFFFFFFFFFFFFFFFFFFFFFFFFFFFFFFFFFFFFFFF AND PUSH20 0xFFFFFFFFFFFFFFFFFFFFFFFFFFFFFFFFFFFFFFFF AND PUSH2 0x146F DUP4 DUP10 DUP9 DUP6 PUSH2 0xF6D JUMP JUMPDEST PUSH20 0xFFFFFFFFFFFFFFFFFFFFFFFFFFFFFFFFFFFFFFFF AND EQ PUSH2 0x14C5 JUMPI PUSH1 0x40 MLOAD PUSH32 0x8C379A000000000000000000000000000000000000000000000000000000000 DUP2 MSTORE PUSH1 0x4 ADD PUSH2 0x14BC SWAP1 PUSH2 0x48BA JUMP JUMPDEST PUSH1 0x40 MLOAD DUP1 SWAP2 SUB SWAP1 REVERT JUMPDEST PUSH1 0x0 DUP1 PUSH1 0x0 SWAP1 POP JUMPDEST DUP6 MLOAD DUP2 LT ISZERO PUSH2 0x163E JUMPI DUP5 DUP2 DUP2 MLOAD DUP2 LT PUSH2 0x14E9 JUMPI PUSH2 0x14E8 PUSH2 0x49FE JUMP JUMPDEST JUMPDEST PUSH1 0x20 MUL PUSH1 0x20 ADD ADD MLOAD DUP3 PUSH2 0x14FC SWAP2 SWAP1 PUSH2 0x4AFE JUMP JUMPDEST SWAP2 POP PUSH1 0x40 MLOAD DUP1 PUSH1 0xA0 ADD PUSH1 0x40 MSTORE DUP1 DUP7 DUP4 DUP2 MLOAD DUP2 LT PUSH2 0x151C JUMPI PUSH2 0x151B PUSH2 0x49FE JUMP JUMPDEST JUMPDEST PUSH1 0x20 MUL PUSH1 0x20 ADD ADD MLOAD DUP2 MSTORE PUSH1 0x20 ADD PUSH1 0x0 DUP2 MSTORE PUSH1 0x20 ADD DUP7 DUP4 DUP2 MLOAD DUP2 LT PUSH2 0x1543 JUMPI PUSH2 0x1542 PUSH2 0x49FE JUMP JUMPDEST JUMPDEST PUSH1 0x20 MUL PUSH1 0x20 ADD ADD MLOAD DUP2 MSTORE PUSH1 0x20 ADD TIMESTAMP DUP2 MSTORE PUSH1 0x20 ADD TIMESTAMP DUP11 PUSH2 0x1562 SWAP2 SWAP1 PUSH2 0x4B32 JUMP JUMPDEST DUP8 DUP5 DUP2 MLOAD DUP2 LT PUSH2 0x1575 JUMPI PUSH2 0x1574 PUSH2 0x49FE JUMP JUMPDEST JUMPDEST PUSH1 0x20 MUL PUSH1 0x20 ADD ADD MLOAD PUSH2 0x1587 SWAP2 SWAP1 PUSH2 0x4ACD JUMP JUMPDEST DUP2 MSTORE POP PUSH1 0xCF PUSH1 0x0 PUSH1 0xCA SLOAD DUP2 MSTORE PUSH1 0x20 ADD SWAP1 DUP2 MSTORE PUSH1 0x20 ADD PUSH1 0x0 KECCAK256 PUSH1 0x0 DUP9 DUP5 DUP2 MLOAD DUP2 LT PUSH2 0x15B4 JUMPI PUSH2 0x15B3 PUSH2 0x49FE JUMP JUMPDEST JUMPDEST PUSH1 0x20 MUL PUSH1 0x20 ADD ADD MLOAD PUSH20 0xFFFFFFFFFFFFFFFFFFFFFFFFFFFFFFFFFFFFFFFF AND PUSH20 0xFFFFFFFFFFFFFFFFFFFFFFFFFFFFFFFFFFFFFFFF AND DUP2 MSTORE PUSH1 0x20 ADD SWAP1 DUP2 MSTORE PUSH1 0x20 ADD PUSH1 0x0 KECCAK256 PUSH1 0x0 DUP3 ADD MLOAD DUP2 PUSH1 0x0 ADD SSTORE PUSH1 0x20 DUP3 ADD MLOAD DUP2 PUSH1 0x1 ADD SSTORE PUSH1 0x40 DUP3 ADD MLOAD DUP2 PUSH1 0x2 ADD SSTORE PUSH1 0x60 DUP3 ADD MLOAD DUP2 PUSH1 0x3 ADD SSTORE PUSH1 0x80 DUP3 ADD MLOAD DUP2 PUSH1 0x4 ADD SSTORE SWAP1 POP POP DUP1 DUP1 PUSH2 0x1636 SWAP1 PUSH2 0x4B66 JUMP JUMPDEST SWAP2 POP POP PUSH2 0x14CD JUMP JUMPDEST POP PUSH1 0x40 MLOAD DUP1 PUSH1 0xE0 ADD PUSH1 0x40 MSTORE DUP1 DUP10 DUP2 MSTORE PUSH1 0x20 ADD TIMESTAMP DUP2 MSTORE PUSH1 0x20 ADD DUP9 DUP2 MSTORE PUSH1 0x20 ADD DUP8 PUSH20 0xFFFFFFFFFFFFFFFFFFFFFFFFFFFFFFFFFFFFFFFF AND DUP2 MSTORE PUSH1 0x20 ADD DUP3 DUP2 MSTORE PUSH1 0x20 ADD DUP7 DUP2 MSTORE PUSH1 0x20 ADD DUP6 DUP2 MSTORE POP PUSH1 0xCD PUSH1 0x0 PUSH1 0xCA SLOAD DUP2 MSTORE PUSH1 0x20 ADD SWAP1 DUP2 MSTORE PUSH1 0x20 ADD PUSH1 0x0 KECCAK256 PUSH1 0x0 DUP3 ADD MLOAD DUP2 PUSH1 0x0 ADD SWAP1 DUP2 PUSH2 0x16B2 SWAP2 SWAP1 PUSH2 0x4DBA JUMP JUMPDEST POP PUSH1 0x20 DUP3 ADD MLOAD DUP2 PUSH1 0x1 ADD SSTORE PUSH1 0x40 DUP3 ADD MLOAD DUP2 PUSH1 0x2 ADD SSTORE PUSH1 0x60 DUP3 ADD MLOAD DUP2 PUSH1 0x3 ADD PUSH1 0x0 PUSH2 0x100 EXP DUP2 SLOAD DUP2 PUSH20 0xFFFFFFFFFFFFFFFFFFFFFFFFFFFFFFFFFFFFFFFF MUL NOT AND SWAP1 DUP4 PUSH20 0xFFFFFFFFFFFFFFFFFFFFFFFFFFFFFFFFFFFFFFFF AND MUL OR SWAP1 SSTORE POP PUSH1 0x80 DUP3 ADD MLOAD DUP2 PUSH1 0x4 ADD SSTORE PUSH1 0xA0 DUP3 ADD MLOAD DUP2 PUSH1 0x5 ADD SWAP1 DUP1 MLOAD SWAP1 PUSH1 0x20 ADD SWAP1 PUSH2 0x1734 SWAP3 SWAP2 SWAP1 PUSH2 0x3724 JUMP JUMPDEST POP PUSH1 0xC0 DUP3 ADD MLOAD DUP2 PUSH1 0x6 ADD SWAP1 DUP1 MLOAD SWAP1 PUSH1 0x20 ADD SWAP1 PUSH2 0x1751 SWAP3 SWAP2 SWAP1 PUSH2 0x37AE JUMP JUMPDEST POP SWAP1 POP POP PUSH2 0x1789 PUSH2 0x1760 PUSH2 0x2C62 JUMP JUMPDEST ADDRESS DUP4 DUP10 PUSH20 0xFFFFFFFFFFFFFFFFFFFFFFFFFFFFFFFFFFFFFFFF AND PUSH2 0x2C6A SWAP1 SWAP4 SWAP3 SWAP2 SWAP1 PUSH4 0xFFFFFFFF AND JUMP JUMPDEST PUSH1 0xCA SLOAD PUSH2 0x1794 PUSH2 0x2C62 JUMP JUMPDEST PUSH20 0xFFFFFFFFFFFFFFFFFFFFFFFFFFFFFFFFFFFFFFFF AND PUSH32 0x7E8321B3E44425B3B58A0D4C7CCC0CC834B3E0BBD7DCFE65C77CA0C4B1A62EF1 DUP11 TIMESTAMP DUP12 DUP12 DUP8 DUP13 DUP13 PUSH1 0x40 MLOAD PUSH2 0x17E5 SWAP8 SWAP7 SWAP6 SWAP5 SWAP4 SWAP3 SWAP2 SWAP1 PUSH2 0x52CF JUMP JUMPDEST PUSH1 0x40 MLOAD DUP1 SWAP2 SUB SWAP1 LOG3 PUSH1 0x1 PUSH1 0xCA SLOAD PUSH2 0x17FC SWAP2 SWAP1 PUSH2 0x4AFE JUMP JUMPDEST PUSH1 0xCA DUP2 SWAP1 SSTORE POP PUSH1 0x1 PUSH1 0xD2 PUSH1 0x0 PUSH2 0x1813 DUP12 DUP11 DUP8 PUSH2 0x2CF3 JUMP JUMPDEST DUP2 MSTORE PUSH1 0x20 ADD SWAP1 DUP2 MSTORE PUSH1 0x20 ADD PUSH1 0x0 KECCAK256 PUSH1 0x0 PUSH2 0x100 EXP DUP2 SLOAD DUP2 PUSH1 0xFF MUL NOT AND SWAP1 DUP4 ISZERO ISZERO MUL OR SWAP1 SSTORE POP POP PUSH1 0x1 DUP1 DUP2 SWAP1 SSTORE POP POP POP POP POP POP POP POP JUMP JUMPDEST PUSH1 0xCA SLOAD DUP2 JUMP JUMPDEST PUSH1 0xD1 PUSH1 0x20 MSTORE DUP2 PUSH1 0x0 MSTORE PUSH1 0x40 PUSH1 0x0 KECCAK256 PUSH1 0x20 MSTORE DUP1 PUSH1 0x0 MSTORE PUSH1 0x40 PUSH1 0x0 KECCAK256 PUSH1 0x0 SWAP2 POP SWAP2 POP POP DUP1 PUSH1 0x0 ADD SLOAD SWAP1 DUP1 PUSH1 0x1 ADD SLOAD SWAP1 DUP1 PUSH1 0x2 ADD SLOAD SWAP1 DUP1 PUSH1 0x3 ADD SLOAD SWAP1 DUP1 PUSH1 0x4 ADD SLOAD SWAP1 DUP1 PUSH1 0x5 ADD SLOAD SWAP1 DUP1 PUSH1 0x6 ADD SLOAD SWAP1 POP DUP8 JUMP JUMPDEST PUSH2 0x18B2 PUSH1 0x0 DUP1 SHL PUSH2 0x18AD PUSH2 0x2C62 JUMP JUMPDEST PUSH2 0x2091 JUMP JUMPDEST PUSH2 0x18F1 JUMPI PUSH1 0x40 MLOAD PUSH32 0x8C379A000000000000000000000000000000000000000000000000000000000 DUP2 MSTORE PUSH1 0x4 ADD PUSH2 0x18E8 SWAP1 PUSH2 0x53C5 JUMP JUMPDEST PUSH1 0x40 MLOAD DUP1 SWAP2 SUB SWAP1 REVERT JUMPDEST PUSH1 0x0 PUSH20 0xFFFFFFFFFFFFFFFFFFFFFFFFFFFFFFFFFFFFFFFF AND DUP2 PUSH20 0xFFFFFFFFFFFFFFFFFFFFFFFFFFFFFFFFFFFFFFFF AND SUB PUSH2 0x1960 JUMPI PUSH1 0x40 MLOAD PUSH32 0x8C379A000000000000000000000000000000000000000000000000000000000 DUP2 MSTORE PUSH1 0x4 ADD PUSH2 0x1957 SWAP1 PUSH2 0x5457 JUMP JUMPDEST PUSH1 0x40 MLOAD DUP1 SWAP2 SUB SWAP1 REVERT JUMPDEST DUP1 PUSH1 0xCB PUSH1 0x0 PUSH2 0x100 EXP DUP2 SLOAD DUP2 PUSH20 0xFFFFFFFFFFFFFFFFFFFFFFFFFFFFFFFFFFFFFFFF MUL NOT AND SWAP1 DUP4 PUSH20 0xFFFFFFFFFFFFFFFFFFFFFFFFFFFFFFFFFFFFFFFF AND MUL OR SWAP1 SSTORE POP POP JUMP JUMPDEST PUSH1 0x0 PUSH1 0x60 PUSH1 0x0 DUP1 PUSH1 0x0 DUP1 PUSH1 0x0 DUP1 PUSH1 0x0 DUP1 PUSH1 0x0 PUSH1 0xCC PUSH1 0x0 DUP14 DUP2 MSTORE PUSH1 0x20 ADD SWAP1 DUP2 MSTORE PUSH1 0x20 ADD PUSH1 0x0 KECCAK256 PUSH1 0x0 SWAP1 SLOAD SWAP1 PUSH2 0x100 EXP SWAP1 DIV PUSH1 0xFF AND SWAP1 POP DUP1 ISZERO PUSH2 0x1C60 JUMPI PUSH1 0x0 PUSH1 0xCE PUSH1 0x0 DUP15 DUP2 MSTORE PUSH1 0x20 ADD SWAP1 DUP2 MSTORE PUSH1 0x20 ADD PUSH1 0x0 KECCAK256 PUSH1 0x40 MLOAD DUP1 PUSH2 0x160 ADD PUSH1 0x40 MSTORE SWAP1 DUP2 PUSH1 0x0 DUP3 ADD DUP1 SLOAD PUSH2 0x1A10 SWAP1 PUSH2 0x4BDD JUMP JUMPDEST DUP1 PUSH1 0x1F ADD PUSH1 0x20 DUP1 SWAP2 DIV MUL PUSH1 0x20 ADD PUSH1 0x40 MLOAD SWAP1 DUP2 ADD PUSH1 0x40 MSTORE DUP1 SWAP3 SWAP2 SWAP1 DUP2 DUP2 MSTORE PUSH1 0x20 ADD DUP3 DUP1 SLOAD PUSH2 0x1A3C SWAP1 PUSH2 0x4BDD JUMP JUMPDEST DUP1 ISZERO PUSH2 0x1A89 JUMPI DUP1 PUSH1 0x1F LT PUSH2 0x1A5E JUMPI PUSH2 0x100 DUP1 DUP4 SLOAD DIV MUL DUP4 MSTORE SWAP2 PUSH1 0x20 ADD SWAP2 PUSH2 0x1A89 JUMP JUMPDEST DUP3 ADD SWAP2 SWAP1 PUSH1 0x0 MSTORE PUSH1 0x20 PUSH1 0x0 KECCAK256 SWAP1 JUMPDEST DUP2 SLOAD DUP2 MSTORE SWAP1 PUSH1 0x1 ADD SWAP1 PUSH1 0x20 ADD DUP1 DUP4 GT PUSH2 0x1A6C JUMPI DUP3 SWAP1 SUB PUSH1 0x1F AND DUP3 ADD SWAP2 JUMPDEST POP POP POP POP POP DUP2 MSTORE PUSH1 0x20 ADD PUSH1 0x1 DUP3 ADD SLOAD DUP2 MSTORE PUSH1 0x20 ADD PUSH1 0x2 DUP3 ADD SLOAD DUP2 MSTORE PUSH1 0x20 ADD PUSH1 0x3 DUP3 ADD SLOAD DUP2 MSTORE PUSH1 0x20 ADD PUSH1 0x4 DUP3 ADD SLOAD DUP2 MSTORE PUSH1 0x20 ADD PUSH1 0x5 DUP3 ADD SLOAD DUP2 MSTORE PUSH1 0x20 ADD PUSH1 0x6 DUP3 ADD PUSH1 0x0 SWAP1 SLOAD SWAP1 PUSH2 0x100 EXP SWAP1 DIV PUSH20 0xFFFFFFFFFFFFFFFFFFFFFFFFFFFFFFFFFFFFFFFF AND PUSH20 0xFFFFFFFFFFFFFFFFFFFFFFFFFFFFFFFFFFFFFFFF AND PUSH20 0xFFFFFFFFFFFFFFFFFFFFFFFFFFFFFFFFFFFFFFFF AND DUP2 MSTORE PUSH1 0x20 ADD PUSH1 0x7 DUP3 ADD SLOAD DUP2 MSTORE PUSH1 0x20 ADD PUSH1 0x8 DUP3 ADD SLOAD DUP2 MSTORE PUSH1 0x20 ADD PUSH1 0x9 DUP3 ADD DUP1 SLOAD DUP1 PUSH1 0x20 MUL PUSH1 0x20 ADD PUSH1 0x40 MLOAD SWAP1 DUP2 ADD PUSH1 0x40 MSTORE DUP1 SWAP3 SWAP2 SWAP1 DUP2 DUP2 MSTORE PUSH1 0x20 ADD DUP3 DUP1 SLOAD DUP1 ISZERO PUSH2 0x1BB3 JUMPI PUSH1 0x20 MUL DUP3 ADD SWAP2 SWAP1 PUSH1 0x0 MSTORE PUSH1 0x20 PUSH1 0x0 KECCAK256 SWAP1 JUMPDEST DUP2 PUSH1 0x0 SWAP1 SLOAD SWAP1 PUSH2 0x100 EXP SWAP1 DIV PUSH20 0xFFFFFFFFFFFFFFFFFFFFFFFFFFFFFFFFFFFFFFFF AND PUSH20 0xFFFFFFFFFFFFFFFFFFFFFFFFFFFFFFFFFFFFFFFF AND DUP2 MSTORE PUSH1 0x20 ADD SWAP1 PUSH1 0x1 ADD SWAP1 DUP1 DUP4 GT PUSH2 0x1B69 JUMPI JUMPDEST POP POP POP POP POP DUP2 MSTORE PUSH1 0x20 ADD PUSH1 0xA DUP3 ADD DUP1 SLOAD DUP1 PUSH1 0x20 MUL PUSH1 0x20 ADD PUSH1 0x40 MLOAD SWAP1 DUP2 ADD PUSH1 0x40 MSTORE DUP1 SWAP3 SWAP2 SWAP1 DUP2 DUP2 MSTORE PUSH1 0x20 ADD DUP3 DUP1 SLOAD DUP1 ISZERO PUSH2 0x1C0B JUMPI PUSH1 0x20 MUL DUP3 ADD SWAP2 SWAP1 PUSH1 0x0 MSTORE PUSH1 0x20 PUSH1 0x0 KECCAK256 SWAP1 JUMPDEST DUP2 SLOAD DUP2 MSTORE PUSH1 0x20 ADD SWAP1 PUSH1 0x1 ADD SWAP1 DUP1 DUP4 GT PUSH2 0x1BF7 JUMPI JUMPDEST POP POP POP POP POP DUP2 MSTORE POP POP SWAP1 POP DUP2 DUP2 PUSH1 0x0 ADD MLOAD DUP3 PUSH1 0x20 ADD MLOAD DUP4 PUSH1 0x40 ADD MLOAD DUP5 PUSH1 0x60 ADD MLOAD DUP6 PUSH1 0x80 ADD MLOAD DUP7 PUSH1 0xA0 ADD MLOAD DUP8 PUSH1 0xC0 ADD MLOAD DUP9 PUSH1 0xE0 ADD MLOAD DUP10 PUSH2 0x100 ADD MLOAD SWAP12 POP SWAP12 POP SWAP12 POP SWAP12 POP SWAP12 POP SWAP12 POP SWAP12 POP SWAP12 POP SWAP12 POP SWAP12 POP POP POP PUSH2 0x1EA6 JUMP JUMPDEST PUSH1 0x0 PUSH1 0xCD PUSH1 0x0 DUP15 DUP2 MSTORE PUSH1 0x20 ADD SWAP1 DUP2 MSTORE PUSH1 0x20 ADD PUSH1 0x0 KECCAK256 PUSH1 0x40 MLOAD DUP1 PUSH1 0xE0 ADD PUSH1 0x40 MSTORE SWAP1 DUP2 PUSH1 0x0 DUP3 ADD DUP1 SLOAD PUSH2 0x1C90 SWAP1 PUSH2 0x4BDD JUMP JUMPDEST DUP1 PUSH1 0x1F ADD PUSH1 0x20 DUP1 SWAP2 DIV MUL PUSH1 0x20 ADD PUSH1 0x40 MLOAD SWAP1 DUP2 ADD PUSH1 0x40 MSTORE DUP1 SWAP3 SWAP2 SWAP1 DUP2 DUP2 MSTORE PUSH1 0x20 ADD DUP3 DUP1 SLOAD PUSH2 0x1CBC SWAP1 PUSH2 0x4BDD JUMP JUMPDEST DUP1 ISZERO PUSH2 0x1D09 JUMPI DUP1 PUSH1 0x1F LT PUSH2 0x1CDE JUMPI PUSH2 0x100 DUP1 DUP4 SLOAD DIV MUL DUP4 MSTORE SWAP2 PUSH1 0x20 ADD SWAP2 PUSH2 0x1D09 JUMP JUMPDEST DUP3 ADD SWAP2 SWAP1 PUSH1 0x0 MSTORE PUSH1 0x20 PUSH1 0x0 KECCAK256 SWAP1 JUMPDEST DUP2 SLOAD DUP2 MSTORE SWAP1 PUSH1 0x1 ADD SWAP1 PUSH1 0x20 ADD DUP1 DUP4 GT PUSH2 0x1CEC JUMPI DUP3 SWAP1 SUB PUSH1 0x1F AND DUP3 ADD SWAP2 JUMPDEST POP POP POP POP POP DUP2 MSTORE PUSH1 0x20 ADD PUSH1 0x1 DUP3 ADD SLOAD DUP2 MSTORE PUSH1 0x20 ADD PUSH1 0x2 DUP3 ADD SLOAD DUP2 MSTORE PUSH1 0x20 ADD PUSH1 0x3 DUP3 ADD PUSH1 0x0 SWAP1 SLOAD SWAP1 PUSH2 0x100 EXP SWAP1 DIV PUSH20 0xFFFFFFFFFFFFFFFFFFFFFFFFFFFFFFFFFFFFFFFF AND PUSH20 0xFFFFFFFFFFFFFFFFFFFFFFFFFFFFFFFFFFFFFFFF AND PUSH20 0xFFFFFFFFFFFFFFFFFFFFFFFFFFFFFFFFFFFFFFFF AND DUP2 MSTORE PUSH1 0x20 ADD PUSH1 0x4 DUP3 ADD SLOAD DUP2 MSTORE PUSH1 0x20 ADD PUSH1 0x5 DUP3 ADD DUP1 SLOAD DUP1 PUSH1 0x20 MUL PUSH1 0x20 ADD PUSH1 0x40 MLOAD SWAP1 DUP2 ADD PUSH1 0x40 MSTORE DUP1 SWAP3 SWAP2 SWAP1 DUP2 DUP2 MSTORE PUSH1 0x20 ADD DUP3 DUP1 SLOAD DUP1 ISZERO PUSH2 0x1E0B JUMPI PUSH1 0x20 MUL DUP3 ADD SWAP2 SWAP1 PUSH1 0x0 MSTORE PUSH1 0x20 PUSH1 0x0 KECCAK256 SWAP1 JUMPDEST DUP2 PUSH1 0x0 SWAP1 SLOAD SWAP1 PUSH2 0x100 EXP SWAP1 DIV PUSH20 0xFFFFFFFFFFFFFFFFFFFFFFFFFFFFFFFFFFFFFFFF AND PUSH20 0xFFFFFFFFFFFFFFFFFFFFFFFFFFFFFFFFFFFFFFFF AND DUP2 MSTORE PUSH1 0x20 ADD SWAP1 PUSH1 0x1 ADD SWAP1 DUP1 DUP4 GT PUSH2 0x1DC1 JUMPI JUMPDEST POP POP POP POP POP DUP2 MSTORE PUSH1 0x20 ADD PUSH1 0x6 DUP3 ADD DUP1 SLOAD DUP1 PUSH1 0x20 MUL PUSH1 0x20 ADD PUSH1 0x40 MLOAD SWAP1 DUP2 ADD PUSH1 0x40 MSTORE DUP1 SWAP3 SWAP2 SWAP1 DUP2 DUP2 MSTORE PUSH1 0x20 ADD DUP3 DUP1 SLOAD DUP1 ISZERO PUSH2 0x1E63 JUMPI PUSH1 0x20 MUL DUP3 ADD SWAP2 SWAP1 PUSH1 0x0 MSTORE PUSH1 0x20 PUSH1 0x0 KECCAK256 SWAP1 JUMPDEST DUP2 SLOAD DUP2 MSTORE PUSH1 0x20 ADD SWAP1 PUSH1 0x1 ADD SWAP1 DUP1 DUP4 GT PUSH2 0x1E4F JUMPI JUMPDEST POP POP POP POP POP DUP2 MSTORE POP POP SWAP1 POP DUP2 DUP2 PUSH1 0x0 ADD MLOAD DUP3 PUSH1 0x20 ADD MLOAD DUP4 PUSH1 0x40 ADD MLOAD PUSH1 0x0 DUP1 PUSH1 0x0 DUP8 PUSH1 0x60 ADD MLOAD DUP9 PUSH1 0x80 ADD MLOAD PUSH1 0x0 SWAP12 POP SWAP12 POP SWAP12 POP SWAP12 POP SWAP12 POP SWAP12 POP SWAP12 POP SWAP12 POP SWAP12 POP SWAP12 POP POP POP JUMPDEST SWAP2 SWAP4 SWAP6 SWAP8 SWAP10 POP SWAP2 SWAP4 SWAP6 SWAP8 SWAP10 JUMP JUMPDEST PUSH1 0x0 DUP1 PUSH1 0x1 SWAP1 SLOAD SWAP1 PUSH2 0x100 EXP SWAP1 DIV PUSH1 0xFF AND ISZERO SWAP1 POP DUP1 DUP1 ISZERO PUSH2 0x1EE4 JUMPI POP PUSH1 0x1 PUSH1 0x0 DUP1 SLOAD SWAP1 PUSH2 0x100 EXP SWAP1 DIV PUSH1 0xFF AND PUSH1 0xFF AND LT JUMPDEST DUP1 PUSH2 0x1F11 JUMPI POP PUSH2 0x1EF3 ADDRESS PUSH2 0x30BE JUMP JUMPDEST ISZERO DUP1 ISZERO PUSH2 0x1F10 JUMPI POP PUSH1 0x1 PUSH1 0x0 DUP1 SLOAD SWAP1 PUSH2 0x100 EXP SWAP1 DIV PUSH1 0xFF AND PUSH1 0xFF AND EQ JUMPDEST JUMPDEST PUSH2 0x1F50 JUMPI PUSH1 0x40 MLOAD PUSH32 0x8C379A000000000000000000000000000000000000000000000000000000000 DUP2 MSTORE PUSH1 0x4 ADD PUSH2 0x1F47 SWAP1 PUSH2 0x54E9 JUMP JUMPDEST PUSH1 0x40 MLOAD DUP1 SWAP2 SUB SWAP1 REVERT JUMPDEST PUSH1 0x1 PUSH1 0x0 DUP1 PUSH2 0x100 EXP DUP2 SLOAD DUP2 PUSH1 0xFF MUL NOT AND SWAP1 DUP4 PUSH1 0xFF AND MUL OR SWAP1 SSTORE POP DUP1 ISZERO PUSH2 0x1F8D JUMPI PUSH1 0x1 PUSH1 0x0 PUSH1 0x1 PUSH2 0x100 EXP DUP2 SLOAD DUP2 PUSH1 0xFF MUL NOT AND SWAP1 DUP4 ISZERO ISZERO MUL OR SWAP1 SSTORE POP JUMPDEST PUSH2 0x1F95 PUSH2 0x30E1 JUMP JUMPDEST PUSH2 0x1F9D PUSH2 0x313A JUMP JUMPDEST DUP3 PUSH1 0xC9 SWAP1 DUP2 PUSH2 0x1FAC SWAP2 SWAP1 PUSH2 0x4DBA JUMP JUMPDEST POP PUSH2 0x1FC1 PUSH1 0x0 DUP1 SHL PUSH2 0x1FBC PUSH2 0x2C62 JUMP JUMPDEST PUSH2 0x318B JUMP JUMPDEST PUSH2 0x1FF2 PUSH32 0x64ED6499E2F5A7EA55DFD56DA361BF9D48064843BB3891C36F1DABD9BA246135 PUSH2 0x1FED PUSH2 0x2C62 JUMP JUMPDEST PUSH2 0x318B JUMP JUMPDEST DUP2 PUSH1 0xCB PUSH1 0x0 PUSH2 0x100 EXP DUP2 SLOAD DUP2 PUSH20 0xFFFFFFFFFFFFFFFFFFFFFFFFFFFFFFFFFFFFFFFF MUL NOT AND SWAP1 DUP4 PUSH20 0xFFFFFFFFFFFFFFFFFFFFFFFFFFFFFFFFFFFFFFFF AND MUL OR SWAP1 SSTORE POP DUP1 ISZERO PUSH2 0x208C JUMPI PUSH1 0x0 DUP1 PUSH1 0x1 PUSH2 0x100 EXP DUP2 SLOAD DUP2 PUSH1 0xFF MUL NOT AND SWAP1 DUP4 ISZERO ISZERO MUL OR SWAP1 SSTORE POP PUSH32 0x7F26B83FF96E1F2B6A682F133852F6798A09C465DA95921460CEFB3847402498 PUSH1 0x1 PUSH1 0x40 MLOAD PUSH2 0x2083 SWAP2 SWAP1 PUSH2 0x5551 JUMP JUMPDEST PUSH1 0x40 MLOAD DUP1 SWAP2 SUB SWAP1 LOG1 JUMPDEST POP POP POP JUMP JUMPDEST PUSH1 0x0 PUSH1 0x97 PUSH1 0x0 DUP5 DUP2 MSTORE PUSH1 0x20 ADD SWAP1 DUP2 MSTORE PUSH1 0x20 ADD PUSH1 0x0 KECCAK256 PUSH1 0x0 ADD PUSH1 0x0 DUP4 PUSH20 0xFFFFFFFFFFFFFFFFFFFFFFFFFFFFFFFFFFFFFFFF AND PUSH20 0xFFFFFFFFFFFFFFFFFFFFFFFFFFFFFFFFFFFFFFFF AND DUP2 MSTORE PUSH1 0x20 ADD SWAP1 DUP2 MSTORE PUSH1 0x20 ADD PUSH1 0x0 KECCAK256 PUSH1 0x0 SWAP1 SLOAD SWAP1 PUSH2 0x100 EXP SWAP1 DIV PUSH1 0xFF AND SWAP1 POP SWAP3 SWAP2 POP POP JUMP JUMPDEST PUSH1 0x2 PUSH1 0x1 SLOAD SUB PUSH2 0x2141 JUMPI PUSH1 0x40 MLOAD PUSH32 0x8C379A000000000000000000000000000000000000000000000000000000000 DUP2 MSTORE PUSH1 0x4 ADD PUSH2 0x2138 SWAP1 PUSH2 0x45BA JUMP JUMPDEST PUSH1 0x40 MLOAD DUP1 SWAP2 SUB SWAP1 REVERT JUMPDEST PUSH1 0x2 PUSH1 0x1 DUP2 SWAP1 SSTORE POP PUSH1 0x0 PUSH1 0xD1 PUSH1 0x0 DUP4 DUP2 MSTORE PUSH1 0x20 ADD SWAP1 DUP2 MSTORE PUSH1 0x20 ADD PUSH1 0x0 KECCAK256 PUSH1 0x0 PUSH2 0x2168 PUSH2 0x2C62 JUMP JUMPDEST PUSH20 0xFFFFFFFFFFFFFFFFFFFFFFFFFFFFFFFFFFFFFFFF AND PUSH20 0xFFFFFFFFFFFFFFFFFFFFFFFFFFFFFFFFFFFFFFFF AND DUP2 MSTORE PUSH1 0x20 ADD SWAP1 DUP2 MSTORE PUSH1 0x20 ADD PUSH1 0x0 KECCAK256 SWAP1 POP TIMESTAMP PUSH1 0xCE PUSH1 0x0 DUP5 DUP2 MSTORE PUSH1 0x20 ADD SWAP1 DUP2 MSTORE PUSH1 0x20 ADD PUSH1 0x0 KECCAK256 PUSH1 0x5 ADD SLOAD LT PUSH2 0x21FC JUMPI PUSH1 0x40 MLOAD PUSH32 0x8C379A000000000000000000000000000000000000000000000000000000000 DUP2 MSTORE PUSH1 0x4 ADD PUSH2 0x21F3 SWAP1 PUSH2 0x55DE JUMP JUMPDEST PUSH1 0x40 MLOAD DUP1 SWAP2 SUB SWAP1 REVERT JUMPDEST PUSH1 0x0 PUSH2 0x220F DUP4 PUSH2 0x220A PUSH2 0x2C62 JUMP JUMPDEST PUSH2 0x25CB JUMP JUMPDEST SWAP1 POP PUSH1 0x0 DUP3 PUSH1 0x2 ADD SLOAD DUP3 PUSH2 0x2223 SWAP2 SWAP1 PUSH2 0x4AFE JUMP JUMPDEST SWAP1 POP PUSH1 0x0 DUP3 GT PUSH2 0x2268 JUMPI PUSH1 0x40 MLOAD PUSH32 0x8C379A000000000000000000000000000000000000000000000000000000000 DUP2 MSTORE PUSH1 0x4 ADD PUSH2 0x225F SWAP1 PUSH2 0x51F4 JUMP JUMPDEST PUSH1 0x40 MLOAD DUP1 SWAP2 SUB SWAP1 REVERT JUMPDEST PUSH2 0x22D0 PUSH2 0x2273 PUSH2 0x2C62 JUMP JUMPDEST DUP4 PUSH1 0xCE PUSH1 0x0 DUP9 DUP2 MSTORE PUSH1 0x20 ADD SWAP1 DUP2 MSTORE PUSH1 0x20 ADD PUSH1 0x0 KECCAK256 PUSH1 0x6 ADD PUSH1 0x0 SWAP1 SLOAD SWAP1 PUSH2 0x100 EXP SWAP1 DIV PUSH20 0xFFFFFFFFFFFFFFFFFFFFFFFFFFFFFFFFFFFFFFFF AND PUSH20 0xFFFFFFFFFFFFFFFFFFFFFFFFFFFFFFFFFFFFFFFF AND PUSH2 0x3038 SWAP1 SWAP3 SWAP2 SWAP1 PUSH4 0xFFFFFFFF AND JUMP JUMPDEST PUSH1 0x0 DUP2 DUP5 PUSH1 0x1 ADD SLOAD PUSH2 0x22E2 SWAP2 SWAP1 PUSH2 0x4B32 JUMP JUMPDEST SWAP1 POP DUP2 DUP5 PUSH1 0x2 ADD DUP2 SWAP1 SSTORE POP DUP1 DUP5 PUSH1 0x4 ADD DUP2 SWAP1 SSTORE POP TIMESTAMP DUP5 PUSH1 0x6 ADD DUP2 SWAP1 SSTORE POP PUSH2 0x2307 PUSH2 0x2C62 JUMP JUMPDEST PUSH20 0xFFFFFFFFFFFFFFFFFFFFFFFFFFFFFFFFFFFFFFFF AND DUP6 PUSH32 0xE17A4E28C1E671D625028150B4EBB254CB9BAB36831D7AD13F442C63BC336E72 DUP6 DUP5 PUSH1 0x40 MLOAD PUSH2 0x234F SWAP3 SWAP2 SWAP1 PUSH2 0x5214 JUMP JUMPDEST PUSH1 0x40 MLOAD DUP1 SWAP2 SUB SWAP1 LOG3 POP POP POP POP PUSH1 0x1 DUP1 DUP2 SWAP1 SSTORE POP POP JUMP JUMPDEST PUSH1 0xCF PUSH1 0x20 MSTORE DUP2 PUSH1 0x0 MSTORE PUSH1 0x40 PUSH1 0x0 KECCAK256 PUSH1 0x20 MSTORE DUP1 PUSH1 0x0 MSTORE PUSH1 0x40 PUSH1 0x0 KECCAK256 PUSH1 0x0 SWAP2 POP SWAP2 POP POP DUP1 PUSH1 0x0 ADD SLOAD SWAP1 DUP1 PUSH1 0x1 ADD SLOAD SWAP1 DUP1 PUSH1 0x2 ADD SLOAD SWAP1 DUP1 PUSH1 0x3 ADD SLOAD SWAP1 DUP1 PUSH1 0x4 ADD SLOAD SWAP1 POP DUP6 JUMP JUMPDEST PUSH2 0x23BC PUSH1 0x0 DUP1 SHL PUSH2 0x23B7 PUSH2 0x2C62 JUMP JUMPDEST PUSH2 0x2091 JUMP JUMPDEST PUSH2 0x23FB JUMPI PUSH1 0x40 MLOAD PUSH32 0x8C379A000000000000000000000000000000000000000000000000000000000 DUP2 MSTORE PUSH1 0x4 ADD PUSH2 0x23F2 SWAP1 PUSH2 0x53C5 JUMP JUMPDEST PUSH1 0x40 MLOAD DUP1 SWAP2 SUB SWAP1 REVERT JUMPDEST PUSH2 0x242D PUSH2 0x2406 PUSH2 0x2C62 JUMP JUMPDEST DUP3 DUP5 PUSH20 0xFFFFFFFFFFFFFFFFFFFFFFFFFFFFFFFFFFFFFFFF AND PUSH2 0x3038 SWAP1 SWAP3 SWAP2 SWAP1 PUSH4 0xFFFFFFFF AND JUMP JUMPDEST POP POP JUMP JUMPDEST PUSH1 0x0 DUP1 PUSH1 0x0 PUSH1 0xCF PUSH1 0x0 DUP7 DUP2 MSTORE PUSH1 0x20 ADD SWAP1 DUP2 MSTORE PUSH1 0x20 ADD PUSH1 0x0 KECCAK256 PUSH1 0x0 DUP6 PUSH20 0xFFFFFFFFFFFFFFFFFFFFFFFFFFFFFFFFFFFFFFFF AND PUSH20 0xFFFFFFFFFFFFFFFFFFFFFFFFFFFFFFFFFFFFFFFF AND DUP2 MSTORE PUSH1 0x20 ADD SWAP1 DUP2 MSTORE PUSH1 0x20 ADD PUSH1 0x0 KECCAK256 PUSH1 0x40 MLOAD DUP1 PUSH1 0xA0 ADD PUSH1 0x40 MSTORE SWAP1 DUP2 PUSH1 0x0 DUP3 ADD SLOAD DUP2 MSTORE PUSH1 0x20 ADD PUSH1 0x1 DUP3 ADD SLOAD DUP2 MSTORE PUSH1 0x20 ADD PUSH1 0x2 DUP3 ADD SLOAD DUP2 MSTORE PUSH1 0x20 ADD PUSH1 0x3 DUP3 ADD SLOAD DUP2 MSTORE PUSH1 0x20 ADD PUSH1 0x4 DUP3 ADD SLOAD DUP2 MSTORE POP POP SWAP1 POP PUSH1 0x0 DUP2 PUSH1 0x0 ADD MLOAD GT PUSH2 0x250C JUMPI PUSH1 0x40 MLOAD PUSH32 0x8C379A000000000000000000000000000000000000000000000000000000000 DUP2 MSTORE PUSH1 0x4 ADD PUSH2 0x2503 SWAP1 PUSH2 0x5670 JUMP JUMPDEST PUSH1 0x40 MLOAD DUP1 SWAP2 SUB SWAP1 REVERT JUMPDEST TIMESTAMP PUSH1 0xCD PUSH1 0x0 DUP8 DUP2 MSTORE PUSH1 0x20 ADD SWAP1 DUP2 MSTORE PUSH1 0x20 ADD PUSH1 0x0 KECCAK256 PUSH1 0x2 ADD SLOAD GT PUSH2 0x2535 JUMPI DUP1 PUSH1 0x40 ADD MLOAD SWAP2 POP PUSH2 0x2575 JUMP JUMPDEST TIMESTAMP PUSH1 0xCD PUSH1 0x0 DUP8 DUP2 MSTORE PUSH1 0x20 ADD SWAP1 DUP2 MSTORE PUSH1 0x20 ADD PUSH1 0x0 KECCAK256 PUSH1 0x2 ADD SLOAD LT PUSH2 0x2574 JUMPI DUP1 PUSH1 0x80 ADD MLOAD DUP2 PUSH1 0x60 ADD MLOAD TIMESTAMP PUSH2 0x2567 SWAP2 SWAP1 PUSH2 0x4B32 JUMP JUMPDEST PUSH2 0x2571 SWAP2 SWAP1 PUSH2 0x4A5C JUMP JUMPDEST SWAP2 POP JUMPDEST JUMPDEST DUP2 SWAP3 POP POP POP SWAP3 SWAP2 POP POP JUMP JUMPDEST PUSH1 0x0 DUP1 SHL DUP2 JUMP JUMPDEST PUSH32 0x64ED6499E2F5A7EA55DFD56DA361BF9D48064843BB3891C36F1DABD9BA246135 DUP2 JUMP JUMPDEST PUSH1 0xD2 PUSH1 0x20 MSTORE DUP1 PUSH1 0x0 MSTORE PUSH1 0x40 PUSH1 0x0 KECCAK256 PUSH1 0x0 SWAP2 POP SLOAD SWAP1 PUSH2 0x100 EXP SWAP1 DIV PUSH1 0xFF AND DUP2 JUMP JUMPDEST PUSH1 0x0 DUP1 PUSH1 0x0 PUSH1 0xD1 PUSH1 0x0 DUP7 DUP2 MSTORE PUSH1 0x20 ADD SWAP1 DUP2 MSTORE PUSH1 0x20 ADD PUSH1 0x0 KECCAK256 PUSH1 0x0 DUP6 PUSH20 0xFFFFFFFFFFFFFFFFFFFFFFFFFFFFFFFFFFFFFFFF AND PUSH20 0xFFFFFFFFFFFFFFFFFFFFFFFFFFFFFFFFFFFFFFFF AND DUP2 MSTORE PUSH1 0x20 ADD SWAP1 DUP2 MSTORE PUSH1 0x20 ADD PUSH1 0x0 KECCAK256 PUSH1 0x40 MLOAD DUP1 PUSH1 0xE0 ADD PUSH1 0x40 MSTORE SWAP1 DUP2 PUSH1 0x0 DUP3 ADD SLOAD DUP2 MSTORE PUSH1 0x20 ADD PUSH1 0x1 DUP3 ADD SLOAD DUP2 MSTORE PUSH1 0x20 ADD PUSH1 0x2 DUP3 ADD SLOAD DUP2 MSTORE PUSH1 0x20 ADD PUSH1 0x3 DUP3 ADD SLOAD DUP2 MSTORE PUSH1 0x20 ADD PUSH1 0x4 DUP3 ADD SLOAD DUP2 MSTORE PUSH1 0x20 ADD PUSH1 0x5 DUP3 ADD SLOAD DUP2 MSTORE PUSH1 0x20 ADD PUSH1 0x6 DUP3 ADD SLOAD DUP2 MSTORE POP POP SWAP1 POP PUSH1 0x0 DUP2 PUSH1 0x0 ADD MLOAD GT PUSH2 0x26BA JUMPI PUSH1 0x40 MLOAD PUSH32 0x8C379A000000000000000000000000000000000000000000000000000000000 DUP2 MSTORE PUSH1 0x4 ADD PUSH2 0x26B1 SWAP1 PUSH2 0x5670 JUMP JUMPDEST PUSH1 0x40 MLOAD DUP1 SWAP2 SUB SWAP1 REVERT JUMPDEST TIMESTAMP PUSH1 0xCE PUSH1 0x0 DUP8 DUP2 MSTORE PUSH1 0x20 ADD SWAP1 DUP2 MSTORE PUSH1 0x20 ADD PUSH1 0x0 KECCAK256 PUSH1 0x5 ADD SLOAD GT PUSH2 0x2723 JUMPI TIMESTAMP PUSH1 0xCE PUSH1 0x0 DUP8 DUP2 MSTORE PUSH1 0x20 ADD SWAP1 DUP2 MSTORE PUSH1 0x20 ADD PUSH1 0x0 KECCAK256 PUSH1 0x2 ADD SLOAD LT PUSH2 0x271A JUMPI DUP1 PUSH1 0xA0 ADD MLOAD DUP2 PUSH1 0xC0 ADD MLOAD TIMESTAMP PUSH2 0x2709 SWAP2 SWAP1 PUSH2 0x4B32 JUMP JUMPDEST PUSH2 0x2713 SWAP2 SWAP1 PUSH2 0x4A5C JUMP JUMPDEST SWAP2 POP PUSH2 0x2722 JUMP JUMPDEST DUP1 PUSH1 0x80 ADD MLOAD SWAP2 POP JUMPDEST JUMPDEST DUP2 SWAP3 POP POP POP SWAP3 SWAP2 POP POP JUMP JUMPDEST PUSH2 0x2737 DUP3 PUSH2 0xF4D JUMP JUMPDEST PUSH2 0x2740 DUP2 PUSH2 0x2E61 JUMP JUMPDEST PUSH2 0x274A DUP4 DUP4 PUSH2 0x2F56 JUMP JUMPDEST POP POP POP JUMP JUMPDEST PUSH1 0xC9 DUP1 SLOAD PUSH2 0x275C SWAP1 PUSH2 0x4BDD JUMP JUMPDEST DUP1 PUSH1 0x1F ADD PUSH1 0x20 DUP1 SWAP2 DIV MUL PUSH1 0x20 ADD PUSH1 0x40 MLOAD SWAP1 DUP2 ADD PUSH1 0x40 MSTORE DUP1 SWAP3 SWAP2 SWAP1 DUP2 DUP2 MSTORE PUSH1 0x20 ADD DUP3 DUP1 SLOAD PUSH2 0x2788 SWAP1 PUSH2 0x4BDD JUMP JUMPDEST DUP1 ISZERO PUSH2 0x27D5 JUMPI DUP1 PUSH1 0x1F LT PUSH2 0x27AA JUMPI PUSH2 0x100 DUP1 DUP4 SLOAD DIV MUL DUP4 MSTORE SWAP2 PUSH1 0x20 ADD SWAP2 PUSH2 0x27D5 JUMP JUMPDEST DUP3 ADD SWAP2 SWAP1 PUSH1 0x0 MSTORE PUSH1 0x20 PUSH1 0x0 KECCAK256 SWAP1 JUMPDEST DUP2 SLOAD DUP2 MSTORE SWAP1 PUSH1 0x1 ADD SWAP1 PUSH1 0x20 ADD DUP1 DUP4 GT PUSH2 0x27B8 JUMPI DUP3 SWAP1 SUB PUSH1 0x1F AND DUP3 ADD SWAP2 JUMPDEST POP POP POP POP POP DUP2 JUMP JUMPDEST PUSH1 0x0 DUP1 PUSH1 0x0 PUSH1 0xD0 PUSH1 0x0 DUP7 DUP2 MSTORE PUSH1 0x20 ADD SWAP1 DUP2 MSTORE PUSH1 0x20 ADD PUSH1 0x0 KECCAK256 PUSH1 0x0 DUP6 PUSH20 0xFFFFFFFFFFFFFFFFFFFFFFFFFFFFFFFFFFFFFFFF AND PUSH20 0xFFFFFFFFFFFFFFFFFFFFFFFFFFFFFFFFFFFFFFFF AND DUP2 MSTORE PUSH1 0x20 ADD SWAP1 DUP2 MSTORE PUSH1 0x20 ADD PUSH1 0x0 KECCAK256 PUSH1 0x40 MLOAD DUP1 PUSH1 0xE0 ADD PUSH1 0x40 MSTORE SWAP1 DUP2 PUSH1 0x0 DUP3 ADD SLOAD DUP2 MSTORE PUSH1 0x20 ADD PUSH1 0x1 DUP3 ADD SLOAD DUP2 MSTORE PUSH1 0x20 ADD PUSH1 0x2 DUP3 ADD SLOAD DUP2 MSTORE PUSH1 0x20 ADD PUSH1 0x3 DUP3 ADD SLOAD DUP2 MSTORE PUSH1 0x20 ADD PUSH1 0x4 DUP3 ADD SLOAD DUP2 MSTORE PUSH1 0x20 ADD PUSH1 0x5 DUP3 ADD SLOAD DUP2 MSTORE PUSH1 0x20 ADD PUSH1 0x6 DUP3 ADD SLOAD DUP2 MSTORE POP POP SWAP1 POP PUSH1 0x0 DUP2 PUSH1 0x0 ADD MLOAD GT PUSH2 0x28CC JUMPI PUSH1 0x40 MLOAD PUSH32 0x8C379A000000000000000000000000000000000000000000000000000000000 DUP2 MSTORE PUSH1 0x4 ADD PUSH2 0x28C3 SWAP1 PUSH2 0x5670 JUMP JUMPDEST PUSH1 0x40 MLOAD DUP1 SWAP2 SUB SWAP1 REVERT JUMPDEST TIMESTAMP PUSH1 0xCE PUSH1 0x0 DUP8 DUP2 MSTORE PUSH1 0x20 ADD SWAP1 DUP2 MSTORE PUSH1 0x20 ADD PUSH1 0x0 KECCAK256 PUSH1 0x5 ADD SLOAD GT PUSH2 0x2935 JUMPI TIMESTAMP PUSH1 0xCE PUSH1 0x0 DUP8 DUP2 MSTORE PUSH1 0x20 ADD SWAP1 DUP2 MSTORE PUSH1 0x20 ADD PUSH1 0x0 KECCAK256 PUSH1 0x3 ADD SLOAD LT PUSH2 0x292C JUMPI DUP1 PUSH1 0xA0 ADD MLOAD DUP2 PUSH1 0xC0 ADD MLOAD TIMESTAMP PUSH2 0x291B SWAP2 SWAP1 PUSH2 0x4B32 JUMP JUMPDEST PUSH2 0x2925 SWAP2 SWAP1 PUSH2 0x4A5C JUMP JUMPDEST SWAP2 POP PUSH2 0x2934 JUMP JUMPDEST DUP1 PUSH1 0x80 ADD MLOAD SWAP2 POP JUMPDEST JUMPDEST DUP2 SWAP3 POP POP POP SWAP3 SWAP2 POP POP JUMP JUMPDEST PUSH1 0xD0 PUSH1 0x20 MSTORE DUP2 PUSH1 0x0 MSTORE PUSH1 0x40 PUSH1 0x0 KECCAK256 PUSH1 0x20 MSTORE DUP1 PUSH1 0x0 MSTORE PUSH1 0x40 PUSH1 0x0 KECCAK256 PUSH1 0x0 SWAP2 POP SWAP2 POP POP DUP1 PUSH1 0x0 ADD SLOAD SWAP1 DUP1 PUSH1 0x1 ADD SLOAD SWAP1 DUP1 PUSH1 0x2 ADD SLOAD SWAP1 DUP1 PUSH1 0x3 ADD SLOAD SWAP1 DUP1 PUSH1 0x4 ADD SLOAD SWAP1 DUP1 PUSH1 0x5 ADD SLOAD SWAP1 DUP1 PUSH1 0x6 ADD SLOAD SWAP1 POP DUP8 JUMP JUMPDEST PUSH1 0x2 PUSH1 0x1 SLOAD SUB PUSH2 0x29D4 JUMPI PUSH1 0x40 MLOAD PUSH32 0x8C379A000000000000000000000000000000000000000000000000000000000 DUP2 MSTORE PUSH1 0x4 ADD PUSH2 0x29CB SWAP1 PUSH2 0x45BA JUMP JUMPDEST PUSH1 0x40 MLOAD DUP1 SWAP2 SUB SWAP1 REVERT JUMPDEST PUSH1 0x2 PUSH1 0x1 DUP2 SWAP1 SSTORE POP PUSH1 0x0 PUSH1 0xD0 PUSH1 0x0 DUP4 DUP2 MSTORE PUSH1 0x20 ADD SWAP1 DUP2 MSTORE PUSH1 0x20 ADD PUSH1 0x0 KECCAK256 PUSH1 0x0 PUSH2 0x29FB PUSH2 0x2C62 JUMP JUMPDEST PUSH20 0xFFFFFFFFFFFFFFFFFFFFFFFFFFFFFFFFFFFFFFFF AND PUSH20 0xFFFFFFFFFFFFFFFFFFFFFFFFFFFFFFFFFFFFFFFF AND DUP2 MSTORE PUSH1 0x20 ADD SWAP1 DUP2 MSTORE PUSH1 0x20 ADD PUSH1 0x0 KECCAK256 SWAP1 POP TIMESTAMP PUSH1 0xCE PUSH1 0x0 DUP5 DUP2 MSTORE PUSH1 0x20 ADD SWAP1 DUP2 MSTORE PUSH1 0x20 ADD PUSH1 0x0 KECCAK256 PUSH1 0x5 ADD SLOAD LT PUSH2 0x2A8F JUMPI PUSH1 0x40 MLOAD PUSH32 0x8C379A000000000000000000000000000000000000000000000000000000000 DUP2 MSTORE PUSH1 0x4 ADD PUSH2 0x2A86 SWAP1 PUSH2 0x55DE JUMP JUMPDEST PUSH1 0x40 MLOAD DUP1 SWAP2 SUB SWAP1 REVERT JUMPDEST PUSH1 0x0 PUSH2 0x2AA2 DUP4 PUSH2 0x2A9D PUSH2 0x2C62 JUMP JUMPDEST PUSH2 0x27DD JUMP JUMPDEST SWAP1 POP PUSH1 0x0 DUP2 GT PUSH2 0x2AE7 JUMPI PUSH1 0x40 MLOAD PUSH32 0x8C379A000000000000000000000000000000000000000000000000000000000 DUP2 MSTORE PUSH1 0x4 ADD PUSH2 0x2ADE SWAP1 PUSH2 0x51F4 JUMP JUMPDEST PUSH1 0x40 MLOAD DUP1 SWAP2 SUB SWAP1 REVERT JUMPDEST PUSH2 0x2B4F PUSH2 0x2AF2 PUSH2 0x2C62 JUMP JUMPDEST DUP3 PUSH1 0xCE PUSH1 0x0 DUP8 DUP2 MSTORE PUSH1 0x20 ADD SWAP1 DUP2 MSTORE PUSH1 0x20 ADD PUSH1 0x0 KECCAK256 PUSH1 0x6 ADD PUSH1 0x0 SWAP1 SLOAD SWAP1 PUSH2 0x100 EXP SWAP1 DIV PUSH20 0xFFFFFFFFFFFFFFFFFFFFFFFFFFFFFFFFFFFFFFFF AND PUSH20 0xFFFFFFFFFFFFFFFFFFFFFFFFFFFFFFFFFFFFFFFF AND PUSH2 0x3038 SWAP1 SWAP3 SWAP2 SWAP1 PUSH4 0xFFFFFFFF AND JUMP JUMPDEST PUSH1 0x0 DUP3 PUSH1 0x2 ADD SLOAD DUP3 PUSH2 0x2B61 SWAP2 SWAP1 PUSH2 0x4AFE JUMP JUMPDEST SWAP1 POP PUSH1 0x0 DUP2 DUP5 PUSH1 0x1 ADD SLOAD PUSH2 0x2B75 SWAP2 SWAP1 PUSH2 0x4B32 JUMP JUMPDEST SWAP1 POP DUP2 DUP5 PUSH1 0x2 ADD DUP2 SWAP1 SSTORE POP DUP1 DUP5 PUSH1 0x4 ADD DUP2 SWAP1 SSTORE POP TIMESTAMP DUP5 PUSH1 0x6 ADD DUP2 SWAP1 SSTORE POP PUSH2 0x2B9A PUSH2 0x2C62 JUMP JUMPDEST PUSH20 0xFFFFFFFFFFFFFFFFFFFFFFFFFFFFFFFFFFFFFFFF AND DUP6 PUSH32 0x8C03C732A4B999ACFCEB5E117A809006980FC5A765E10C915B886AA5356ED380 DUP6 DUP5 PUSH1 0x40 MLOAD PUSH2 0x2BE2 SWAP3 SWAP2 SWAP1 PUSH2 0x5214 JUMP JUMPDEST PUSH1 0x40 MLOAD DUP1 SWAP2 SUB SWAP1 LOG3 POP POP POP POP PUSH1 0x1 DUP1 DUP2 SWAP1 SSTORE POP POP JUMP JUMPDEST PUSH1 0x0 PUSH32 0x1FFC9A700000000000000000000000000000000000000000000000000000000 PUSH28 0xFFFFFFFFFFFFFFFFFFFFFFFFFFFFFFFFFFFFFFFFFFFFFFFFFFFFFFFF NOT AND DUP3 PUSH28 0xFFFFFFFFFFFFFFFFFFFFFFFFFFFFFFFFFFFFFFFFFFFFFFFFFFFFFFFF NOT AND EQ SWAP1 POP SWAP2 SWAP1 POP JUMP JUMPDEST PUSH1 0x0 CALLER SWAP1 POP SWAP1 JUMP JUMPDEST PUSH2 0x2CED DUP5 PUSH4 0x23B872DD PUSH1 0xE0 SHL DUP6 DUP6 DUP6 PUSH1 0x40 MLOAD PUSH1 0x24 ADD PUSH2 0x2C8B SWAP4 SWAP3 SWAP2 SWAP1 PUSH2 0x5690 JUMP JUMPDEST PUSH1 0x40 MLOAD PUSH1 0x20 DUP2 DUP4 SUB SUB DUP2 MSTORE SWAP1 PUSH1 0x40 MSTORE SWAP1 PUSH28 0xFFFFFFFFFFFFFFFFFFFFFFFFFFFFFFFFFFFFFFFFFFFFFFFFFFFFFFFF NOT AND PUSH1 0x20 DUP3 ADD DUP1 MLOAD PUSH28 0xFFFFFFFFFFFFFFFFFFFFFFFFFFFFFFFFFFFFFFFFFFFFFFFFFFFFFFFF DUP4 DUP2 DUP4 AND OR DUP4 MSTORE POP POP POP POP PUSH2 0x3199 JUMP JUMPDEST POP POP POP POP JUMP JUMPDEST PUSH1 0x0 DUP1 DUP5 DUP5 DUP5 CHAINID PUSH1 0x40 MLOAD PUSH1 0x20 ADD PUSH2 0x2D0D SWAP5 SWAP4 SWAP3 SWAP2 SWAP1 PUSH2 0x57B3 JUMP JUMPDEST PUSH1 0x40 MLOAD PUSH1 0x20 DUP2 DUP4 SUB SUB DUP2 MSTORE SWAP1 PUSH1 0x40 MSTORE DUP1 MLOAD SWAP1 PUSH1 0x20 ADD KECCAK256 SWAP1 POP DUP1 SWAP2 POP POP SWAP4 SWAP3 POP POP POP JUMP JUMPDEST PUSH1 0x0 DUP1 PUSH1 0x0 PUSH1 0x41 DUP5 MLOAD EQ PUSH2 0x2D79 JUMPI PUSH1 0x40 MLOAD PUSH32 0x8C379A000000000000000000000000000000000000000000000000000000000 DUP2 MSTORE PUSH1 0x4 ADD PUSH2 0x2D70 SWAP1 PUSH2 0x5845 JUMP JUMPDEST PUSH1 0x40 MLOAD DUP1 SWAP2 SUB SWAP1 REVERT JUMPDEST PUSH1 0x20 DUP5 ADD MLOAD SWAP3 POP PUSH1 0x40 DUP5 ADD MLOAD SWAP2 POP PUSH1 0x60 DUP5 ADD MLOAD PUSH1 0x0 BYTE SWAP1 POP SWAP2 SWAP4 SWAP1 SWAP3 POP JUMP JUMPDEST PUSH1 0x0 DUP1 PUSH1 0x40 MLOAD DUP1 PUSH1 0x40 ADD PUSH1 0x40 MSTORE DUP1 PUSH1 0x1C DUP2 MSTORE PUSH1 0x20 ADD PUSH32 0x19457468657265756D205369676E6564204D6573736167653A0A333200000000 DUP2 MSTORE POP SWAP1 POP PUSH1 0x0 DUP2 DUP8 PUSH1 0x40 MLOAD PUSH1 0x20 ADD PUSH2 0x2DE8 SWAP3 SWAP2 SWAP1 PUSH2 0x5886 JUMP JUMPDEST PUSH1 0x40 MLOAD PUSH1 0x20 DUP2 DUP4 SUB SUB DUP2 MSTORE SWAP1 PUSH1 0x40 MSTORE DUP1 MLOAD SWAP1 PUSH1 0x20 ADD KECCAK256 SWAP1 POP PUSH1 0x0 PUSH1 0x1 DUP3 DUP9 DUP9 DUP9 PUSH1 0x40 MLOAD PUSH1 0x0 DUP2 MSTORE PUSH1 0x20 ADD PUSH1 0x40 MSTORE PUSH1 0x40 MLOAD PUSH2 0x2E25 SWAP5 SWAP4 SWAP3 SWAP2 SWAP1 PUSH2 0x58BD JUMP JUMPDEST PUSH1 0x20 PUSH1 0x40 MLOAD PUSH1 0x20 DUP2 SUB SWAP1 DUP1 DUP5 SUB SWAP1 DUP6 GAS STATICCALL ISZERO DUP1 ISZERO PUSH2 0x2E47 JUMPI RETURNDATASIZE PUSH1 0x0 DUP1 RETURNDATACOPY RETURNDATASIZE PUSH1 0x0 REVERT JUMPDEST POP POP POP PUSH1 0x20 PUSH1 0x40 MLOAD SUB MLOAD SWAP1 POP DUP1 SWAP4 POP POP POP POP SWAP5 SWAP4 POP POP POP POP JUMP JUMPDEST PUSH2 0x2E72 DUP2 PUSH2 0x2E6D PUSH2 0x2C62 JUMP JUMPDEST PUSH2 0x3260 JUMP JUMPDEST POP JUMP JUMPDEST PUSH2 0x2E7F DUP3 DUP3 PUSH2 0x2091 JUMP JUMPDEST PUSH2 0x2F52 JUMPI PUSH1 0x1 PUSH1 0x97 PUSH1 0x0 DUP5 DUP2 MSTORE PUSH1 0x20 ADD SWAP1 DUP2 MSTORE PUSH1 0x20 ADD PUSH1 0x0 KECCAK256 PUSH1 0x0 ADD PUSH1 0x0 DUP4 PUSH20 0xFFFFFFFFFFFFFFFFFFFFFFFFFFFFFFFFFFFFFFFF AND PUSH20 0xFFFFFFFFFFFFFFFFFFFFFFFFFFFFFFFFFFFFFFFF AND DUP2 MSTORE PUSH1 0x20 ADD SWAP1 DUP2 MSTORE PUSH1 0x20 ADD PUSH1 0x0 KECCAK256 PUSH1 0x0 PUSH2 0x100 EXP DUP2 SLOAD DUP2 PUSH1 0xFF MUL NOT AND SWAP1 DUP4 ISZERO ISZERO MUL OR SWAP1 SSTORE POP PUSH2 0x2EF7 PUSH2 0x2C62 JUMP JUMPDEST PUSH20 0xFFFFFFFFFFFFFFFFFFFFFFFFFFFFFFFFFFFFFFFF AND DUP2 PUSH20 0xFFFFFFFFFFFFFFFFFFFFFFFFFFFFFFFFFFFFFFFF AND DUP4 PUSH32 0x2F8788117E7EFF1D82E926EC794901D17C78024A50270940304540A733656F0D PUSH1 0x40 MLOAD PUSH1 0x40 MLOAD DUP1 SWAP2 SUB SWAP1 LOG4 JUMPDEST POP POP JUMP JUMPDEST PUSH2 0x2F60 DUP3 DUP3 PUSH2 0x2091 JUMP JUMPDEST ISZERO PUSH2 0x3034 JUMPI PUSH1 0x0 PUSH1 0x97 PUSH1 0x0 DUP5 DUP2 MSTORE PUSH1 0x20 ADD SWAP1 DUP2 MSTORE PUSH1 0x20 ADD PUSH1 0x0 KECCAK256 PUSH1 0x0 ADD PUSH1 0x0 DUP4 PUSH20 0xFFFFFFFFFFFFFFFFFFFFFFFFFFFFFFFFFFFFFFFF AND PUSH20 0xFFFFFFFFFFFFFFFFFFFFFFFFFFFFFFFFFFFFFFFF AND DUP2 MSTORE PUSH1 0x20 ADD SWAP1 DUP2 MSTORE PUSH1 0x20 ADD PUSH1 0x0 KECCAK256 PUSH1 0x0 PUSH2 0x100 EXP DUP2 SLOAD DUP2 PUSH1 0xFF MUL NOT AND SWAP1 DUP4 ISZERO ISZERO MUL OR SWAP1 SSTORE POP PUSH2 0x2FD9 PUSH2 0x2C62 JUMP JUMPDEST PUSH20 0xFFFFFFFFFFFFFFFFFFFFFFFFFFFFFFFFFFFFFFFF AND DUP2 PUSH20 0xFFFFFFFFFFFFFFFFFFFFFFFFFFFFFFFFFFFFFFFF AND DUP4 PUSH32 0xF6391F5C32D9C69D2A47EA670B442974B53935D1EDC7FD64EB21E047A839171B PUSH1 0x40 MLOAD PUSH1 0x40 MLOAD DUP1 SWAP2 SUB SWAP1 LOG4 JUMPDEST POP POP JUMP JUMPDEST PUSH2 0x30B9 DUP4 PUSH4 0xA9059CBB PUSH1 0xE0 SHL DUP5 DUP5 PUSH1 0x40 MLOAD PUSH1 0x24 ADD PUSH2 0x3057 SWAP3 SWAP2 SWAP1 PUSH2 0x5902 JUMP JUMPDEST PUSH1 0x40 MLOAD PUSH1 0x20 DUP2 DUP4 SUB SUB DUP2 MSTORE SWAP1 PUSH1 0x40 MSTORE SWAP1 PUSH28 0xFFFFFFFFFFFFFFFFFFFFFFFFFFFFFFFFFFFFFFFFFFFFFFFFFFFFFFFF NOT AND PUSH1 0x20 DUP3 ADD DUP1 MLOAD PUSH28 0xFFFFFFFFFFFFFFFFFFFFFFFFFFFFFFFFFFFFFFFFFFFFFFFFFFFFFFFF DUP4 DUP2 DUP4 AND OR DUP4 MSTORE POP POP POP POP PUSH2 0x3199 JUMP JUMPDEST POP POP POP JUMP JUMPDEST PUSH1 0x0 DUP1 DUP3 PUSH20 0xFFFFFFFFFFFFFFFFFFFFFFFFFFFFFFFFFFFFFFFF AND EXTCODESIZE GT SWAP1 POP SWAP2 SWAP1 POP JUMP JUMPDEST PUSH1 0x0 PUSH1 0x1 SWAP1 SLOAD SWAP1 PUSH2 0x100 EXP SWAP1 DIV PUSH1 0xFF AND PUSH2 0x3130 JUMPI PUSH1 0x40 MLOAD PUSH32 0x8C379A000000000000000000000000000000000000000000000000000000000 DUP2 MSTORE PUSH1 0x4 ADD PUSH2 0x3127 SWAP1 PUSH2 0x599D JUMP JUMPDEST PUSH1 0x40 MLOAD DUP1 SWAP2 SUB SWAP1 REVERT JUMPDEST PUSH2 0x3138 PUSH2 0x32FD JUMP JUMPDEST JUMP JUMPDEST PUSH1 0x0 PUSH1 0x1 SWAP1 SLOAD SWAP1 PUSH2 0x100 EXP SWAP1 DIV PUSH1 0xFF AND PUSH2 0x3189 JUMPI PUSH1 0x40 MLOAD PUSH32 0x8C379A000000000000000000000000000000000000000000000000000000000 DUP2 MSTORE PUSH1 0x4 ADD PUSH2 0x3180 SWAP1 PUSH2 0x599D JUMP JUMPDEST PUSH1 0x40 MLOAD DUP1 SWAP2 SUB SWAP1 REVERT JUMPDEST JUMP JUMPDEST PUSH2 0x3195 DUP3 DUP3 PUSH2 0x2E75 JUMP JUMPDEST POP POP JUMP JUMPDEST PUSH1 0x0 PUSH2 0x31FB DUP3 PUSH1 0x40 MLOAD DUP1 PUSH1 0x40 ADD PUSH1 0x40 MSTORE DUP1 PUSH1 0x20 DUP2 MSTORE PUSH1 0x20 ADD PUSH32 0x5361666545524332303A206C6F772D6C6576656C2063616C6C206661696C6564 DUP2 MSTORE POP DUP6 PUSH20 0xFFFFFFFFFFFFFFFFFFFFFFFFFFFFFFFFFFFFFFFF AND PUSH2 0x3355 SWAP1 SWAP3 SWAP2 SWAP1 PUSH4 0xFFFFFFFF AND JUMP JUMPDEST SWAP1 POP PUSH1 0x0 DUP2 MLOAD GT ISZERO PUSH2 0x325B JUMPI DUP1 DUP1 PUSH1 0x20 ADD SWAP1 MLOAD DUP2 ADD SWAP1 PUSH2 0x321B SWAP2 SWAP1 PUSH2 0x59E9 JUMP JUMPDEST PUSH2 0x325A JUMPI PUSH1 0x40 MLOAD PUSH32 0x8C379A000000000000000000000000000000000000000000000000000000000 DUP2 MSTORE PUSH1 0x4 ADD PUSH2 0x3251 SWAP1 PUSH2 0x5A88 JUMP JUMPDEST PUSH1 0x40 MLOAD DUP1 SWAP2 SUB SWAP1 REVERT JUMPDEST JUMPDEST POP POP POP JUMP JUMPDEST PUSH2 0x326A DUP3 DUP3 PUSH2 0x2091 JUMP JUMPDEST PUSH2 0x32F9 JUMPI PUSH2 0x328F DUP2 PUSH20 0xFFFFFFFFFFFFFFFFFFFFFFFFFFFFFFFFFFFFFFFF AND PUSH1 0x14 PUSH2 0x336D JUMP JUMPDEST PUSH2 0x329D DUP4 PUSH1 0x0 SHR PUSH1 0x20 PUSH2 0x336D JUMP JUMPDEST PUSH1 0x40 MLOAD PUSH1 0x20 ADD PUSH2 0x32AE SWAP3 SWAP2 SWAP1 PUSH2 0x5B40 JUMP JUMPDEST PUSH1 0x40 MLOAD PUSH1 0x20 DUP2 DUP4 SUB SUB DUP2 MSTORE SWAP1 PUSH1 0x40 MSTORE PUSH1 0x40 MLOAD PUSH32 0x8C379A000000000000000000000000000000000000000000000000000000000 DUP2 MSTORE PUSH1 0x4 ADD PUSH2 0x32F0 SWAP2 SWAP1 PUSH2 0x44BA JUMP JUMPDEST PUSH1 0x40 MLOAD DUP1 SWAP2 SUB SWAP1 REVERT JUMPDEST POP POP JUMP JUMPDEST PUSH1 0x0 PUSH1 0x1 SWAP1 SLOAD SWAP1 PUSH2 0x100 EXP SWAP1 DIV PUSH1 0xFF AND PUSH2 0x334C JUMPI PUSH1 0x40 MLOAD PUSH32 0x8C379A000000000000000000000000000000000000000000000000000000000 DUP2 MSTORE PUSH1 0x4 ADD PUSH2 0x3343 SWAP1 PUSH2 0x599D JUMP JUMPDEST PUSH1 0x40 MLOAD DUP1 SWAP2 SUB SWAP1 REVERT JUMPDEST PUSH1 0x1 DUP1 DUP2 SWAP1 SSTORE POP JUMP JUMPDEST PUSH1 0x60 PUSH2 0x3364 DUP5 DUP5 PUSH1 0x0 DUP6 PUSH2 0x35A9 JUMP JUMPDEST SWAP1 POP SWAP4 SWAP3 POP POP POP JUMP JUMPDEST PUSH1 0x60 PUSH1 0x0 PUSH1 0x2 DUP4 PUSH1 0x2 PUSH2 0x3380 SWAP2 SWAP1 PUSH2 0x4A5C JUMP JUMPDEST PUSH2 0x338A SWAP2 SWAP1 PUSH2 0x4AFE JUMP JUMPDEST PUSH8 0xFFFFFFFFFFFFFFFF DUP2 GT ISZERO PUSH2 0x33A3 JUMPI PUSH2 0x33A2 PUSH2 0x3902 JUMP JUMPDEST JUMPDEST PUSH1 0x40 MLOAD SWAP1 DUP1 DUP3 MSTORE DUP1 PUSH1 0x1F ADD PUSH1 0x1F NOT AND PUSH1 0x20 ADD DUP3 ADD PUSH1 0x40 MSTORE DUP1 ISZERO PUSH2 0x33D5 JUMPI DUP2 PUSH1 0x20 ADD PUSH1 0x1 DUP3 MUL DUP1 CALLDATASIZE DUP4 CALLDATACOPY DUP1 DUP3 ADD SWAP2 POP POP SWAP1 POP JUMPDEST POP SWAP1 POP PUSH32 0x3000000000000000000000000000000000000000000000000000000000000000 DUP2 PUSH1 0x0 DUP2 MLOAD DUP2 LT PUSH2 0x340D JUMPI PUSH2 0x340C PUSH2 0x49FE JUMP JUMPDEST JUMPDEST PUSH1 0x20 ADD ADD SWAP1 PUSH31 0xFFFFFFFFFFFFFFFFFFFFFFFFFFFFFFFFFFFFFFFFFFFFFFFFFFFFFFFFFFFFFF NOT AND SWAP1 DUP2 PUSH1 0x0 BYTE SWAP1 MSTORE8 POP PUSH32 0x7800000000000000000000000000000000000000000000000000000000000000 DUP2 PUSH1 0x1 DUP2 MLOAD DUP2 LT PUSH2 0x3471 JUMPI PUSH2 0x3470 PUSH2 0x49FE JUMP JUMPDEST JUMPDEST PUSH1 0x20 ADD ADD SWAP1 PUSH31 0xFFFFFFFFFFFFFFFFFFFFFFFFFFFFFFFFFFFFFFFFFFFFFFFFFFFFFFFFFFFFFF NOT AND SWAP1 DUP2 PUSH1 0x0 BYTE SWAP1 MSTORE8 POP PUSH1 0x0 PUSH1 0x1 DUP5 PUSH1 0x2 PUSH2 0x34B1 SWAP2 SWAP1 PUSH2 0x4A5C JUMP JUMPDEST PUSH2 0x34BB SWAP2 SWAP1 PUSH2 0x4AFE JUMP JUMPDEST SWAP1 POP JUMPDEST PUSH1 0x1 DUP2 GT ISZERO PUSH2 0x355B JUMPI PUSH32 0x3031323334353637383961626364656600000000000000000000000000000000 PUSH1 0xF DUP7 AND PUSH1 0x10 DUP2 LT PUSH2 0x34FD JUMPI PUSH2 0x34FC PUSH2 0x49FE JUMP JUMPDEST JUMPDEST BYTE PUSH1 0xF8 SHL DUP3 DUP3 DUP2 MLOAD DUP2 LT PUSH2 0x3514 JUMPI PUSH2 0x3513 PUSH2 0x49FE JUMP JUMPDEST JUMPDEST PUSH1 0x20 ADD ADD SWAP1 PUSH31 0xFFFFFFFFFFFFFFFFFFFFFFFFFFFFFFFFFFFFFFFFFFFFFFFFFFFFFFFFFFFFFF NOT AND SWAP1 DUP2 PUSH1 0x0 BYTE SWAP1 MSTORE8 POP PUSH1 0x4 DUP6 SWAP1 SHR SWAP5 POP DUP1 PUSH2 0x3554 SWAP1 PUSH2 0x5B7A JUMP JUMPDEST SWAP1 POP PUSH2 0x34BE JUMP JUMPDEST POP PUSH1 0x0 DUP5 EQ PUSH2 0x359F JUMPI PUSH1 0x40 MLOAD PUSH32 0x8C379A000000000000000000000000000000000000000000000000000000000 DUP2 MSTORE PUSH1 0x4 ADD PUSH2 0x3596 SWAP1 PUSH2 0x5BEF JUMP JUMPDEST PUSH1 0x40 MLOAD DUP1 SWAP2 SUB SWAP1 REVERT JUMPDEST DUP1 SWAP2 POP POP SWAP3 SWAP2 POP POP JUMP JUMPDEST PUSH1 0x60 DUP3 SELFBALANCE LT ISZERO PUSH2 0x35EE JUMPI PUSH1 0x40 MLOAD PUSH32 0x8C379A000000000000000000000000000000000000000000000000000000000 DUP2 MSTORE PUSH1 0x4 ADD PUSH2 0x35E5 SWAP1 PUSH2 0x5C81 JUMP JUMPDEST PUSH1 0x40 MLOAD DUP1 SWAP2 SUB SWAP1 REVERT JUMPDEST PUSH2 0x35F7 DUP6 PUSH2 0x30BE JUMP JUMPDEST PUSH2 0x3636 JUMPI PUSH1 0x40 MLOAD PUSH32 0x8C379A000000000000000000000000000000000000000000000000000000000 DUP2 MSTORE PUSH1 0x4 ADD PUSH2 0x362D SWAP1 PUSH2 0x5CED JUMP JUMPDEST PUSH1 0x40 MLOAD DUP1 SWAP2 SUB SWAP1 REVERT JUMPDEST PUSH1 0x0 DUP1 DUP7 PUSH20 0xFFFFFFFFFFFFFFFFFFFFFFFFFFFFFFFFFFFFFFFF AND DUP6 DUP8 PUSH1 0x40 MLOAD PUSH2 0x365F SWAP2 SWAP1 PUSH2 0x5D0D JUMP JUMPDEST PUSH1 0x0 PUSH1 0x40 MLOAD DUP1 DUP4 SUB DUP2 DUP6 DUP8 GAS CALL SWAP3 POP POP POP RETURNDATASIZE DUP1 PUSH1 0x0 DUP2 EQ PUSH2 0x369C JUMPI PUSH1 0x40 MLOAD SWAP2 POP PUSH1 0x1F NOT PUSH1 0x3F RETURNDATASIZE ADD AND DUP3 ADD PUSH1 0x40 MSTORE RETURNDATASIZE DUP3 MSTORE RETURNDATASIZE PUSH1 0x0 PUSH1 0x20 DUP5 ADD RETURNDATACOPY PUSH2 0x36A1 JUMP JUMPDEST PUSH1 0x60 SWAP2 POP JUMPDEST POP SWAP2 POP SWAP2 POP PUSH2 0x36B1 DUP3 DUP3 DUP7 PUSH2 0x36BD JUMP JUMPDEST SWAP3 POP POP POP SWAP5 SWAP4 POP POP POP POP JUMP JUMPDEST PUSH1 0x60 DUP4 ISZERO PUSH2 0x36CD JUMPI DUP3 SWAP1 POP PUSH2 0x371D JUMP JUMPDEST PUSH1 0x0 DUP4 MLOAD GT ISZERO PUSH2 0x36E0 JUMPI DUP3 MLOAD DUP1 DUP5 PUSH1 0x20 ADD REVERT JUMPDEST DUP2 PUSH1 0x40 MLOAD PUSH32 0x8C379A000000000000000000000000000000000000000000000000000000000 DUP2 MSTORE PUSH1 0x4 ADD PUSH2 0x3714 SWAP2 SWAP1 PUSH2 0x44BA JUMP JUMPDEST PUSH1 0x40 MLOAD DUP1 SWAP2 SUB SWAP1 REVERT JUMPDEST SWAP4 SWAP3 POP POP POP JUMP JUMPDEST DUP3 DUP1 SLOAD DUP3 DUP3 SSTORE SWAP1 PUSH1 0x0 MSTORE PUSH1 0x20 PUSH1 0x0 KECCAK256 SWAP1 DUP2 ADD SWAP3 DUP3 ISZERO PUSH2 0x379D JUMPI SWAP2 PUSH1 0x20 MUL DUP3 ADD JUMPDEST DUP3 DUP2 GT ISZERO PUSH2 0x379C JUMPI DUP3 MLOAD DUP3 PUSH1 0x0 PUSH2 0x100 EXP DUP2 SLOAD DUP2 PUSH20 0xFFFFFFFFFFFFFFFFFFFFFFFFFFFFFFFFFFFFFFFF MUL NOT AND SWAP1 DUP4 PUSH20 0xFFFFFFFFFFFFFFFFFFFFFFFFFFFFFFFFFFFFFFFF AND MUL OR SWAP1 SSTORE POP SWAP2 PUSH1 0x20 ADD SWAP2 SWAP1 PUSH1 0x1 ADD SWAP1 PUSH2 0x3744 JUMP JUMPDEST JUMPDEST POP SWAP1 POP PUSH2 0x37AA SWAP2 SWAP1 PUSH2 0x37FB JUMP JUMPDEST POP SWAP1 JUMP JUMPDEST DUP3 DUP1 SLOAD DUP3 DUP3 SSTORE SWAP1 PUSH1 0x0 MSTORE PUSH1 0x20 PUSH1 0x0 KECCAK256 SWAP1 DUP2 ADD SWAP3 DUP3 ISZERO PUSH2 0x37EA JUMPI SWAP2 PUSH1 0x20 MUL DUP3 ADD JUMPDEST DUP3 DUP2 GT ISZERO PUSH2 0x37E9 JUMPI DUP3 MLOAD DUP3 SSTORE SWAP2 PUSH1 0x20 ADD SWAP2 SWAP1 PUSH1 0x1 ADD SWAP1 PUSH2 0x37CE JUMP JUMPDEST JUMPDEST POP SWAP1 POP PUSH2 0x37F7 SWAP2 SWAP1 PUSH2 0x37FB JUMP JUMPDEST POP SWAP1 JUMP JUMPDEST JUMPDEST DUP1 DUP3 GT ISZERO PUSH2 0x3814 JUMPI PUSH1 0x0 DUP2 PUSH1 0x0 SWAP1 SSTORE POP PUSH1 0x1 ADD PUSH2 0x37FC JUMP JUMPDEST POP SWAP1 JUMP JUMPDEST PUSH1 0x0 PUSH1 0x40 MLOAD SWAP1 POP SWAP1 JUMP JUMPDEST PUSH1 0x0 DUP1 REVERT JUMPDEST PUSH1 0x0 DUP1 REVERT JUMPDEST PUSH1 0x0 PUSH32 0xFFFFFFFF00000000000000000000000000000000000000000000000000000000 DUP3 AND SWAP1 POP SWAP2 SWAP1 POP JUMP JUMPDEST PUSH2 0x3861 DUP2 PUSH2 0x382C JUMP JUMPDEST DUP2 EQ PUSH2 0x386C JUMPI PUSH1 0x0 DUP1 REVERT JUMPDEST POP JUMP JUMPDEST PUSH1 0x0 DUP2 CALLDATALOAD SWAP1 POP PUSH2 0x387E DUP2 PUSH2 0x3858 JUMP JUMPDEST SWAP3 SWAP2 POP POP JUMP JUMPDEST PUSH1 0x0 PUSH1 0x20 DUP3 DUP5 SUB SLT ISZERO PUSH2 0x389A JUMPI PUSH2 0x3899 PUSH2 0x3822 JUMP JUMPDEST JUMPDEST PUSH1 0x0 PUSH2 0x38A8 DUP5 DUP3 DUP6 ADD PUSH2 0x386F JUMP JUMPDEST SWAP2 POP POP SWAP3 SWAP2 POP POP JUMP JUMPDEST PUSH1 0x0 DUP2 ISZERO ISZERO SWAP1 POP SWAP2 SWAP1 POP JUMP JUMPDEST PUSH2 0x38C6 DUP2 PUSH2 0x38B1 JUMP JUMPDEST DUP3 MSTORE POP POP JUMP JUMPDEST PUSH1 0x0 PUSH1 0x20 DUP3 ADD SWAP1 POP PUSH2 0x38E1 PUSH1 0x0 DUP4 ADD DUP5 PUSH2 0x38BD JUMP JUMPDEST SWAP3 SWAP2 POP POP JUMP JUMPDEST PUSH1 0x0 DUP1 REVERT JUMPDEST PUSH1 0x0 DUP1 REVERT JUMPDEST PUSH1 0x0 PUSH1 0x1F NOT PUSH1 0x1F DUP4 ADD AND SWAP1 POP SWAP2 SWAP1 POP JUMP JUMPDEST PUSH32 0x4E487B7100000000000000000000000000000000000000000000000000000000 PUSH1 0x0 MSTORE PUSH1 0x41 PUSH1 0x4 MSTORE PUSH1 0x24 PUSH1 0x0 REVERT JUMPDEST PUSH2 0x393A DUP3 PUSH2 0x38F1 JUMP JUMPDEST DUP2 ADD DUP2 DUP2 LT PUSH8 0xFFFFFFFFFFFFFFFF DUP3 GT OR ISZERO PUSH2 0x3959 JUMPI PUSH2 0x3958 PUSH2 0x3902 JUMP JUMPDEST JUMPDEST DUP1 PUSH1 0x40 MSTORE POP POP POP JUMP JUMPDEST PUSH1 0x0 PUSH2 0x396C PUSH2 0x3818 JUMP JUMPDEST SWAP1 POP PUSH2 0x3978 DUP3 DUP3 PUSH2 0x3931 JUMP JUMPDEST SWAP2 SWAP1 POP JUMP JUMPDEST PUSH1 0x0 PUSH8 0xFFFFFFFFFFFFFFFF DUP3 GT ISZERO PUSH2 0x3998 JUMPI PUSH2 0x3997 PUSH2 0x3902 JUMP JUMPDEST JUMPDEST PUSH2 0x39A1 DUP3 PUSH2 0x38F1 JUMP JUMPDEST SWAP1 POP PUSH1 0x20 DUP2 ADD SWAP1 POP SWAP2 SWAP1 POP JUMP JUMPDEST DUP3 DUP2 DUP4 CALLDATACOPY PUSH1 0x0 DUP4 DUP4 ADD MSTORE POP POP POP JUMP JUMPDEST PUSH1 0x0 PUSH2 0x39D0 PUSH2 0x39CB DUP5 PUSH2 0x397D JUMP JUMPDEST PUSH2 0x3962 JUMP JUMPDEST SWAP1 POP DUP3 DUP2 MSTORE PUSH1 0x20 DUP2 ADD DUP5 DUP5 DUP5 ADD GT ISZERO PUSH2 0x39EC JUMPI PUSH2 0x39EB PUSH2 0x38EC JUMP JUMPDEST JUMPDEST PUSH2 0x39F7 DUP5 DUP3 DUP6 PUSH2 0x39AE JUMP JUMPDEST POP SWAP4 SWAP3 POP POP POP JUMP JUMPDEST PUSH1 0x0 DUP3 PUSH1 0x1F DUP4 ADD SLT PUSH2 0x3A14 JUMPI PUSH2 0x3A13 PUSH2 0x38E7 JUMP JUMPDEST JUMPDEST DUP2 CALLDATALOAD PUSH2 0x3A24 DUP5 DUP3 PUSH1 0x20 DUP7 ADD PUSH2 0x39BD JUMP JUMPDEST SWAP2 POP POP SWAP3 SWAP2 POP POP JUMP JUMPDEST PUSH1 0x0 DUP2 SWAP1 POP SWAP2 SWAP1 POP JUMP JUMPDEST PUSH2 0x3A40 DUP2 PUSH2 0x3A2D JUMP JUMPDEST DUP2 EQ PUSH2 0x3A4B JUMPI PUSH1 0x0 DUP1 REVERT JUMPDEST POP JUMP JUMPDEST PUSH1 0x0 DUP2 CALLDATALOAD SWAP1 POP PUSH2 0x3A5D DUP2 PUSH2 0x3A37 JUMP JUMPDEST SWAP3 SWAP2 POP POP JUMP JUMPDEST PUSH1 0x0 PUSH20 0xFFFFFFFFFFFFFFFFFFFFFFFFFFFFFFFFFFFFFFFF DUP3 AND SWAP1 POP SWAP2 SWAP1 POP JUMP JUMPDEST PUSH1 0x0 PUSH2 0x3A8E DUP3 PUSH2 0x3A63 JUMP JUMPDEST SWAP1 POP SWAP2 SWAP1 POP JUMP JUMPDEST PUSH2 0x3A9E DUP2 PUSH2 0x3A83 JUMP JUMPDEST DUP2 EQ PUSH2 0x3AA9 JUMPI PUSH1 0x0 DUP1 REVERT JUMPDEST POP JUMP JUMPDEST PUSH1 0x0 DUP2 CALLDATALOAD SWAP1 POP PUSH2 0x3ABB DUP2 PUSH2 0x3A95 JUMP JUMPDEST SWAP3 SWAP2 POP POP JUMP JUMPDEST PUSH1 0x0 PUSH8 0xFFFFFFFFFFFFFFFF DUP3 GT ISZERO PUSH2 0x3ADC JUMPI PUSH2 0x3ADB PUSH2 0x3902 JUMP JUMPDEST JUMPDEST PUSH1 0x20 DUP3 MUL SWAP1 POP PUSH1 0x20 DUP2 ADD SWAP1 POP SWAP2 SWAP1 POP JUMP JUMPDEST PUSH1 0x0 DUP1 REVERT JUMPDEST PUSH1 0x0 PUSH2 0x3B05 PUSH2 0x3B00 DUP5 PUSH2 0x3AC1 JUMP JUMPDEST PUSH2 0x3962 JUMP JUMPDEST SWAP1 POP DUP1 DUP4 DUP3 MSTORE PUSH1 0x20 DUP3 ADD SWAP1 POP PUSH1 0x20 DUP5 MUL DUP4 ADD DUP6 DUP2 GT ISZERO PUSH2 0x3B28 JUMPI PUSH2 0x3B27 PUSH2 0x3AED JUMP JUMPDEST JUMPDEST DUP4 JUMPDEST DUP2 DUP2 LT ISZERO PUSH2 0x3B51 JUMPI DUP1 PUSH2 0x3B3D DUP9 DUP3 PUSH2 0x3AAC JUMP JUMPDEST DUP5 MSTORE PUSH1 0x20 DUP5 ADD SWAP4 POP POP PUSH1 0x20 DUP2 ADD SWAP1 POP PUSH2 0x3B2A JUMP JUMPDEST POP POP POP SWAP4 SWAP3 POP POP POP JUMP JUMPDEST PUSH1 0x0 DUP3 PUSH1 0x1F DUP4 ADD SLT PUSH2 0x3B70 JUMPI PUSH2 0x3B6F PUSH2 0x38E7 JUMP JUMPDEST JUMPDEST DUP2 CALLDATALOAD PUSH2 0x3B80 DUP5 DUP3 PUSH1 0x20 DUP7 ADD PUSH2 0x3AF2 JUMP JUMPDEST SWAP2 POP POP SWAP3 SWAP2 POP POP JUMP JUMPDEST PUSH1 0x0 PUSH8 0xFFFFFFFFFFFFFFFF DUP3 GT ISZERO PUSH2 0x3BA4 JUMPI PUSH2 0x3BA3 PUSH2 0x3902 JUMP JUMPDEST JUMPDEST PUSH1 0x20 DUP3 MUL SWAP1 POP PUSH1 0x20 DUP2 ADD SWAP1 POP SWAP2 SWAP1 POP JUMP JUMPDEST PUSH1 0x0 PUSH2 0x3BC8 PUSH2 0x3BC3 DUP5 PUSH2 0x3B89 JUMP JUMPDEST PUSH2 0x3962 JUMP JUMPDEST SWAP1 POP DUP1 DUP4 DUP3 MSTORE PUSH1 0x20 DUP3 ADD SWAP1 POP PUSH1 0x20 DUP5 MUL DUP4 ADD DUP6 DUP2 GT ISZERO PUSH2 0x3BEB JUMPI PUSH2 0x3BEA PUSH2 0x3AED JUMP JUMPDEST JUMPDEST DUP4 JUMPDEST DUP2 DUP2 LT ISZERO PUSH2 0x3C14 JUMPI DUP1 PUSH2 0x3C00 DUP9 DUP3 PUSH2 0x3A4E JUMP JUMPDEST DUP5 MSTORE PUSH1 0x20 DUP5 ADD SWAP4 POP POP PUSH1 0x20 DUP2 ADD SWAP1 POP PUSH2 0x3BED JUMP JUMPDEST POP POP POP SWAP4 SWAP3 POP POP POP JUMP JUMPDEST PUSH1 0x0 DUP3 PUSH1 0x1F DUP4 ADD SLT PUSH2 0x3C33 JUMPI PUSH2 0x3C32 PUSH2 0x38E7 JUMP JUMPDEST JUMPDEST DUP2 CALLDATALOAD PUSH2 0x3C43 DUP5 DUP3 PUSH1 0x20 DUP7 ADD PUSH2 0x3BB5 JUMP JUMPDEST SWAP2 POP POP SWAP3 SWAP2 POP POP JUMP JUMPDEST PUSH1 0x0 PUSH8 0xFFFFFFFFFFFFFFFF DUP3 GT ISZERO PUSH2 0x3C67 JUMPI PUSH2 0x3C66 PUSH2 0x3902 JUMP JUMPDEST JUMPDEST PUSH2 0x3C70 DUP3 PUSH2 0x38F1 JUMP JUMPDEST SWAP1 POP PUSH1 0x20 DUP2 ADD SWAP1 POP SWAP2 SWAP1 POP JUMP JUMPDEST PUSH1 0x0 PUSH2 0x3C90 PUSH2 0x3C8B DUP5 PUSH2 0x3C4C JUMP JUMPDEST PUSH2 0x3962 JUMP JUMPDEST SWAP1 POP DUP3 DUP2 MSTORE PUSH1 0x20 DUP2 ADD DUP5 DUP5 DUP5 ADD GT ISZERO PUSH2 0x3CAC JUMPI PUSH2 0x3CAB PUSH2 0x38EC JUMP JUMPDEST JUMPDEST PUSH2 0x3CB7 DUP5 DUP3 DUP6 PUSH2 0x39AE JUMP JUMPDEST POP SWAP4 SWAP3 POP POP POP JUMP JUMPDEST PUSH1 0x0 DUP3 PUSH1 0x1F DUP4 ADD SLT PUSH2 0x3CD4 JUMPI PUSH2 0x3CD3 PUSH2 0x38E7 JUMP JUMPDEST JUMPDEST DUP2 CALLDATALOAD PUSH2 0x3CE4 DUP5 DUP3 PUSH1 0x20 DUP7 ADD PUSH2 0x3C7D JUMP JUMPDEST SWAP2 POP POP SWAP3 SWAP2 POP POP JUMP JUMPDEST PUSH1 0x0 DUP1 PUSH1 0x0 DUP1 PUSH1 0x0 DUP1 PUSH1 0x0 DUP1 PUSH1 0x0 DUP1 PUSH2 0x140 DUP12 DUP14 SUB SLT ISZERO PUSH2 0x3D11 JUMPI PUSH2 0x3D10 PUSH2 0x3822 JUMP JUMPDEST JUMPDEST PUSH1 0x0 DUP12 ADD CALLDATALOAD PUSH8 0xFFFFFFFFFFFFFFFF DUP2 GT ISZERO PUSH2 0x3D2F JUMPI PUSH2 0x3D2E PUSH2 0x3827 JUMP JUMPDEST JUMPDEST PUSH2 0x3D3B DUP14 DUP3 DUP15 ADD PUSH2 0x39FF JUMP JUMPDEST SWAP11 POP POP PUSH1 0x20 PUSH2 0x3D4C DUP14 DUP3 DUP15 ADD PUSH2 0x3A4E JUMP JUMPDEST SWAP10 POP POP PUSH1 0x40 PUSH2 0x3D5D DUP14 DUP3 DUP15 ADD PUSH2 0x3A4E JUMP JUMPDEST SWAP9 POP POP PUSH1 0x60 PUSH2 0x3D6E DUP14 DUP3 DUP15 ADD PUSH2 0x3A4E JUMP JUMPDEST SWAP8 POP POP PUSH1 0x80 PUSH2 0x3D7F DUP14 DUP3 DUP15 ADD PUSH2 0x3AAC JUMP JUMPDEST SWAP7 POP POP PUSH1 0xA0 PUSH2 0x3D90 DUP14 DUP3 DUP15 ADD PUSH2 0x3A4E JUMP JUMPDEST SWAP6 POP POP PUSH1 0xC0 DUP12 ADD CALLDATALOAD PUSH8 0xFFFFFFFFFFFFFFFF DUP2 GT ISZERO PUSH2 0x3DB1 JUMPI PUSH2 0x3DB0 PUSH2 0x3827 JUMP JUMPDEST JUMPDEST PUSH2 0x3DBD DUP14 DUP3 DUP15 ADD PUSH2 0x3B5B JUMP JUMPDEST SWAP5 POP POP PUSH1 0xE0 DUP12 ADD CALLDATALOAD PUSH8 0xFFFFFFFFFFFFFFFF DUP2 GT ISZERO PUSH2 0x3DDE JUMPI PUSH2 0x3DDD PUSH2 0x3827 JUMP JUMPDEST JUMPDEST PUSH2 0x3DEA DUP14 DUP3 DUP15 ADD PUSH2 0x3C1E JUMP JUMPDEST SWAP4 POP POP PUSH2 0x100 DUP12 ADD CALLDATALOAD PUSH8 0xFFFFFFFFFFFFFFFF DUP2 GT ISZERO PUSH2 0x3E0C JUMPI PUSH2 0x3E0B PUSH2 0x3827 JUMP JUMPDEST JUMPDEST PUSH2 0x3E18 DUP14 DUP3 DUP15 ADD PUSH2 0x3CBF JUMP JUMPDEST SWAP3 POP POP PUSH2 0x120 DUP12 ADD CALLDATALOAD PUSH8 0xFFFFFFFFFFFFFFFF DUP2 GT ISZERO PUSH2 0x3E3A JUMPI PUSH2 0x3E39 PUSH2 0x3827 JUMP JUMPDEST JUMPDEST PUSH2 0x3E46 DUP14 DUP3 DUP15 ADD PUSH2 0x3CBF JUMP JUMPDEST SWAP2 POP POP SWAP3 SWAP6 SWAP9 SWAP12 SWAP2 SWAP5 SWAP8 SWAP11 POP SWAP3 SWAP6 SWAP9 POP JUMP JUMPDEST PUSH2 0x3E61 DUP2 PUSH2 0x3A83 JUMP JUMPDEST DUP3 MSTORE POP POP JUMP JUMPDEST PUSH1 0x0 PUSH1 0x20 DUP3 ADD SWAP1 POP PUSH2 0x3E7C PUSH1 0x0 DUP4 ADD DUP5 PUSH2 0x3E58 JUMP JUMPDEST SWAP3 SWAP2 POP POP JUMP JUMPDEST PUSH1 0x0 DUP2 SWAP1 POP SWAP2 SWAP1 POP JUMP JUMPDEST PUSH2 0x3E95 DUP2 PUSH2 0x3E82 JUMP JUMPDEST DUP2 EQ PUSH2 0x3EA0 JUMPI PUSH1 0x0 DUP1 REVERT JUMPDEST POP JUMP JUMPDEST PUSH1 0x0 DUP2 CALLDATALOAD SWAP1 POP PUSH2 0x3EB2 DUP2 PUSH2 0x3E8C JUMP JUMPDEST SWAP3 SWAP2 POP POP JUMP JUMPDEST PUSH1 0x0 PUSH1 0x20 DUP3 DUP5 SUB SLT ISZERO PUSH2 0x3ECE JUMPI PUSH2 0x3ECD PUSH2 0x3822 JUMP JUMPDEST JUMPDEST PUSH1 0x0 PUSH2 0x3EDC DUP5 DUP3 DUP6 ADD PUSH2 0x3EA3 JUMP JUMPDEST SWAP2 POP POP SWAP3 SWAP2 POP POP JUMP JUMPDEST PUSH2 0x3EEE DUP2 PUSH2 0x3E82 JUMP JUMPDEST DUP3 MSTORE POP POP JUMP JUMPDEST PUSH1 0x0 PUSH1 0x20 DUP3 ADD SWAP1 POP PUSH2 0x3F09 PUSH1 0x0 DUP4 ADD DUP5 PUSH2 0x3EE5 JUMP JUMPDEST SWAP3 SWAP2 POP POP JUMP JUMPDEST PUSH1 0x0 DUP1 PUSH1 0x0 DUP1 PUSH1 0x80 DUP6 DUP8 SUB SLT ISZERO PUSH2 0x3F29 JUMPI PUSH2 0x3F28 PUSH2 0x3822 JUMP JUMPDEST JUMPDEST PUSH1 0x0 DUP6 ADD CALLDATALOAD PUSH8 0xFFFFFFFFFFFFFFFF DUP2 GT ISZERO PUSH2 0x3F47 JUMPI PUSH2 0x3F46 PUSH2 0x3827 JUMP JUMPDEST JUMPDEST PUSH2 0x3F53 DUP8 DUP3 DUP9 ADD PUSH2 0x3CBF JUMP JUMPDEST SWAP5 POP POP PUSH1 0x20 DUP6 ADD CALLDATALOAD PUSH8 0xFFFFFFFFFFFFFFFF DUP2 GT ISZERO PUSH2 0x3F74 JUMPI PUSH2 0x3F73 PUSH2 0x3827 JUMP JUMPDEST JUMPDEST PUSH2 0x3F80 DUP8 DUP3 DUP9 ADD PUSH2 0x39FF JUMP JUMPDEST SWAP4 POP POP PUSH1 0x40 PUSH2 0x3F91 DUP8 DUP3 DUP9 ADD PUSH2 0x3AAC JUMP JUMPDEST SWAP3 POP POP PUSH1 0x60 DUP6 ADD CALLDATALOAD PUSH8 0xFFFFFFFFFFFFFFFF DUP2 GT ISZERO PUSH2 0x3FB2 JUMPI PUSH2 0x3FB1 PUSH2 0x3827 JUMP JUMPDEST JUMPDEST PUSH2 0x3FBE DUP8 DUP3 DUP9 ADD PUSH2 0x3CBF JUMP JUMPDEST SWAP2 POP POP SWAP3 SWAP6 SWAP2 SWAP5 POP SWAP3 POP JUMP JUMPDEST PUSH1 0x0 DUP1 PUSH1 0x40 DUP4 DUP6 SUB SLT ISZERO PUSH2 0x3FE1 JUMPI PUSH2 0x3FE0 PUSH2 0x3822 JUMP JUMPDEST JUMPDEST PUSH1 0x0 PUSH2 0x3FEF DUP6 DUP3 DUP7 ADD PUSH2 0x3EA3 JUMP JUMPDEST SWAP3 POP POP PUSH1 0x20 PUSH2 0x4000 DUP6 DUP3 DUP7 ADD PUSH2 0x3AAC JUMP JUMPDEST SWAP2 POP POP SWAP3 POP SWAP3 SWAP1 POP JUMP JUMPDEST PUSH1 0x0 PUSH1 0x20 DUP3 DUP5 SUB SLT ISZERO PUSH2 0x4020 JUMPI PUSH2 0x401F PUSH2 0x3822 JUMP JUMPDEST JUMPDEST PUSH1 0x0 PUSH2 0x402E DUP5 DUP3 DUP6 ADD PUSH2 0x3A4E JUMP JUMPDEST SWAP2 POP POP SWAP3 SWAP2 POP POP JUMP JUMPDEST PUSH1 0x0 DUP1 PUSH1 0x0 DUP1 PUSH1 0x0 DUP1 PUSH1 0x0 PUSH1 0xE0 DUP9 DUP11 SUB SLT ISZERO PUSH2 0x4056 JUMPI PUSH2 0x4055 PUSH2 0x3822 JUMP JUMPDEST JUMPDEST PUSH1 0x0 DUP9 ADD CALLDATALOAD PUSH8 0xFFFFFFFFFFFFFFFF DUP2 GT ISZERO PUSH2 0x4074 JUMPI PUSH2 0x4073 PUSH2 0x3827 JUMP JUMPDEST JUMPDEST PUSH2 0x4080 DUP11 DUP3 DUP12 ADD PUSH2 0x39FF JUMP JUMPDEST SWAP8 POP POP PUSH1 0x20 PUSH2 0x4091 DUP11 DUP3 DUP12 ADD PUSH2 0x3A4E JUMP JUMPDEST SWAP7 POP POP PUSH1 0x40 PUSH2 0x40A2 DUP11 DUP3 DUP12 ADD PUSH2 0x3AAC JUMP JUMPDEST SWAP6 POP POP PUSH1 0x60 DUP9 ADD CALLDATALOAD PUSH8 0xFFFFFFFFFFFFFFFF DUP2 GT ISZERO PUSH2 0x40C3 JUMPI PUSH2 0x40C2 PUSH2 0x3827 JUMP JUMPDEST JUMPDEST PUSH2 0x40CF DUP11 DUP3 DUP12 ADD PUSH2 0x3B5B JUMP JUMPDEST SWAP5 POP POP PUSH1 0x80 DUP9 ADD CALLDATALOAD PUSH8 0xFFFFFFFFFFFFFFFF DUP2 GT ISZERO PUSH2 0x40F0 JUMPI PUSH2 0x40EF PUSH2 0x3827 JUMP JUMPDEST JUMPDEST PUSH2 0x40FC DUP11 DUP3 DUP12 ADD PUSH2 0x3C1E JUMP JUMPDEST SWAP4 POP POP PUSH1 0xA0 DUP9 ADD CALLDATALOAD PUSH8 0xFFFFFFFFFFFFFFFF DUP2 GT ISZERO PUSH2 0x411D JUMPI PUSH2 0x411C PUSH2 0x3827 JUMP JUMPDEST JUMPDEST PUSH2 0x4129 DUP11 DUP3 DUP12 ADD PUSH2 0x3CBF JUMP JUMPDEST SWAP3 POP POP PUSH1 0xC0 DUP9 ADD CALLDATALOAD PUSH8 0xFFFFFFFFFFFFFFFF DUP2 GT ISZERO PUSH2 0x414A JUMPI PUSH2 0x4149 PUSH2 0x3827 JUMP JUMPDEST JUMPDEST PUSH2 0x4156 DUP11 DUP3 DUP12 ADD PUSH2 0x3CBF JUMP JUMPDEST SWAP2 POP POP SWAP3 SWAP6 SWAP9 SWAP2 SWAP5 SWAP8 POP SWAP3 SWAP6 POP JUMP JUMPDEST PUSH2 0x416E DUP2 PUSH2 0x3A2D JUMP JUMPDEST DUP3 MSTORE POP POP JUMP JUMPDEST PUSH1 0x0 PUSH1 0x20 DUP3 ADD SWAP1 POP PUSH2 0x4189 PUSH1 0x0 DUP4 ADD DUP5 PUSH2 0x4165 JUMP JUMPDEST SWAP3 SWAP2 POP POP JUMP JUMPDEST PUSH1 0x0 DUP1 PUSH1 0x40 DUP4 DUP6 SUB SLT ISZERO PUSH2 0x41A6 JUMPI PUSH2 0x41A5 PUSH2 0x3822 JUMP JUMPDEST JUMPDEST PUSH1 0x0 PUSH2 0x41B4 DUP6 DUP3 DUP7 ADD PUSH2 0x3A4E JUMP JUMPDEST SWAP3 POP POP PUSH1 0x20 PUSH2 0x41C5 DUP6 DUP3 DUP7 ADD PUSH2 0x3AAC JUMP JUMPDEST SWAP2 POP POP SWAP3 POP SWAP3 SWAP1 POP JUMP JUMPDEST PUSH1 0x0 PUSH1 0xE0 DUP3 ADD SWAP1 POP PUSH2 0x41E4 PUSH1 0x0 DUP4 ADD DUP11 PUSH2 0x4165 JUMP JUMPDEST PUSH2 0x41F1 PUSH1 0x20 DUP4 ADD DUP10 PUSH2 0x4165 JUMP JUMPDEST PUSH2 0x41FE PUSH1 0x40 DUP4 ADD DUP9 PUSH2 0x4165 JUMP JUMPDEST PUSH2 0x420B PUSH1 0x60 DUP4 ADD DUP8 PUSH2 0x4165 JUMP JUMPDEST PUSH2 0x4218 PUSH1 0x80 DUP4 ADD DUP7 PUSH2 0x4165 JUMP JUMPDEST PUSH2 0x4225 PUSH1 0xA0 DUP4 ADD DUP6 PUSH2 0x4165 JUMP JUMPDEST PUSH2 0x4232 PUSH1 0xC0 DUP4 ADD DUP5 PUSH2 0x4165 JUMP JUMPDEST SWAP9 SWAP8 POP POP POP POP POP POP POP POP JUMP JUMPDEST PUSH1 0x0 PUSH1 0x20 DUP3 DUP5 SUB SLT ISZERO PUSH2 0x4254 JUMPI PUSH2 0x4253 PUSH2 0x3822 JUMP JUMPDEST JUMPDEST PUSH1 0x0 PUSH2 0x4262 DUP5 DUP3 DUP6 ADD PUSH2 0x3AAC JUMP JUMPDEST SWAP2 POP POP SWAP3 SWAP2 POP POP JUMP JUMPDEST PUSH1 0x0 DUP2 MLOAD SWAP1 POP SWAP2 SWAP1 POP JUMP JUMPDEST PUSH1 0x0 DUP3 DUP3 MSTORE PUSH1 0x20 DUP3 ADD SWAP1 POP SWAP3 SWAP2 POP POP JUMP JUMPDEST PUSH1 0x0 JUMPDEST DUP4 DUP2 LT ISZERO PUSH2 0x42A5 JUMPI DUP1 DUP3 ADD MLOAD DUP2 DUP5 ADD MSTORE PUSH1 0x20 DUP2 ADD SWAP1 POP PUSH2 0x428A JUMP JUMPDEST PUSH1 0x0 DUP5 DUP5 ADD MSTORE POP POP POP POP JUMP JUMPDEST PUSH1 0x0 PUSH2 0x42BC DUP3 PUSH2 0x426B JUMP JUMPDEST PUSH2 0x42C6 DUP2 DUP6 PUSH2 0x4276 JUMP JUMPDEST SWAP4 POP PUSH2 0x42D6 DUP2 DUP6 PUSH1 0x20 DUP7 ADD PUSH2 0x4287 JUMP JUMPDEST PUSH2 0x42DF DUP2 PUSH2 0x38F1 JUMP JUMPDEST DUP5 ADD SWAP2 POP POP SWAP3 SWAP2 POP POP JUMP JUMPDEST PUSH1 0x0 PUSH2 0x140 DUP3 ADD SWAP1 POP PUSH2 0x4300 PUSH1 0x0 DUP4 ADD DUP14 PUSH2 0x38BD JUMP JUMPDEST DUP2 DUP2 SUB PUSH1 0x20 DUP4 ADD MSTORE PUSH2 0x4312 DUP2 DUP13 PUSH2 0x42B1 JUMP JUMPDEST SWAP1 POP PUSH2 0x4321 PUSH1 0x40 DUP4 ADD DUP12 PUSH2 0x4165 JUMP JUMPDEST PUSH2 0x432E PUSH1 0x60 DUP4 ADD DUP11 PUSH2 0x4165 JUMP JUMPDEST PUSH2 0x433B PUSH1 0x80 DUP4 ADD DUP10 PUSH2 0x4165 JUMP JUMPDEST PUSH2 0x4348 PUSH1 0xA0 DUP4 ADD DUP9 PUSH2 0x4165 JUMP JUMPDEST PUSH2 0x4355 PUSH1 0xC0 DUP4 ADD DUP8 PUSH2 0x4165 JUMP JUMPDEST PUSH2 0x4362 PUSH1 0xE0 DUP4 ADD DUP7 PUSH2 0x3E58 JUMP JUMPDEST PUSH2 0x4370 PUSH2 0x100 DUP4 ADD DUP6 PUSH2 0x4165 JUMP JUMPDEST PUSH2 0x437E PUSH2 0x120 DUP4 ADD DUP5 PUSH2 0x4165 JUMP JUMPDEST SWAP12 SWAP11 POP POP POP POP POP POP POP POP POP POP POP JUMP JUMPDEST PUSH1 0x0 DUP1 PUSH1 0x40 DUP4 DUP6 SUB SLT ISZERO PUSH2 0x43A4 JUMPI PUSH2 0x43A3 PUSH2 0x3822 JUMP JUMPDEST JUMPDEST PUSH1 0x0 DUP4 ADD CALLDATALOAD PUSH8 0xFFFFFFFFFFFFFFFF DUP2 GT ISZERO PUSH2 0x43C2 JUMPI PUSH2 0x43C1 PUSH2 0x3827 JUMP JUMPDEST JUMPDEST PUSH2 0x43CE DUP6 DUP3 DUP7 ADD PUSH2 0x39FF JUMP JUMPDEST SWAP3 POP POP PUSH1 0x20 PUSH2 0x43DF DUP6 DUP3 DUP7 ADD PUSH2 0x3AAC JUMP JUMPDEST SWAP2 POP POP SWAP3 POP SWAP3 SWAP1 POP JUMP JUMPDEST PUSH1 0x0 PUSH1 0xA0 DUP3 ADD SWAP1 POP PUSH2 0x43FE PUSH1 0x0 DUP4 ADD DUP9 PUSH2 0x4165 JUMP JUMPDEST PUSH2 0x440B PUSH1 0x20 DUP4 ADD DUP8 PUSH2 0x4165 JUMP JUMPDEST PUSH2 0x4418 PUSH1 0x40 DUP4 ADD DUP7 PUSH2 0x4165 JUMP JUMPDEST PUSH2 0x4425 PUSH1 0x60 DUP4 ADD DUP6 PUSH2 0x4165 JUMP JUMPDEST PUSH2 0x4432 PUSH1 0x80 DUP4 ADD DUP5 PUSH2 0x4165 JUMP JUMPDEST SWAP7 SWAP6 POP POP POP POP POP POP JUMP JUMPDEST PUSH1 0x0 PUSH2 0x4447 DUP3 PUSH2 0x3A83 JUMP JUMPDEST SWAP1 POP SWAP2 SWAP1 POP JUMP JUMPDEST PUSH2 0x4457 DUP2 PUSH2 0x443C JUMP JUMPDEST DUP2 EQ PUSH2 0x4462 JUMPI PUSH1 0x0 DUP1 REVERT JUMPDEST POP JUMP JUMPDEST PUSH1 0x0 DUP2 CALLDATALOAD SWAP1 POP PUSH2 0x4474 DUP2 PUSH2 0x444E JUMP JUMPDEST SWAP3 SWAP2 POP POP JUMP JUMPDEST PUSH1 0x0 DUP1 PUSH1 0x40 DUP4 DUP6 SUB SLT ISZERO PUSH2 0x4491 JUMPI PUSH2 0x4490 PUSH2 0x3822 JUMP JUMPDEST JUMPDEST PUSH1 0x0 PUSH2 0x449F DUP6 DUP3 DUP7 ADD PUSH2 0x4465 JUMP JUMPDEST SWAP3 POP POP PUSH1 0x20 PUSH2 0x44B0 DUP6 DUP3 DUP7 ADD PUSH2 0x3A4E JUMP JUMPDEST SWAP2 POP POP SWAP3 POP SWAP3 SWAP1 POP JUMP JUMPDEST PUSH1 0x0 PUSH1 0x20 DUP3 ADD SWAP1 POP DUP2 DUP2 SUB PUSH1 0x0 DUP4 ADD MSTORE PUSH2 0x44D4 DUP2 DUP5 PUSH2 0x42B1 JUMP JUMPDEST SWAP1 POP SWAP3 SWAP2 POP POP JUMP JUMPDEST PUSH32 0x41636365737344656E696564203A204F6E6C79205665737465722043616C6C20 PUSH1 0x0 DUP3 ADD MSTORE PUSH32 0x546869732046756E6374696F6E00000000000000000000000000000000000000 PUSH1 0x20 DUP3 ADD MSTORE POP JUMP JUMPDEST PUSH1 0x0 PUSH2 0x4538 PUSH1 0x2D DUP4 PUSH2 0x4276 JUMP JUMPDEST SWAP2 POP PUSH2 0x4543 DUP3 PUSH2 0x44DC JUMP JUMPDEST PUSH1 0x40 DUP3 ADD SWAP1 POP SWAP2 SWAP1 POP JUMP JUMPDEST PUSH1 0x0 PUSH1 0x20 DUP3 ADD SWAP1 POP DUP2 DUP2 SUB PUSH1 0x0 DUP4 ADD MSTORE PUSH2 0x4567 DUP2 PUSH2 0x452B JUMP JUMPDEST SWAP1 POP SWAP2 SWAP1 POP JUMP JUMPDEST PUSH32 0x5265656E7472616E637947756172643A207265656E7472616E742063616C6C00 PUSH1 0x0 DUP3 ADD MSTORE POP JUMP JUMPDEST PUSH1 0x0 PUSH2 0x45A4 PUSH1 0x1F DUP4 PUSH2 0x4276 JUMP JUMPDEST SWAP2 POP PUSH2 0x45AF DUP3 PUSH2 0x456E JUMP JUMPDEST PUSH1 0x20 DUP3 ADD SWAP1 POP SWAP2 SWAP1 POP JUMP JUMPDEST PUSH1 0x0 PUSH1 0x20 DUP3 ADD SWAP1 POP DUP2 DUP2 SUB PUSH1 0x0 DUP4 ADD MSTORE PUSH2 0x45D3 DUP2 PUSH2 0x4597 JUMP JUMPDEST SWAP1 POP SWAP2 SWAP1 POP JUMP JUMPDEST PUSH32 0x4949726F6E56657374204172726179203A204C656E677468206F66205F757365 PUSH1 0x0 DUP3 ADD MSTORE PUSH32 0x727341646472657373657320416E64205F75736572416C6C6F63204D75737420 PUSH1 0x20 DUP3 ADD MSTORE PUSH32 0x426520457175616C000000000000000000000000000000000000000000000000 PUSH1 0x40 DUP3 ADD MSTORE POP JUMP JUMPDEST PUSH1 0x0 PUSH2 0x465C PUSH1 0x48 DUP4 PUSH2 0x4276 JUMP JUMPDEST SWAP2 POP PUSH2 0x4667 DUP3 PUSH2 0x45DA JUMP JUMPDEST PUSH1 0x60 DUP3 ADD SWAP1 POP SWAP2 SWAP1 POP JUMP JUMPDEST PUSH1 0x0 PUSH1 0x20 DUP3 ADD SWAP1 POP DUP2 DUP2 SUB PUSH1 0x0 DUP4 ADD MSTORE PUSH2 0x468B DUP2 PUSH2 0x464F JUMP JUMPDEST SWAP1 POP SWAP2 SWAP1 POP JUMP JUMPDEST PUSH32 0x4949726F6E56657374203A20436C6966662056657374696E6720456E64205469 PUSH1 0x0 DUP3 ADD MSTORE PUSH32 0x6D65204D757374204265204C6573736572205468616E2056657374696E672054 PUSH1 0x20 DUP3 ADD MSTORE PUSH32 0x696D650000000000000000000000000000000000000000000000000000000000 PUSH1 0x40 DUP3 ADD MSTORE POP JUMP JUMPDEST PUSH1 0x0 PUSH2 0x4714 PUSH1 0x43 DUP4 PUSH2 0x4276 JUMP JUMPDEST SWAP2 POP PUSH2 0x471F DUP3 PUSH2 0x4692 JUMP JUMPDEST PUSH1 0x60 DUP3 ADD SWAP1 POP SWAP2 SWAP1 POP JUMP JUMPDEST PUSH1 0x0 PUSH1 0x20 DUP3 ADD SWAP1 POP DUP2 DUP2 SUB PUSH1 0x0 DUP4 ADD MSTORE PUSH2 0x4743 DUP2 PUSH2 0x4707 JUMP JUMPDEST SWAP1 POP SWAP2 SWAP1 POP JUMP JUMPDEST PUSH32 0x4949726F6E56657374203A20436C6966662056657374696E672054696D65204D PUSH1 0x0 DUP3 ADD MSTORE PUSH32 0x7573742042652047726561746572205468616E20436C69666620506572696F64 PUSH1 0x20 DUP3 ADD MSTORE POP JUMP JUMPDEST PUSH1 0x0 PUSH2 0x47A6 PUSH1 0x40 DUP4 PUSH2 0x4276 JUMP JUMPDEST SWAP2 POP PUSH2 0x47B1 DUP3 PUSH2 0x474A JUMP JUMPDEST PUSH1 0x40 DUP3 ADD SWAP1 POP SWAP2 SWAP1 POP JUMP JUMPDEST PUSH1 0x0 PUSH1 0x20 DUP3 ADD SWAP1 POP DUP2 DUP2 SUB PUSH1 0x0 DUP4 ADD MSTORE PUSH2 0x47D5 DUP2 PUSH2 0x4799 JUMP JUMPDEST SWAP1 POP SWAP2 SWAP1 POP JUMP JUMPDEST PUSH32 0x4949726F6E56657374203A20436C6966662056657374696E672054696D65204D PUSH1 0x0 DUP3 ADD MSTORE PUSH32 0x757374204265204C6573736572205468616E2056657374696E672054696D6500 PUSH1 0x20 DUP3 ADD MSTORE POP JUMP JUMPDEST PUSH1 0x0 PUSH2 0x4838 PUSH1 0x3F DUP4 PUSH2 0x4276 JUMP JUMPDEST SWAP2 POP PUSH2 0x4843 DUP3 PUSH2 0x47DC JUMP JUMPDEST PUSH1 0x40 DUP3 ADD SWAP1 POP SWAP2 SWAP1 POP JUMP JUMPDEST PUSH1 0x0 PUSH1 0x20 DUP3 ADD SWAP1 POP DUP2 DUP2 SUB PUSH1 0x0 DUP4 ADD MSTORE PUSH2 0x4867 DUP2 PUSH2 0x482B JUMP JUMPDEST SWAP1 POP SWAP2 SWAP1 POP JUMP JUMPDEST PUSH32 0x5369676E6572203A20496E76616C6964207369676E6572000000000000000000 PUSH1 0x0 DUP3 ADD MSTORE POP JUMP JUMPDEST PUSH1 0x0 PUSH2 0x48A4 PUSH1 0x17 DUP4 PUSH2 0x4276 JUMP JUMPDEST SWAP2 POP PUSH2 0x48AF DUP3 PUSH2 0x486E JUMP JUMPDEST PUSH1 0x20 DUP3 ADD SWAP1 POP SWAP2 SWAP1 POP JUMP JUMPDEST PUSH1 0x0 PUSH1 0x20 DUP3 ADD SWAP1 POP DUP2 DUP2 SUB PUSH1 0x0 DUP4 ADD MSTORE PUSH2 0x48D3 DUP2 PUSH2 0x4897 JUMP JUMPDEST SWAP1 POP SWAP2 SWAP1 POP JUMP JUMPDEST PUSH32 0x50657263656E74616765203A50657263656E746167652053686F756C64204265 PUSH1 0x0 DUP3 ADD MSTORE PUSH32 0x206C657373205468616E20203530250000000000000000000000000000000000 PUSH1 0x20 DUP3 ADD MSTORE POP JUMP JUMPDEST PUSH1 0x0 PUSH2 0x4936 PUSH1 0x2F DUP4 PUSH2 0x4276 JUMP JUMPDEST SWAP2 POP PUSH2 0x4941 DUP3 PUSH2 0x48DA JUMP JUMPDEST PUSH1 0x40 DUP3 ADD SWAP1 POP SWAP2 SWAP1 POP JUMP JUMPDEST PUSH1 0x0 PUSH1 0x20 DUP3 ADD SWAP1 POP DUP2 DUP2 SUB PUSH1 0x0 DUP4 ADD MSTORE PUSH2 0x4965 DUP2 PUSH2 0x4929 JUMP JUMPDEST SWAP1 POP SWAP2 SWAP1 POP JUMP JUMPDEST PUSH32 0x50657263656E74616765203A50657263656E746167652053686F756C64204265 PUSH1 0x0 DUP3 ADD MSTORE PUSH32 0x204D6F7265205468616E2020302E312500000000000000000000000000000000 PUSH1 0x20 DUP3 ADD MSTORE POP JUMP JUMPDEST PUSH1 0x0 PUSH2 0x49C8 PUSH1 0x30 DUP4 PUSH2 0x4276 JUMP JUMPDEST SWAP2 POP PUSH2 0x49D3 DUP3 PUSH2 0x496C JUMP JUMPDEST PUSH1 0x40 DUP3 ADD SWAP1 POP SWAP2 SWAP1 POP JUMP JUMPDEST PUSH1 0x0 PUSH1 0x20 DUP3 ADD SWAP1 POP DUP2 DUP2 SUB PUSH1 0x0 DUP4 ADD MSTORE PUSH2 0x49F7 DUP2 PUSH2 0x49BB JUMP JUMPDEST SWAP1 POP SWAP2 SWAP1 POP JUMP JUMPDEST PUSH32 0x4E487B7100000000000000000000000000000000000000000000000000000000 PUSH1 0x0 MSTORE PUSH1 0x32 PUSH1 0x4 MSTORE PUSH1 0x24 PUSH1 0x0 REVERT JUMPDEST PUSH32 0x4E487B7100000000000000000000000000000000000000000000000000000000 PUSH1 0x0 MSTORE PUSH1 0x11 PUSH1 0x4 MSTORE PUSH1 0x24 PUSH1 0x0 REVERT JUMPDEST PUSH1 0x0 PUSH2 0x4A67 DUP3 PUSH2 0x3A2D JUMP JUMPDEST SWAP2 POP PUSH2 0x4A72 DUP4 PUSH2 0x3A2D JUMP JUMPDEST SWAP3 POP DUP3 DUP3 MUL PUSH2 0x4A80 DUP2 PUSH2 0x3A2D JUMP JUMPDEST SWAP2 POP DUP3 DUP3 DIV DUP5 EQ DUP4 ISZERO OR PUSH2 0x4A97 JUMPI PUSH2 0x4A96 PUSH2 0x4A2D JUMP JUMPDEST JUMPDEST POP SWAP3 SWAP2 POP POP JUMP JUMPDEST PUSH32 0x4E487B7100000000000000000000000000000000000000000000000000000000 PUSH1 0x0 MSTORE PUSH1 0x12 PUSH1 0x4 MSTORE PUSH1 0x24 PUSH1 0x0 REVERT JUMPDEST PUSH1 0x0 PUSH2 0x4AD8 DUP3 PUSH2 0x3A2D JUMP JUMPDEST SWAP2 POP PUSH2 0x4AE3 DUP4 PUSH2 0x3A2D JUMP JUMPDEST SWAP3 POP DUP3 PUSH2 0x4AF3 JUMPI PUSH2 0x4AF2 PUSH2 0x4A9E JUMP JUMPDEST JUMPDEST DUP3 DUP3 DIV SWAP1 POP SWAP3 SWAP2 POP POP JUMP JUMPDEST PUSH1 0x0 PUSH2 0x4B09 DUP3 PUSH2 0x3A2D JUMP JUMPDEST SWAP2 POP PUSH2 0x4B14 DUP4 PUSH2 0x3A2D JUMP JUMPDEST SWAP3 POP DUP3 DUP3 ADD SWAP1 POP DUP1 DUP3 GT ISZERO PUSH2 0x4B2C JUMPI PUSH2 0x4B2B PUSH2 0x4A2D JUMP JUMPDEST JUMPDEST SWAP3 SWAP2 POP POP JUMP JUMPDEST PUSH1 0x0 PUSH2 0x4B3D DUP3 PUSH2 0x3A2D JUMP JUMPDEST SWAP2 POP PUSH2 0x4B48 DUP4 PUSH2 0x3A2D JUMP JUMPDEST SWAP3 POP DUP3 DUP3 SUB SWAP1 POP DUP2 DUP2 GT ISZERO PUSH2 0x4B60 JUMPI PUSH2 0x4B5F PUSH2 0x4A2D JUMP JUMPDEST JUMPDEST SWAP3 SWAP2 POP POP JUMP JUMPDEST PUSH1 0x0 PUSH2 0x4B71 DUP3 PUSH2 0x3A2D JUMP JUMPDEST SWAP2 POP PUSH32 0xFFFFFFFFFFFFFFFFFFFFFFFFFFFFFFFFFFFFFFFFFFFFFFFFFFFFFFFFFFFFFFFF DUP3 SUB PUSH2 0x4BA3 JUMPI PUSH2 0x4BA2 PUSH2 0x4A2D JUMP JUMPDEST JUMPDEST PUSH1 0x1 DUP3 ADD SWAP1 POP SWAP2 SWAP1 POP JUMP JUMPDEST PUSH32 0x4E487B7100000000000000000000000000000000000000000000000000000000 PUSH1 0x0 MSTORE PUSH1 0x22 PUSH1 0x4 MSTORE PUSH1 0x24 PUSH1 0x0 REVERT JUMPDEST PUSH1 0x0 PUSH1 0x2 DUP3 DIV SWAP1 POP PUSH1 0x1 DUP3 AND DUP1 PUSH2 0x4BF5 JUMPI PUSH1 0x7F DUP3 AND SWAP2 POP JUMPDEST PUSH1 0x20 DUP3 LT DUP2 SUB PUSH2 0x4C08 JUMPI PUSH2 0x4C07 PUSH2 0x4BAE JUMP JUMPDEST JUMPDEST POP SWAP2 SWAP1 POP JUMP JUMPDEST PUSH1 0x0 DUP2 SWAP1 POP DUP2 PUSH1 0x0 MSTORE PUSH1 0x20 PUSH1 0x0 KECCAK256 SWAP1 POP SWAP2 SWAP1 POP JUMP JUMPDEST PUSH1 0x0 PUSH1 0x20 PUSH1 0x1F DUP4 ADD DIV SWAP1 POP SWAP2 SWAP1 POP JUMP JUMPDEST PUSH1 0x0 DUP3 DUP3 SHL SWAP1 POP SWAP3 SWAP2 POP POP JUMP JUMPDEST PUSH1 0x0 PUSH1 0x8 DUP4 MUL PUSH2 0x4C70 PUSH32 0xFFFFFFFFFFFFFFFFFFFFFFFFFFFFFFFFFFFFFFFFFFFFFFFFFFFFFFFFFFFFFFFF DUP3 PUSH2 0x4C33 JUMP JUMPDEST PUSH2 0x4C7A DUP7 DUP4 PUSH2 0x4C33 JUMP JUMPDEST SWAP6 POP DUP1 NOT DUP5 AND SWAP4 POP DUP1 DUP7 AND DUP5 OR SWAP3 POP POP POP SWAP4 SWAP3 POP POP POP JUMP JUMPDEST PUSH1 0x0 DUP2 SWAP1 POP SWAP2 SWAP1 POP JUMP JUMPDEST PUSH1 0x0 PUSH2 0x4CB7 PUSH2 0x4CB2 PUSH2 0x4CAD DUP5 PUSH2 0x3A2D JUMP JUMPDEST PUSH2 0x4C92 JUMP JUMPDEST PUSH2 0x3A2D JUMP JUMPDEST SWAP1 POP SWAP2 SWAP1 POP JUMP JUMPDEST PUSH1 0x0 DUP2 SWAP1 POP SWAP2 SWAP1 POP JUMP JUMPDEST PUSH2 0x4CD1 DUP4 PUSH2 0x4C9C JUMP JUMPDEST PUSH2 0x4CE5 PUSH2 0x4CDD DUP3 PUSH2 0x4CBE JUMP JUMPDEST DUP5 DUP5 SLOAD PUSH2 0x4C40 JUMP JUMPDEST DUP3 SSTORE POP POP POP POP JUMP JUMPDEST PUSH1 0x0 SWAP1 JUMP JUMPDEST PUSH2 0x4CFA PUSH2 0x4CED JUMP JUMPDEST PUSH2 0x4D05 DUP2 DUP5 DUP5 PUSH2 0x4CC8 JUMP JUMPDEST POP POP POP JUMP JUMPDEST JUMPDEST DUP2 DUP2 LT ISZERO PUSH2 0x4D29 JUMPI PUSH2 0x4D1E PUSH1 0x0 DUP3 PUSH2 0x4CF2 JUMP JUMPDEST PUSH1 0x1 DUP2 ADD SWAP1 POP PUSH2 0x4D0B JUMP JUMPDEST POP POP JUMP JUMPDEST PUSH1 0x1F DUP3 GT ISZERO PUSH2 0x4D6E JUMPI PUSH2 0x4D3F DUP2 PUSH2 0x4C0E JUMP JUMPDEST PUSH2 0x4D48 DUP5 PUSH2 0x4C23 JUMP JUMPDEST DUP2 ADD PUSH1 0x20 DUP6 LT ISZERO PUSH2 0x4D57 JUMPI DUP2 SWAP1 POP JUMPDEST PUSH2 0x4D6B PUSH2 0x4D63 DUP6 PUSH2 0x4C23 JUMP JUMPDEST DUP4 ADD DUP3 PUSH2 0x4D0A JUMP JUMPDEST POP POP JUMPDEST POP POP POP JUMP JUMPDEST PUSH1 0x0 DUP3 DUP3 SHR SWAP1 POP SWAP3 SWAP2 POP POP JUMP JUMPDEST PUSH1 0x0 PUSH2 0x4D91 PUSH1 0x0 NOT DUP5 PUSH1 0x8 MUL PUSH2 0x4D73 JUMP JUMPDEST NOT DUP1 DUP4 AND SWAP2 POP POP SWAP3 SWAP2 POP POP JUMP JUMPDEST PUSH1 0x0 PUSH2 0x4DAA DUP4 DUP4 PUSH2 0x4D80 JUMP JUMPDEST SWAP2 POP DUP3 PUSH1 0x2 MUL DUP3 OR SWAP1 POP SWAP3 SWAP2 POP POP JUMP JUMPDEST PUSH2 0x4DC3 DUP3 PUSH2 0x426B JUMP JUMPDEST PUSH8 0xFFFFFFFFFFFFFFFF DUP2 GT ISZERO PUSH2 0x4DDC JUMPI PUSH2 0x4DDB PUSH2 0x3902 JUMP JUMPDEST JUMPDEST PUSH2 0x4DE6 DUP3 SLOAD PUSH2 0x4BDD JUMP JUMPDEST PUSH2 0x4DF1 DUP3 DUP3 DUP6 PUSH2 0x4D2D JUMP JUMPDEST PUSH1 0x0 PUSH1 0x20 SWAP1 POP PUSH1 0x1F DUP4 GT PUSH1 0x1 DUP2 EQ PUSH2 0x4E24 JUMPI PUSH1 0x0 DUP5 ISZERO PUSH2 0x4E12 JUMPI DUP3 DUP8 ADD MLOAD SWAP1 POP JUMPDEST PUSH2 0x4E1C DUP6 DUP3 PUSH2 0x4D9E JUMP JUMPDEST DUP7 SSTORE POP PUSH2 0x4E84 JUMP JUMPDEST PUSH1 0x1F NOT DUP5 AND PUSH2 0x4E32 DUP7 PUSH2 0x4C0E JUMP JUMPDEST PUSH1 0x0 JUMPDEST DUP3 DUP2 LT ISZERO PUSH2 0x4E5A JUMPI DUP5 DUP10 ADD MLOAD DUP3 SSTORE PUSH1 0x1 DUP3 ADD SWAP2 POP PUSH1 0x20 DUP6 ADD SWAP5 POP PUSH1 0x20 DUP2 ADD SWAP1 POP PUSH2 0x4E35 JUMP JUMPDEST DUP7 DUP4 LT ISZERO PUSH2 0x4E77 JUMPI DUP5 DUP10 ADD MLOAD PUSH2 0x4E73 PUSH1 0x1F DUP10 AND DUP3 PUSH2 0x4D80 JUMP JUMPDEST DUP4 SSTORE POP JUMPDEST PUSH1 0x1 PUSH1 0x2 DUP9 MUL ADD DUP9 SSTORE POP POP POP JUMPDEST POP POP POP POP POP POP JUMP JUMPDEST PUSH1 0x0 DUP2 MLOAD SWAP1 POP SWAP2 SWAP1 POP JUMP JUMPDEST PUSH1 0x0 DUP3 DUP3 MSTORE PUSH1 0x20 DUP3 ADD SWAP1 POP SWAP3 SWAP2 POP POP JUMP JUMPDEST PUSH1 0x0 DUP2 SWAP1 POP PUSH1 0x20 DUP3 ADD SWAP1 POP SWAP2 SWAP1 POP JUMP JUMPDEST PUSH2 0x4EC1 DUP2 PUSH2 0x3A83 JUMP JUMPDEST DUP3 MSTORE POP POP JUMP JUMPDEST PUSH1 0x0 PUSH2 0x4ED3 DUP4 DUP4 PUSH2 0x4EB8 JUMP JUMPDEST PUSH1 0x20 DUP4 ADD SWAP1 POP SWAP3 SWAP2 POP POP JUMP JUMPDEST PUSH1 0x0 PUSH1 0x20 DUP3 ADD SWAP1 POP SWAP2 SWAP1 POP JUMP JUMPDEST PUSH1 0x0 PUSH2 0x4EF7 DUP3 PUSH2 0x4E8C JUMP JUMPDEST PUSH2 0x4F01 DUP2 DUP6 PUSH2 0x4E97 JUMP JUMPDEST SWAP4 POP PUSH2 0x4F0C DUP4 PUSH2 0x4EA8 JUMP JUMPDEST DUP1 PUSH1 0x0 JUMPDEST DUP4 DUP2 LT ISZERO PUSH2 0x4F3D JUMPI DUP2 MLOAD PUSH2 0x4F24 DUP9 DUP3 PUSH2 0x4EC7 JUMP JUMPDEST SWAP8 POP PUSH2 0x4F2F DUP4 PUSH2 0x4EDF JUMP JUMPDEST SWAP3 POP POP PUSH1 0x1 DUP2 ADD SWAP1 POP PUSH2 0x4F10 JUMP JUMPDEST POP DUP6 SWAP4 POP POP POP POP SWAP3 SWAP2 POP POP JUMP JUMPDEST PUSH1 0x0 DUP2 MLOAD SWAP1 POP SWAP2 SWAP1 POP JUMP JUMPDEST PUSH1 0x0 DUP3 DUP3 MSTORE PUSH1 0x20 DUP3 ADD SWAP1 POP SWAP3 SWAP2 POP POP JUMP JUMPDEST PUSH1 0x0 DUP2 SWAP1 POP PUSH1 0x20 DUP3 ADD SWAP1 POP SWAP2 SWAP1 POP JUMP JUMPDEST PUSH2 0x4F7F DUP2 PUSH2 0x3A2D JUMP JUMPDEST DUP3 MSTORE POP POP JUMP JUMPDEST PUSH1 0x0 PUSH2 0x4F91 DUP4 DUP4 PUSH2 0x4F76 JUMP JUMPDEST PUSH1 0x20 DUP4 ADD SWAP1 POP SWAP3 SWAP2 POP POP JUMP JUMPDEST PUSH1 0x0 PUSH1 0x20 DUP3 ADD SWAP1 POP SWAP2 SWAP1 POP JUMP JUMPDEST PUSH1 0x0 PUSH2 0x4FB5 DUP3 PUSH2 0x4F4A JUMP JUMPDEST PUSH2 0x4FBF DUP2 DUP6 PUSH2 0x4F55 JUMP JUMPDEST SWAP4 POP PUSH2 0x4FCA DUP4 PUSH2 0x4F66 JUMP JUMPDEST DUP1 PUSH1 0x0 JUMPDEST DUP4 DUP2 LT ISZERO PUSH2 0x4FFB JUMPI DUP2 MLOAD PUSH2 0x4FE2 DUP9 DUP3 PUSH2 0x4F85 JUMP JUMPDEST SWAP8 POP PUSH2 0x4FED DUP4 PUSH2 0x4F9D JUMP JUMPDEST SWAP3 POP POP PUSH1 0x1 DUP2 ADD SWAP1 POP PUSH2 0x4FCE JUMP JUMPDEST POP DUP6 SWAP4 POP POP POP POP SWAP3 SWAP2 POP POP JUMP JUMPDEST PUSH1 0x0 PUSH2 0x120 DUP3 ADD SWAP1 POP DUP2 DUP2 SUB PUSH1 0x0 DUP4 ADD MSTORE PUSH2 0x5023 DUP2 DUP13 PUSH2 0x42B1 JUMP JUMPDEST SWAP1 POP PUSH2 0x5032 PUSH1 0x20 DUP4 ADD DUP12 PUSH2 0x4165 JUMP JUMPDEST PUSH2 0x503F PUSH1 0x40 DUP4 ADD DUP11 PUSH2 0x4165 JUMP JUMPDEST PUSH2 0x504C PUSH1 0x60 DUP4 ADD DUP10 PUSH2 0x4165 JUMP JUMPDEST PUSH2 0x5059 PUSH1 0x80 DUP4 ADD DUP9 PUSH2 0x4165 JUMP JUMPDEST PUSH2 0x5066 PUSH1 0xA0 DUP4 ADD DUP8 PUSH2 0x3E58 JUMP JUMPDEST PUSH2 0x5073 PUSH1 0xC0 DUP4 ADD DUP7 PUSH2 0x4165 JUMP JUMPDEST DUP2 DUP2 SUB PUSH1 0xE0 DUP4 ADD MSTORE PUSH2 0x5085 DUP2 DUP6 PUSH2 0x4EEC JUMP JUMPDEST SWAP1 POP DUP2 DUP2 SUB PUSH2 0x100 DUP4 ADD MSTORE PUSH2 0x509A DUP2 DUP5 PUSH2 0x4FAA JUMP JUMPDEST SWAP1 POP SWAP11 SWAP10 POP POP POP POP POP POP POP POP POP POP JUMP JUMPDEST PUSH32 0x4D65737361676520616C72656164792075736564000000000000000000000000 PUSH1 0x0 DUP3 ADD MSTORE POP JUMP JUMPDEST PUSH1 0x0 PUSH2 0x50E0 PUSH1 0x14 DUP4 PUSH2 0x4276 JUMP JUMPDEST SWAP2 POP PUSH2 0x50EB DUP3 PUSH2 0x50AA JUMP JUMPDEST PUSH1 0x20 DUP3 ADD SWAP1 POP SWAP2 SWAP1 POP JUMP JUMPDEST PUSH1 0x0 PUSH1 0x20 DUP3 ADD SWAP1 POP DUP2 DUP2 SUB PUSH1 0x0 DUP4 ADD MSTORE PUSH2 0x510F DUP2 PUSH2 0x50D3 JUMP JUMPDEST SWAP1 POP SWAP2 SWAP1 POP JUMP JUMPDEST PUSH32 0x416363657373436F6E74726F6C3A2063616E206F6E6C792072656E6F756E6365 PUSH1 0x0 DUP3 ADD MSTORE PUSH32 0x20726F6C657320666F722073656C660000000000000000000000000000000000 PUSH1 0x20 DUP3 ADD MSTORE POP JUMP JUMPDEST PUSH1 0x0 PUSH2 0x5172 PUSH1 0x2F DUP4 PUSH2 0x4276 JUMP JUMPDEST SWAP2 POP PUSH2 0x517D DUP3 PUSH2 0x5116 JUMP JUMPDEST PUSH1 0x40 DUP3 ADD SWAP1 POP SWAP2 SWAP1 POP JUMP JUMPDEST PUSH1 0x0 PUSH1 0x20 DUP3 ADD SWAP1 POP DUP2 DUP2 SUB PUSH1 0x0 DUP4 ADD MSTORE PUSH2 0x51A1 DUP2 PUSH2 0x5165 JUMP JUMPDEST SWAP1 POP SWAP2 SWAP1 POP JUMP JUMPDEST PUSH32 0x4949726F6E56657374203A20496E76616C6964205472616E7366657241626C65 PUSH1 0x0 DUP3 ADD MSTORE POP JUMP JUMPDEST PUSH1 0x0 PUSH2 0x51DE PUSH1 0x20 DUP4 PUSH2 0x4276 JUMP JUMPDEST SWAP2 POP PUSH2 0x51E9 DUP3 PUSH2 0x51A8 JUMP JUMPDEST PUSH1 0x20 DUP3 ADD SWAP1 POP SWAP2 SWAP1 POP JUMP JUMPDEST PUSH1 0x0 PUSH1 0x20 DUP3 ADD SWAP1 POP DUP2 DUP2 SUB PUSH1 0x0 DUP4 ADD MSTORE PUSH2 0x520D DUP2 PUSH2 0x51D1 JUMP JUMPDEST SWAP1 POP SWAP2 SWAP1 POP JUMP JUMPDEST PUSH1 0x0 PUSH1 0x40 DUP3 ADD SWAP1 POP PUSH2 0x5229 PUSH1 0x0 DUP4 ADD DUP6 PUSH2 0x4165 JUMP JUMPDEST PUSH2 0x5236 PUSH1 0x20 DUP4 ADD DUP5 PUSH2 0x4165 JUMP JUMPDEST SWAP4 SWAP3 POP POP POP JUMP JUMPDEST PUSH32 0x4949726F6E56657374203A2056657374696E6720456E642054696D652053686F PUSH1 0x0 DUP3 ADD MSTORE PUSH32 0x756C642042652047726561746572205468616E2043757272656E742054696D65 PUSH1 0x20 DUP3 ADD MSTORE POP JUMP JUMPDEST PUSH1 0x0 PUSH2 0x5299 PUSH1 0x40 DUP4 PUSH2 0x4276 JUMP JUMPDEST SWAP2 POP PUSH2 0x52A4 DUP3 PUSH2 0x523D JUMP JUMPDEST PUSH1 0x40 DUP3 ADD SWAP1 POP SWAP2 SWAP1 POP JUMP JUMPDEST PUSH1 0x0 PUSH1 0x20 DUP3 ADD SWAP1 POP DUP2 DUP2 SUB PUSH1 0x0 DUP4 ADD MSTORE PUSH2 0x52C8 DUP2 PUSH2 0x528C JUMP JUMPDEST SWAP1 POP SWAP2 SWAP1 POP JUMP JUMPDEST PUSH1 0x0 PUSH1 0xE0 DUP3 ADD SWAP1 POP DUP2 DUP2 SUB PUSH1 0x0 DUP4 ADD MSTORE PUSH2 0x52E9 DUP2 DUP11 PUSH2 0x42B1 JUMP JUMPDEST SWAP1 POP PUSH2 0x52F8 PUSH1 0x20 DUP4 ADD DUP10 PUSH2 0x4165 JUMP JUMPDEST PUSH2 0x5305 PUSH1 0x40 DUP4 ADD DUP9 PUSH2 0x4165 JUMP JUMPDEST PUSH2 0x5312 PUSH1 0x60 DUP4 ADD DUP8 PUSH2 0x3E58 JUMP JUMPDEST PUSH2 0x531F PUSH1 0x80 DUP4 ADD DUP7 PUSH2 0x4165 JUMP JUMPDEST DUP2 DUP2 SUB PUSH1 0xA0 DUP4 ADD MSTORE PUSH2 0x5331 DUP2 DUP6 PUSH2 0x4EEC JUMP JUMPDEST SWAP1 POP DUP2 DUP2 SUB PUSH1 0xC0 DUP4 ADD MSTORE PUSH2 0x5345 DUP2 DUP5 PUSH2 0x4FAA JUMP JUMPDEST SWAP1 POP SWAP9 SWAP8 POP POP POP POP POP POP POP POP JUMP JUMPDEST PUSH32 0x41636365737344656E696564203A204F6E6C792041646D696E2043616C6C2054 PUSH1 0x0 DUP3 ADD MSTORE PUSH32 0x6869732046756E6374696F6E0000000000000000000000000000000000000000 PUSH1 0x20 DUP3 ADD MSTORE POP JUMP JUMPDEST PUSH1 0x0 PUSH2 0x53AF PUSH1 0x2C DUP4 PUSH2 0x4276 JUMP JUMPDEST SWAP2 POP PUSH2 0x53BA DUP3 PUSH2 0x5353 JUMP JUMPDEST PUSH1 0x40 DUP3 ADD SWAP1 POP SWAP2 SWAP1 POP JUMP JUMPDEST PUSH1 0x0 PUSH1 0x20 DUP3 ADD SWAP1 POP DUP2 DUP2 SUB PUSH1 0x0 DUP4 ADD MSTORE PUSH2 0x53DE DUP2 PUSH2 0x53A2 JUMP JUMPDEST SWAP1 POP SWAP2 SWAP1 POP JUMP JUMPDEST PUSH32 0x496E76616C6964203A205369676E6572204164647265737320497320496E7661 PUSH1 0x0 DUP3 ADD MSTORE PUSH32 0x6C69640000000000000000000000000000000000000000000000000000000000 PUSH1 0x20 DUP3 ADD MSTORE POP JUMP JUMPDEST PUSH1 0x0 PUSH2 0x5441 PUSH1 0x23 DUP4 PUSH2 0x4276 JUMP JUMPDEST SWAP2 POP PUSH2 0x544C DUP3 PUSH2 0x53E5 JUMP JUMPDEST PUSH1 0x40 DUP3 ADD SWAP1 POP SWAP2 SWAP1 POP JUMP JUMPDEST PUSH1 0x0 PUSH1 0x20 DUP3 ADD SWAP1 POP DUP2 DUP2 SUB PUSH1 0x0 DUP4 ADD MSTORE PUSH2 0x5470 DUP2 PUSH2 0x5434 JUMP JUMPDEST SWAP1 POP SWAP2 SWAP1 POP JUMP JUMPDEST PUSH32 0x496E697469616C697A61626C653A20636F6E747261637420697320616C726561 PUSH1 0x0 DUP3 ADD MSTORE PUSH32 0x647920696E697469616C697A6564000000000000000000000000000000000000 PUSH1 0x20 DUP3 ADD MSTORE POP JUMP JUMPDEST PUSH1 0x0 PUSH2 0x54D3 PUSH1 0x2E DUP4 PUSH2 0x4276 JUMP JUMPDEST SWAP2 POP PUSH2 0x54DE DUP3 PUSH2 0x5477 JUMP JUMPDEST PUSH1 0x40 DUP3 ADD SWAP1 POP SWAP2 SWAP1 POP JUMP JUMPDEST PUSH1 0x0 PUSH1 0x20 DUP3 ADD SWAP1 POP DUP2 DUP2 SUB PUSH1 0x0 DUP4 ADD MSTORE PUSH2 0x5502 DUP2 PUSH2 0x54C6 JUMP JUMPDEST SWAP1 POP SWAP2 SWAP1 POP JUMP JUMPDEST PUSH1 0x0 DUP2 SWAP1 POP SWAP2 SWAP1 POP JUMP JUMPDEST PUSH1 0x0 PUSH1 0xFF DUP3 AND SWAP1 POP SWAP2 SWAP1 POP JUMP JUMPDEST PUSH1 0x0 PUSH2 0x553B PUSH2 0x5536 PUSH2 0x5531 DUP5 PUSH2 0x5509 JUMP JUMPDEST PUSH2 0x4C92 JUMP JUMPDEST PUSH2 0x5513 JUMP JUMPDEST SWAP1 POP SWAP2 SWAP1 POP JUMP JUMPDEST PUSH2 0x554B DUP2 PUSH2 0x5520 JUMP JUMPDEST DUP3 MSTORE POP POP JUMP JUMPDEST PUSH1 0x0 PUSH1 0x20 DUP3 ADD SWAP1 POP PUSH2 0x5566 PUSH1 0x0 DUP4 ADD DUP5 PUSH2 0x5542 JUMP JUMPDEST SWAP3 SWAP2 POP POP JUMP JUMPDEST PUSH32 0x4949726F6E56657374203A20436C69666620506572696F64204973204E6F7420 PUSH1 0x0 DUP3 ADD MSTORE PUSH32 0x4F76657220596574000000000000000000000000000000000000000000000000 PUSH1 0x20 DUP3 ADD MSTORE POP JUMP JUMPDEST PUSH1 0x0 PUSH2 0x55C8 PUSH1 0x28 DUP4 PUSH2 0x4276 JUMP JUMPDEST SWAP2 POP PUSH2 0x55D3 DUP3 PUSH2 0x556C JUMP JUMPDEST PUSH1 0x40 DUP3 ADD SWAP1 POP SWAP2 SWAP1 POP JUMP JUMPDEST PUSH1 0x0 PUSH1 0x20 DUP3 ADD SWAP1 POP DUP2 DUP2 SUB PUSH1 0x0 DUP4 ADD MSTORE PUSH2 0x55F7 DUP2 PUSH2 0x55BB JUMP JUMPDEST SWAP1 POP SWAP2 SWAP1 POP JUMP JUMPDEST PUSH32 0x416C6C6F636174696F6E203A20596F7520446F6E2774206861766520616C6C6F PUSH1 0x0 DUP3 ADD MSTORE PUSH32 0x636174696F6E20696E207468697320706F6F6C00000000000000000000000000 PUSH1 0x20 DUP3 ADD MSTORE POP JUMP JUMPDEST PUSH1 0x0 PUSH2 0x565A PUSH1 0x33 DUP4 PUSH2 0x4276 JUMP JUMPDEST SWAP2 POP PUSH2 0x5665 DUP3 PUSH2 0x55FE JUMP JUMPDEST PUSH1 0x40 DUP3 ADD SWAP1 POP SWAP2 SWAP1 POP JUMP JUMPDEST PUSH1 0x0 PUSH1 0x20 DUP3 ADD SWAP1 POP DUP2 DUP2 SUB PUSH1 0x0 DUP4 ADD MSTORE PUSH2 0x5689 DUP2 PUSH2 0x564D JUMP JUMPDEST SWAP1 POP SWAP2 SWAP1 POP JUMP JUMPDEST PUSH1 0x0 PUSH1 0x60 DUP3 ADD SWAP1 POP PUSH2 0x56A5 PUSH1 0x0 DUP4 ADD DUP7 PUSH2 0x3E58 JUMP JUMPDEST PUSH2 0x56B2 PUSH1 0x20 DUP4 ADD DUP6 PUSH2 0x3E58 JUMP JUMPDEST PUSH2 0x56BF PUSH1 0x40 DUP4 ADD DUP5 PUSH2 0x4165 JUMP JUMPDEST SWAP5 SWAP4 POP POP POP POP JUMP JUMPDEST PUSH1 0x0 DUP2 SWAP1 POP SWAP3 SWAP2 POP POP JUMP JUMPDEST PUSH1 0x0 PUSH2 0x56DD DUP3 PUSH2 0x426B JUMP JUMPDEST PUSH2 0x56E7 DUP2 DUP6 PUSH2 0x56C7 JUMP JUMPDEST SWAP4 POP PUSH2 0x56F7 DUP2 DUP6 PUSH1 0x20 DUP7 ADD PUSH2 0x4287 JUMP JUMPDEST DUP1 DUP5 ADD SWAP2 POP POP SWAP3 SWAP2 POP POP JUMP JUMPDEST PUSH1 0x0 DUP2 PUSH1 0x60 SHL SWAP1 POP SWAP2 SWAP1 POP JUMP JUMPDEST PUSH1 0x0 PUSH2 0x571B DUP3 PUSH2 0x5703 JUMP JUMPDEST SWAP1 POP SWAP2 SWAP1 POP JUMP JUMPDEST PUSH1 0x0 PUSH2 0x572D DUP3 PUSH2 0x5710 JUMP JUMPDEST SWAP1 POP SWAP2 SWAP1 POP JUMP JUMPDEST PUSH2 0x5745 PUSH2 0x5740 DUP3 PUSH2 0x3A83 JUMP JUMPDEST PUSH2 0x5722 JUMP JUMPDEST DUP3 MSTORE POP POP JUMP JUMPDEST PUSH1 0x0 DUP2 MLOAD SWAP1 POP SWAP2 SWAP1 POP JUMP JUMPDEST PUSH1 0x0 DUP2 SWAP1 POP SWAP3 SWAP2 POP POP JUMP JUMPDEST PUSH1 0x0 PUSH2 0x576C DUP3 PUSH2 0x574B JUMP JUMPDEST PUSH2 0x5776 DUP2 DUP6 PUSH2 0x5756 JUMP JUMPDEST SWAP4 POP PUSH2 0x5786 DUP2 DUP6 PUSH1 0x20 DUP7 ADD PUSH2 0x4287 JUMP JUMPDEST DUP1 DUP5 ADD SWAP2 POP POP SWAP3 SWAP2 POP POP JUMP JUMPDEST PUSH1 0x0 DUP2 SWAP1 POP SWAP2 SWAP1 POP JUMP JUMPDEST PUSH2 0x57AD PUSH2 0x57A8 DUP3 PUSH2 0x3A2D JUMP JUMPDEST PUSH2 0x5792 JUMP JUMPDEST DUP3 MSTORE POP POP JUMP JUMPDEST PUSH1 0x0 PUSH2 0x57BF DUP3 DUP8 PUSH2 0x56D2 JUMP JUMPDEST SWAP2 POP PUSH2 0x57CB DUP3 DUP7 PUSH2 0x5734 JUMP JUMPDEST PUSH1 0x14 DUP3 ADD SWAP2 POP PUSH2 0x57DB DUP3 DUP6 PUSH2 0x5761 JUMP JUMPDEST SWAP2 POP PUSH2 0x57E7 DUP3 DUP5 PUSH2 0x579C JUMP JUMPDEST PUSH1 0x20 DUP3 ADD SWAP2 POP DUP2 SWAP1 POP SWAP6 SWAP5 POP POP POP POP POP JUMP JUMPDEST PUSH32 0x696E76616C6964207369676E6174757265206C656E6774680000000000000000 PUSH1 0x0 DUP3 ADD MSTORE POP JUMP JUMPDEST PUSH1 0x0 PUSH2 0x582F PUSH1 0x18 DUP4 PUSH2 0x4276 JUMP JUMPDEST SWAP2 POP PUSH2 0x583A DUP3 PUSH2 0x57F9 JUMP JUMPDEST PUSH1 0x20 DUP3 ADD SWAP1 POP SWAP2 SWAP1 POP JUMP JUMPDEST PUSH1 0x0 PUSH1 0x20 DUP3 ADD SWAP1 POP DUP2 DUP2 SUB PUSH1 0x0 DUP4 ADD MSTORE PUSH2 0x585E DUP2 PUSH2 0x5822 JUMP JUMPDEST SWAP1 POP SWAP2 SWAP1 POP JUMP JUMPDEST PUSH1 0x0 DUP2 SWAP1 POP SWAP2 SWAP1 POP JUMP JUMPDEST PUSH2 0x5880 PUSH2 0x587B DUP3 PUSH2 0x3E82 JUMP JUMPDEST PUSH2 0x5865 JUMP JUMPDEST DUP3 MSTORE POP POP JUMP JUMPDEST PUSH1 0x0 PUSH2 0x5892 DUP3 DUP6 PUSH2 0x5761 JUMP JUMPDEST SWAP2 POP PUSH2 0x589E DUP3 DUP5 PUSH2 0x586F JUMP JUMPDEST PUSH1 0x20 DUP3 ADD SWAP2 POP DUP2 SWAP1 POP SWAP4 SWAP3 POP POP POP JUMP JUMPDEST PUSH2 0x58B7 DUP2 PUSH2 0x5513 JUMP JUMPDEST DUP3 MSTORE POP POP JUMP JUMPDEST PUSH1 0x0 PUSH1 0x80 DUP3 ADD SWAP1 POP PUSH2 0x58D2 PUSH1 0x0 DUP4 ADD DUP8 PUSH2 0x3EE5 JUMP JUMPDEST PUSH2 0x58DF PUSH1 0x20 DUP4 ADD DUP7 PUSH2 0x58AE JUMP JUMPDEST PUSH2 0x58EC PUSH1 0x40 DUP4 ADD DUP6 PUSH2 0x3EE5 JUMP JUMPDEST PUSH2 0x58F9 PUSH1 0x60 DUP4 ADD DUP5 PUSH2 0x3EE5 JUMP JUMPDEST SWAP6 SWAP5 POP POP POP POP POP JUMP JUMPDEST PUSH1 0x0 PUSH1 0x40 DUP3 ADD SWAP1 POP PUSH2 0x5917 PUSH1 0x0 DUP4 ADD DUP6 PUSH2 0x3E58 JUMP JUMPDEST PUSH2 0x5924 PUSH1 0x20 DUP4 ADD DUP5 PUSH2 0x4165 JUMP JUMPDEST SWAP4 SWAP3 POP POP POP JUMP JUMPDEST PUSH32 0x496E697469616C697A61626C653A20636F6E7472616374206973206E6F742069 PUSH1 0x0 DUP3 ADD MSTORE PUSH32 0x6E697469616C697A696E67000000000000000000000000000000000000000000 PUSH1 0x20 DUP3 ADD MSTORE POP JUMP JUMPDEST PUSH1 0x0 PUSH2 0x5987 PUSH1 0x2B DUP4 PUSH2 0x4276 JUMP JUMPDEST SWAP2 POP PUSH2 0x5992 DUP3 PUSH2 0x592B JUMP JUMPDEST PUSH1 0x40 DUP3 ADD SWAP1 POP SWAP2 SWAP1 POP JUMP JUMPDEST PUSH1 0x0 PUSH1 0x20 DUP3 ADD SWAP1 POP DUP2 DUP2 SUB PUSH1 0x0 DUP4 ADD MSTORE PUSH2 0x59B6 DUP2 PUSH2 0x597A JUMP JUMPDEST SWAP1 POP SWAP2 SWAP1 POP JUMP JUMPDEST PUSH2 0x59C6 DUP2 PUSH2 0x38B1 JUMP JUMPDEST DUP2 EQ PUSH2 0x59D1 JUMPI PUSH1 0x0 DUP1 REVERT JUMPDEST POP JUMP JUMPDEST PUSH1 0x0 DUP2 MLOAD SWAP1 POP PUSH2 0x59E3 DUP2 PUSH2 0x59BD JUMP JUMPDEST SWAP3 SWAP2 POP POP JUMP JUMPDEST PUSH1 0x0 PUSH1 0x20 DUP3 DUP5 SUB SLT ISZERO PUSH2 0x59FF JUMPI PUSH2 0x59FE PUSH2 0x3822 JUMP JUMPDEST JUMPDEST PUSH1 0x0 PUSH2 0x5A0D DUP5 DUP3 DUP6 ADD PUSH2 0x59D4 JUMP JUMPDEST SWAP2 POP POP SWAP3 SWAP2 POP POP JUMP JUMPDEST PUSH32 0x5361666545524332303A204552433230206F7065726174696F6E20646964206E PUSH1 0x0 DUP3 ADD MSTORE PUSH32 0x6F74207375636365656400000000000000000000000000000000000000000000 PUSH1 0x20 DUP3 ADD MSTORE POP JUMP JUMPDEST PUSH1 0x0 PUSH2 0x5A72 PUSH1 0x2A DUP4 PUSH2 0x4276 JUMP JUMPDEST SWAP2 POP PUSH2 0x5A7D DUP3 PUSH2 0x5A16 JUMP JUMPDEST PUSH1 0x40 DUP3 ADD SWAP1 POP SWAP2 SWAP1 POP JUMP JUMPDEST PUSH1 0x0 PUSH1 0x20 DUP3 ADD SWAP1 POP DUP2 DUP2 SUB PUSH1 0x0 DUP4 ADD MSTORE PUSH2 0x5AA1 DUP2 PUSH2 0x5A65 JUMP JUMPDEST SWAP1 POP SWAP2 SWAP1 POP JUMP JUMPDEST PUSH32 0x416363657373436F6E74726F6C3A206163636F756E7420000000000000000000 PUSH1 0x0 DUP3 ADD MSTORE POP JUMP JUMPDEST PUSH1 0x0 PUSH2 0x5ADE PUSH1 0x17 DUP4 PUSH2 0x56C7 JUMP JUMPDEST SWAP2 POP PUSH2 0x5AE9 DUP3 PUSH2 0x5AA8 JUMP JUMPDEST PUSH1 0x17 DUP3 ADD SWAP1 POP SWAP2 SWAP1 POP JUMP JUMPDEST PUSH32 0x206973206D697373696E6720726F6C6520000000000000000000000000000000 PUSH1 0x0 DUP3 ADD MSTORE POP JUMP JUMPDEST PUSH1 0x0 PUSH2 0x5B2A PUSH1 0x11 DUP4 PUSH2 0x56C7 JUMP JUMPDEST SWAP2 POP PUSH2 0x5B35 DUP3 PUSH2 0x5AF4 JUMP JUMPDEST PUSH1 0x11 DUP3 ADD SWAP1 POP SWAP2 SWAP1 POP JUMP JUMPDEST PUSH1 0x0 PUSH2 0x5B4B DUP3 PUSH2 0x5AD1 JUMP JUMPDEST SWAP2 POP PUSH2 0x5B57 DUP3 DUP6 PUSH2 0x56D2 JUMP JUMPDEST SWAP2 POP PUSH2 0x5B62 DUP3 PUSH2 0x5B1D JUMP JUMPDEST SWAP2 POP PUSH2 0x5B6E DUP3 DUP5 PUSH2 0x56D2 JUMP JUMPDEST SWAP2 POP DUP2 SWAP1 POP SWAP4 SWAP3 POP POP POP JUMP JUMPDEST PUSH1 0x0 PUSH2 0x5B85 DUP3 PUSH2 0x3A2D JUMP JUMPDEST SWAP2 POP PUSH1 0x0 DUP3 SUB PUSH2 0x5B98 JUMPI PUSH2 0x5B97 PUSH2 0x4A2D JUMP JUMPDEST JUMPDEST PUSH1 0x1 DUP3 SUB SWAP1 POP SWAP2 SWAP1 POP JUMP JUMPDEST PUSH32 0x537472696E67733A20686578206C656E67746820696E73756666696369656E74 PUSH1 0x0 DUP3 ADD MSTORE POP JUMP JUMPDEST PUSH1 0x0 PUSH2 0x5BD9 PUSH1 0x20 DUP4 PUSH2 0x4276 JUMP JUMPDEST SWAP2 POP PUSH2 0x5BE4 DUP3 PUSH2 0x5BA3 JUMP JUMPDEST PUSH1 0x20 DUP3 ADD SWAP1 POP SWAP2 SWAP1 POP JUMP JUMPDEST PUSH1 0x0 PUSH1 0x20 DUP3 ADD SWAP1 POP DUP2 DUP2 SUB PUSH1 0x0 DUP4 ADD MSTORE PUSH2 0x5C08 DUP2 PUSH2 0x5BCC JUMP JUMPDEST SWAP1 POP SWAP2 SWAP1 POP JUMP JUMPDEST PUSH32 0x416464726573733A20696E73756666696369656E742062616C616E636520666F PUSH1 0x0 DUP3 ADD MSTORE PUSH32 0x722063616C6C0000000000000000000000000000000000000000000000000000 PUSH1 0x20 DUP3 ADD MSTORE POP JUMP JUMPDEST PUSH1 0x0 PUSH2 0x5C6B PUSH1 0x26 DUP4 PUSH2 0x4276 JUMP JUMPDEST SWAP2 POP PUSH2 0x5C76 DUP3 PUSH2 0x5C0F JUMP JUMPDEST PUSH1 0x40 DUP3 ADD SWAP1 POP SWAP2 SWAP1 POP JUMP JUMPDEST PUSH1 0x0 PUSH1 0x20 DUP3 ADD SWAP1 POP DUP2 DUP2 SUB PUSH1 0x0 DUP4 ADD MSTORE PUSH2 0x5C9A DUP2 PUSH2 0x5C5E JUMP JUMPDEST SWAP1 POP SWAP2 SWAP1 POP JUMP JUMPDEST PUSH32 0x416464726573733A2063616C6C20746F206E6F6E2D636F6E7472616374000000 PUSH1 0x0 DUP3 ADD MSTORE POP JUMP JUMPDEST PUSH1 0x0 PUSH2 0x5CD7 PUSH1 0x1D DUP4 PUSH2 0x4276 JUMP JUMPDEST SWAP2 POP PUSH2 0x5CE2 DUP3 PUSH2 0x5CA1 JUMP JUMPDEST PUSH1 0x20 DUP3 ADD SWAP1 POP SWAP2 SWAP1 POP JUMP JUMPDEST PUSH1 0x0 PUSH1 0x20 DUP3 ADD SWAP1 POP DUP2 DUP2 SUB PUSH1 0x0 DUP4 ADD MSTORE PUSH2 0x5D06 DUP2 PUSH2 0x5CCA JUMP JUMPDEST SWAP1 POP SWAP2 SWAP1 POP JUMP JUMPDEST PUSH1 0x0 PUSH2 0x5D19 DUP3 DUP5 PUSH2 0x5761 JUMP JUMPDEST SWAP2 POP DUP2 SWAP1 POP SWAP3 SWAP2 POP POP JUMP INVALID LOG2 PUSH5 0x6970667358 0x22 SLT KECCAK256 DUP16 0xCE DUP11 0xA8 NUMBER PUSH31 0xB4CF399F4C63EDF7AC5AA6BD78383B6419CA07A8F6250F7C9A4164736F6C63 NUMBER STOP ADDMOD GT STOP CALLER "
		},
		"gasEstimates": {
			"creation": {
				"codeDepositCost": "4779600",
				"executionCost": "5622",
				"totalCost": "4785222"
			},
			"external": {
				"DEFAULT_ADMIN_ROLE()": "446",
				"VESTER_ROLE()": "374",
				"addCliffVesting(string,uint256,uint256,uint256,address,uint256,address[],uint256[],bytes,bytes)": "infinite",
				"addVesting(string,uint256,address,address[],uint256[],bytes,bytes)": "infinite",
				"claim(uint256)": "infinite",
				"claimCliff(uint256)": "infinite",
				"claimNonCliff(uint256)": "infinite",
				"claimable(uint256,address)": "infinite",
				"cliff(uint256)": "2864",
				"cliffClaimable(uint256,address)": "infinite",
				"emergencyWithdraw(address,uint256)": "infinite",
				"getRoleAdmin(bytes32)": "infinite",
				"grantRole(bytes32,address)": "infinite",
				"hasRole(bytes32,address)": "3208",
				"initialize(string,address)": "infinite",
				"nonCliffClaimable(uint256,address)": "infinite",
				"poolInformation(uint256)": "infinite",
				"renounceRole(bytes32,address)": "infinite",
				"revokeRole(bytes32,address)": "infinite",
				"setSigner(address)": "27261",
				"signatureVerification(bytes,string,address,bytes)": "infinite",
				"signer()": "2605",
				"supportsInterface(bytes4)": "774",
				"usedHashes(bytes32)": "2863",
				"userCliffInfo(uint256,address)": "infinite",
				"userInfo(uint256,address)": "infinite",
				"userNonCliffInfo(uint256,address)": "infinite",
				"vestingContractName()": "infinite",
				"vestingPoolSize()": "2474"
			},
			"internal": {
				"_messageHash(string memory,address,bytes memory)": "infinite",
				"_splitSignature(bytes memory)": "infinite",
				"_verifyMessage(bytes32,uint8,bytes32,bytes32)": "infinite"
			}
		},
		"methodIdentifiers": {
			"DEFAULT_ADMIN_ROLE()": "a217fddf",
			"VESTER_ROLE()": "ae5ad227",
			"addCliffVesting(string,uint256,uint256,uint256,address,uint256,address[],uint256[],bytes,bytes)": "07ac1762",
			"addVesting(string,uint256,address,address[],uint256[],bytes,bytes)": "48c0d662",
			"claim(uint256)": "379607f5",
			"claimCliff(uint256)": "ef89d3fe",
			"claimNonCliff(uint256)": "92fd33f2",
			"claimable(uint256,address)": "a0c7f71c",
			"cliff(uint256)": "42c3cb55",
			"cliffClaimable(uint256,address)": "e82cd8bf",
			"emergencyWithdraw(address,uint256)": "95ccea67",
			"getRoleAdmin(bytes32)": "248a9ca3",
			"grantRole(bytes32,address)": "2f2ff15d",
			"hasRole(bytes32,address)": "91d14854",
			"initialize(string,address)": "7ab4339d",
			"nonCliffClaimable(uint256,address)": "be07b52f",
			"poolInformation(uint256)": "6e50132f",
			"renounceRole(bytes32,address)": "36568abe",
			"revokeRole(bytes32,address)": "d547741f",
			"setSigner(address)": "6c19e783",
			"signatureVerification(bytes,string,address,bytes)": "28a9a6c2",
			"signer()": "238ac933",
			"supportsInterface(bytes4)": "01ffc9a7",
			"usedHashes(bytes32)": "aef18bf7",
			"userCliffInfo(uint256,address)": "ebb48c3b",
			"userInfo(uint256,address)": "93f1a40b",
			"userNonCliffInfo(uint256,address)": "5889be46",
			"vestingContractName()": "df2786ee",
			"vestingPoolSize()": "4a0bfeeb"
		}
	},
	"abi": [
		{
			"anonymous": false,
			"inputs": [
				{
					"indexed": true,
					"internalType": "address",
					"name": "vester",
					"type": "address"
				},
				{
					"indexed": true,
					"internalType": "uint256",
					"name": "poolId",
					"type": "uint256"
				},
				{
					"indexed": false,
					"internalType": "string",
					"name": "poolName",
					"type": "string"
				},
				{
					"indexed": false,
					"internalType": "uint256",
					"name": "startTime",
					"type": "uint256"
				},
				{
					"indexed": false,
					"internalType": "uint256",
					"name": "vestingEndTime",
					"type": "uint256"
				},
				{
					"indexed": false,
					"internalType": "address",
					"name": "tokenAddress",
					"type": "address"
				},
				{
					"indexed": false,
					"internalType": "uint256",
					"name": "totalVestedTokens",
					"type": "uint256"
				},
				{
					"indexed": false,
					"internalType": "address[]",
					"name": "usersAddresses",
					"type": "address[]"
				},
				{
					"indexed": false,
					"internalType": "uint256[]",
					"name": "usersAlloc",
					"type": "uint256[]"
				}
			],
			"name": "AddVesting",
			"type": "event"
		},
		{
			"anonymous": false,
			"inputs": [
				{
					"indexed": true,
					"internalType": "uint256",
					"name": "poolId",
					"type": "uint256"
				},
				{
					"indexed": false,
					"internalType": "uint256",
					"name": "claimed",
					"type": "uint256"
				},
				{
					"indexed": true,
					"internalType": "address",
					"name": "beneficiary",
					"type": "address"
				},
				{
					"indexed": false,
					"internalType": "uint256",
					"name": "remaining",
					"type": "uint256"
				}
			],
			"name": "Claim",
			"type": "event"
		},
		{
			"anonymous": false,
			"inputs": [
				{
					"indexed": true,
					"internalType": "address",
					"name": "vester",
					"type": "address"
				},
				{
					"indexed": true,
					"internalType": "uint256",
					"name": "poolId",
					"type": "uint256"
				},
				{
					"indexed": false,
					"internalType": "string",
					"name": "poolName",
					"type": "string"
				},
				{
					"indexed": false,
					"internalType": "uint256",
					"name": "vestingEndTime",
					"type": "uint256"
				},
				{
					"indexed": false,
					"internalType": "uint256",
					"name": "cliffVestingEndTime",
					"type": "uint256"
				},
				{
					"indexed": false,
					"internalType": "uint256",
					"name": "nonCliffVestingPeriod",
					"type": "uint256"
				},
				{
					"indexed": false,
					"internalType": "uint256",
					"name": "cliffPeriodEndTime",
					"type": "uint256"
				},
				{
					"indexed": false,
					"internalType": "address",
					"name": "tokenAddress",
					"type": "address"
				},
				{
					"indexed": false,
					"internalType": "uint256",
					"name": "totalVestedTokens",
					"type": "uint256"
				},
				{
					"indexed": false,
					"internalType": "address[]",
					"name": "usersAddresses",
					"type": "address[]"
				},
				{
					"indexed": false,
					"internalType": "uint256[]",
					"name": "usersAlloc",
					"type": "uint256[]"
				}
			],
			"name": "CliffAddVesting",
			"type": "event"
		},
		{
			"anonymous": false,
			"inputs": [
				{
					"indexed": true,
					"internalType": "uint256",
					"name": "poolId",
					"type": "uint256"
				},
				{
					"indexed": false,
					"internalType": "uint256",
					"name": "claimed",
					"type": "uint256"
				},
				{
					"indexed": true,
					"internalType": "address",
					"name": "beneficiary",
					"type": "address"
				},
				{
					"indexed": false,
					"internalType": "uint256",
					"name": "remaining",
					"type": "uint256"
				}
			],
			"name": "CliffClaim",
			"type": "event"
		},
		{
			"anonymous": false,
			"inputs": [
				{
					"indexed": false,
					"internalType": "uint8",
					"name": "version",
					"type": "uint8"
				}
			],
			"name": "Initialized",
			"type": "event"
		},
		{
			"anonymous": false,
			"inputs": [
				{
					"indexed": true,
					"internalType": "uint256",
					"name": "poolId",
					"type": "uint256"
				},
				{
					"indexed": false,
					"internalType": "uint256",
					"name": "claimed",
					"type": "uint256"
				},
				{
					"indexed": true,
					"internalType": "address",
					"name": "beneficiary",
					"type": "address"
				},
				{
					"indexed": false,
					"internalType": "uint256",
					"name": "remaining",
					"type": "uint256"
				}
			],
			"name": "NonCliffClaim",
			"type": "event"
		},
		{
			"anonymous": false,
			"inputs": [
				{
					"indexed": true,
					"internalType": "bytes32",
					"name": "role",
					"type": "bytes32"
				},
				{
					"indexed": true,
					"internalType": "bytes32",
					"name": "previousAdminRole",
					"type": "bytes32"
				},
				{
					"indexed": true,
					"internalType": "bytes32",
					"name": "newAdminRole",
					"type": "bytes32"
				}
			],
			"name": "RoleAdminChanged",
			"type": "event"
		},
		{
			"anonymous": false,
			"inputs": [
				{
					"indexed": true,
					"internalType": "bytes32",
					"name": "role",
					"type": "bytes32"
				},
				{
					"indexed": true,
					"internalType": "address",
					"name": "account",
					"type": "address"
				},
				{
					"indexed": true,
					"internalType": "address",
					"name": "sender",
					"type": "address"
				}
			],
			"name": "RoleGranted",
			"type": "event"
		},
		{
			"anonymous": false,
			"inputs": [
				{
					"indexed": true,
					"internalType": "bytes32",
					"name": "role",
					"type": "bytes32"
				},
				{
					"indexed": true,
					"internalType": "address",
					"name": "account",
					"type": "address"
				},
				{
					"indexed": true,
					"internalType": "address",
					"name": "sender",
					"type": "address"
				}
			],
			"name": "RoleRevoked",
			"type": "event"
		},
		{
			"inputs": [],
			"name": "DEFAULT_ADMIN_ROLE",
			"outputs": [
				{
					"internalType": "bytes32",
					"name": "",
					"type": "bytes32"
				}
			],
			"stateMutability": "view",
			"type": "function"
		},
		{
			"inputs": [],
			"name": "VESTER_ROLE",
			"outputs": [
				{
					"internalType": "bytes32",
					"name": "",
					"type": "bytes32"
				}
			],
			"stateMutability": "view",
			"type": "function"
		},
		{
			"inputs": [
				{
					"internalType": "string",
					"name": "_poolName",
					"type": "string"
				},
				{
					"internalType": "uint256",
					"name": "_vestingEndTime",
					"type": "uint256"
				},
				{
					"internalType": "uint256",
					"name": "_cliffVestingEndTime",
					"type": "uint256"
				},
				{
					"internalType": "uint256",
					"name": "_cliffPeriodEndTime",
					"type": "uint256"
				},
				{
					"internalType": "address",
					"name": "_tokenAddress",
					"type": "address"
				},
				{
					"internalType": "uint256",
					"name": "_cliffPercentage10000",
					"type": "uint256"
				},
				{
					"internalType": "address[]",
					"name": "_usersAddresses",
					"type": "address[]"
				},
				{
					"internalType": "uint256[]",
					"name": "_userAlloc",
					"type": "uint256[]"
				},
				{
					"internalType": "bytes",
					"name": "_signature",
					"type": "bytes"
				},
				{
					"internalType": "bytes",
					"name": "_keyHash",
					"type": "bytes"
				}
			],
			"name": "addCliffVesting",
			"outputs": [],
			"stateMutability": "nonpayable",
			"type": "function"
		},
		{
			"inputs": [
				{
					"internalType": "string",
					"name": "_poolName",
					"type": "string"
				},
				{
					"internalType": "uint256",
					"name": "_vestingEndTime",
					"type": "uint256"
				},
				{
					"internalType": "address",
					"name": "_tokenAddress",
					"type": "address"
				},
				{
					"internalType": "address[]",
					"name": "_usersAddresses",
					"type": "address[]"
				},
				{
					"internalType": "uint256[]",
					"name": "_userAlloc",
					"type": "uint256[]"
				},
				{
					"internalType": "bytes",
					"name": "_signature",
					"type": "bytes"
				},
				{
					"internalType": "bytes",
					"name": "_keyHash",
					"type": "bytes"
				}
			],
			"name": "addVesting",
			"outputs": [],
			"stateMutability": "nonpayable",
			"type": "function"
		},
		{
			"inputs": [
				{
					"internalType": "uint256",
					"name": "_poolId",
					"type": "uint256"
				}
			],
			"name": "claim",
			"outputs": [],
			"stateMutability": "nonpayable",
			"type": "function"
		},
		{
			"inputs": [
				{
					"internalType": "uint256",
					"name": "_poolId",
					"type": "uint256"
				}
			],
			"name": "claimCliff",
			"outputs": [],
			"stateMutability": "nonpayable",
			"type": "function"
		},
		{
			"inputs": [
				{
					"internalType": "uint256",
					"name": "_poolId",
					"type": "uint256"
				}
			],
			"name": "claimNonCliff",
			"outputs": [],
			"stateMutability": "nonpayable",
			"type": "function"
		},
		{
			"inputs": [
				{
					"internalType": "uint256",
					"name": "_poolId",
					"type": "uint256"
				},
				{
					"internalType": "address",
					"name": "_user",
					"type": "address"
				}
			],
			"name": "claimable",
			"outputs": [
				{
					"internalType": "uint256",
					"name": "",
					"type": "uint256"
				}
			],
			"stateMutability": "view",
			"type": "function"
		},
		{
			"inputs": [
				{
					"internalType": "uint256",
					"name": "",
					"type": "uint256"
				}
			],
			"name": "cliff",
			"outputs": [
				{
					"internalType": "bool",
					"name": "",
					"type": "bool"
				}
			],
			"stateMutability": "view",
			"type": "function"
		},
		{
			"inputs": [
				{
					"internalType": "uint256",
					"name": "_poolId",
					"type": "uint256"
				},
				{
					"internalType": "address",
					"name": "_user",
					"type": "address"
				}
			],
			"name": "cliffClaimable",
			"outputs": [
				{
					"internalType": "uint256",
					"name": "",
					"type": "uint256"
				}
			],
			"stateMutability": "view",
			"type": "function"
		},
		{
			"inputs": [
				{
					"internalType": "contract IERC20Upgradeable",
					"name": "_token",
					"type": "address"
				},
				{
					"internalType": "uint256",
					"name": "_amount",
					"type": "uint256"
				}
			],
			"name": "emergencyWithdraw",
			"outputs": [],
			"stateMutability": "nonpayable",
			"type": "function"
		},
		{
			"inputs": [
				{
					"internalType": "bytes32",
					"name": "role",
					"type": "bytes32"
				}
			],
			"name": "getRoleAdmin",
			"outputs": [
				{
					"internalType": "bytes32",
					"name": "",
					"type": "bytes32"
				}
			],
			"stateMutability": "view",
			"type": "function"
		},
		{
			"inputs": [
				{
					"internalType": "bytes32",
					"name": "role",
					"type": "bytes32"
				},
				{
					"internalType": "address",
					"name": "account",
					"type": "address"
				}
			],
			"name": "grantRole",
			"outputs": [],
			"stateMutability": "nonpayable",
			"type": "function"
		},
		{
			"inputs": [
				{
					"internalType": "bytes32",
					"name": "role",
					"type": "bytes32"
				},
				{
					"internalType": "address",
					"name": "account",
					"type": "address"
				}
			],
			"name": "hasRole",
			"outputs": [
				{
					"internalType": "bool",
					"name": "",
					"type": "bool"
				}
			],
			"stateMutability": "view",
			"type": "function"
		},
		{
			"inputs": [
				{
					"internalType": "string",
					"name": "_vestingName",
					"type": "string"
				},
				{
					"internalType": "address",
					"name": "_signer",
					"type": "address"
				}
			],
			"name": "initialize",
			"outputs": [],
			"stateMutability": "nonpayable",
			"type": "function"
		},
		{
			"inputs": [
				{
					"internalType": "uint256",
					"name": "_poolId",
					"type": "uint256"
				},
				{
					"internalType": "address",
					"name": "_user",
					"type": "address"
				}
			],
			"name": "nonCliffClaimable",
			"outputs": [
				{
					"internalType": "uint256",
					"name": "",
					"type": "uint256"
				}
			],
			"stateMutability": "view",
			"type": "function"
		},
		{
			"inputs": [
				{
					"internalType": "uint256",
					"name": "_poolId",
					"type": "uint256"
				}
			],
			"name": "poolInformation",
			"outputs": [
				{
					"internalType": "bool",
					"name": "isCliff",
					"type": "bool"
				},
				{
					"internalType": "string",
					"name": "poolName",
					"type": "string"
				},
				{
					"internalType": "uint256",
					"name": "startTime",
					"type": "uint256"
				},
				{
					"internalType": "uint256",
					"name": "vestingEndTime",
					"type": "uint256"
				},
				{
					"internalType": "uint256",
					"name": "cliffVestingEndTime",
					"type": "uint256"
				},
				{
					"internalType": "uint256",
					"name": "nonCliffVestingPeriod",
					"type": "uint256"
				},
				{
					"internalType": "uint256",
					"name": "cliffPeriodEndTime",
					"type": "uint256"
				},
				{
					"internalType": "address",
					"name": "tokenAddress",
					"type": "address"
				},
				{
					"internalType": "uint256",
					"name": "totalVestedTokens",
					"type": "uint256"
				},
				{
					"internalType": "uint256",
					"name": "cliffLockPercentage",
					"type": "uint256"
				}
			],
			"stateMutability": "view",
			"type": "function"
		},
		{
			"inputs": [
				{
					"internalType": "bytes32",
					"name": "role",
					"type": "bytes32"
				},
				{
					"internalType": "address",
					"name": "account",
					"type": "address"
				}
			],
			"name": "renounceRole",
			"outputs": [],
			"stateMutability": "nonpayable",
			"type": "function"
		},
		{
			"inputs": [
				{
					"internalType": "bytes32",
					"name": "role",
					"type": "bytes32"
				},
				{
					"internalType": "address",
					"name": "account",
					"type": "address"
				}
			],
			"name": "revokeRole",
			"outputs": [],
			"stateMutability": "nonpayable",
			"type": "function"
		},
		{
			"inputs": [
				{
					"internalType": "address",
					"name": "_signer",
					"type": "address"
				}
			],
			"name": "setSigner",
			"outputs": [],
			"stateMutability": "nonpayable",
			"type": "function"
		},
		{
			"inputs": [
				{
					"internalType": "bytes",
					"name": "_signature",
					"type": "bytes"
				},
				{
					"internalType": "string",
					"name": "_poolName",
					"type": "string"
				},
				{
					"internalType": "address",
					"name": "_tokenAddress",
					"type": "address"
				},
				{
					"internalType": "bytes",
					"name": "_keyHash",
					"type": "bytes"
				}
			],
			"name": "signatureVerification",
			"outputs": [
				{
					"internalType": "address",
					"name": "",
					"type": "address"
				}
			],
			"stateMutability": "view",
			"type": "function"
		},
		{
			"inputs": [],
			"name": "signer",
			"outputs": [
				{
					"internalType": "address",
					"name": "",
					"type": "address"
				}
			],
			"stateMutability": "view",
			"type": "function"
		},
		{
			"inputs": [
				{
					"internalType": "bytes4",
					"name": "interfaceId",
					"type": "bytes4"
				}
			],
			"name": "supportsInterface",
			"outputs": [
				{
					"internalType": "bool",
					"name": "",
					"type": "bool"
				}
			],
			"stateMutability": "view",
			"type": "function"
		},
		{
			"inputs": [
				{
					"internalType": "bytes32",
					"name": "",
					"type": "bytes32"
				}
			],
			"name": "usedHashes",
			"outputs": [
				{
					"internalType": "bool",
					"name": "",
					"type": "bool"
				}
			],
			"stateMutability": "view",
			"type": "function"
		},
		{
			"inputs": [
				{
					"internalType": "uint256",
					"name": "",
					"type": "uint256"
				},
				{
					"internalType": "address",
					"name": "",
					"type": "address"
				}
			],
			"name": "userCliffInfo",
			"outputs": [
				{
					"internalType": "uint256",
					"name": "allocation",
					"type": "uint256"
				},
				{
					"internalType": "uint256",
					"name": "cliffAlloc",
					"type": "uint256"
				},
				{
					"internalType": "uint256",
					"name": "claimedAmnt",
					"type": "uint256"
				},
				{
					"internalType": "uint256",
					"name": "tokensReleaseTime",
					"type": "uint256"
				},
				{
					"internalType": "uint256",
					"name": "remainingToBeClaimableCliff",
					"type": "uint256"
				},
				{
					"internalType": "uint256",
					"name": "cliffReleaseRatePerSec",
					"type": "uint256"
				},
				{
					"internalType": "uint256",
					"name": "cliffLastWithdrawal",
					"type": "uint256"
				}
			],
			"stateMutability": "view",
			"type": "function"
		},
		{
			"inputs": [
				{
					"internalType": "uint256",
					"name": "",
					"type": "uint256"
				},
				{
					"internalType": "address",
					"name": "",
					"type": "address"
				}
			],
			"name": "userInfo",
			"outputs": [
				{
					"internalType": "uint256",
					"name": "allocation",
					"type": "uint256"
				},
				{
					"internalType": "uint256",
					"name": "claimedAmount",
					"type": "uint256"
				},
				{
					"internalType": "uint256",
					"name": "remainingToBeClaimable",
					"type": "uint256"
				},
				{
					"internalType": "uint256",
					"name": "lastWithdrawal",
					"type": "uint256"
				},
				{
					"internalType": "uint256",
					"name": "releaseRatePerSec",
					"type": "uint256"
				}
			],
			"stateMutability": "view",
			"type": "function"
		},
		{
			"inputs": [
				{
					"internalType": "uint256",
					"name": "",
					"type": "uint256"
				},
				{
					"internalType": "address",
					"name": "",
					"type": "address"
				}
			],
			"name": "userNonCliffInfo",
			"outputs": [
				{
					"internalType": "uint256",
					"name": "allocation",
					"type": "uint256"
				},
				{
					"internalType": "uint256",
					"name": "nonCliffAlloc",
					"type": "uint256"
				},
				{
					"internalType": "uint256",
					"name": "claimedAmnt",
					"type": "uint256"
				},
				{
					"internalType": "uint256",
					"name": "tokensReleaseTime",
					"type": "uint256"
				},
				{
					"internalType": "uint256",
					"name": "remainingToBeClaimableNonCliff",
					"type": "uint256"
				},
				{
					"internalType": "uint256",
					"name": "nonCliffReleaseRatePerSec",
					"type": "uint256"
				},
				{
					"internalType": "uint256",
					"name": "nonCliffLastWithdrawal",
					"type": "uint256"
				}
			],
			"stateMutability": "view",
			"type": "function"
		},
		{
			"inputs": [],
			"name": "vestingContractName",
			"outputs": [
				{
					"internalType": "string",
					"name": "",
					"type": "string"
				}
			],
			"stateMutability": "view",
			"type": "function"
		},
		{
			"inputs": [],
			"name": "vestingPoolSize",
			"outputs": [
				{
					"internalType": "uint256",
					"name": "",
					"type": "uint256"
				}
			],
			"stateMutability": "view",
			"type": "function"
		}
	]
}